:100000000C94A6010C94CE010C94CE010C94CE015C
:100010000C94CE010C94CE010C94CE010C94CE0124
:100020000C94CE010C94CE010C94CE010C94CE0114
:100030000C94CE010C943A180C94CE010C94CE0181
:100040000C94031A0C94CE010C94F71C0C94291DEB
:100050000C94CE010C94CE010C94CE010C94CE01E4
:100060000C94CE010C94CE019515BB15B816B215A3
:10007000C5161417231729174F6E6C79204D454765
:10008000413235363020626F6172642063616E20C8
:10009000646F207265636F7264696E672E0D0A006B
:1000A0004F6E6C79204D4547413235363020626FB6
:1000B0006172642063616E20646F207265636F7289
:1000C00064696E672E0D0A0072756E206F7574205C
:1000D0006F662072616D2E0D0A002063616E7420C0
:1000E0006265206F70656E65642E0D0A0020616C7C
:1000F00072656164792065786973747320696E2014
:10010000706C61796C6973742E0D0A002D2D2D2D84
:100110002D2D2D2D2D2D2D2D2D2D2D2D2D2D2D2D0F
:100120002D2D2D2D2D2D2D2D2D2D2D2D2D2D2D2DFF
:100130002D0D0A002E20002D2D2D2D20736F6E67A2
:100140007320696E20544620636172642028726FA8
:100150006F742064697229202D2D2D2D0D0A0073D6
:10016000746F700D0A005265636F7264696E672E5A
:100170002E2E0D0A00205B646F6E655D2E0D0A0049
:10018000202E2E2E0D0A00506C6179696E67207347
:100190006F6E672000206F70656E206661696C6508
:1001A000642E0D0A00506C61796C69737420697358
:1001B00020656D7074792E0D0A00566F6C756D6533
:1001C00020747970652069732046415400436F752F
:1001D0006C64206E6F742066696E642046415431F1
:1001E000362F464154333220706172746974696FDE
:1001F0006E2E0A4D616B65207375726520796F757F
:1002000027766520666F726D61747465642074680A
:100210006520636172640D0A00556E6B6E6F776EB8
:100220000D0A00534448430D0A005344320D0A009E
:100230005344310D0A004361726420747970653A49
:1002400020002A2064696420796F75206368616EDC
:10025000676520746865206368697053656C6563C1
:10026000742070696E20746F206D617463682079EA
:100270006F757220736869656C64206F72206D6F92
:1002800064756C653F0D0A002A20497320796F75EB
:100290007220776972696E6720636F72726563742A
:1002A0003F0D0A002A206973206120636172642077
:1002B000697320696E7365727465643F0D0A006925
:1002C0006E697469616C697A6174696F6E206661C8
:1002D000696C65642E205468696E677320746F20A2
:1002E000636865636B3A0D0A0000000008000201B4
:1002F00000000304070000000000000000010204E9
:100300000810204080010204081020010204081097
:10031000200404040404040404020202020202038E
:10032000030303030300000000230026002900004C
:10033000000000250028002B0000000000240027FA
:10034000002A0000FC034107A318591D11241FBEF9
:10035000CFEFD8E0DEBFCDBF12E0A0E0B1E0EAE928
:10036000F2E402C005900D92AE3FB107D9F727E045
:10037000AEEFB2E001C01D92AD37B207E1F713E076
:10038000CCE4D3E004C02297FE010E946E1FC43467
:10039000D107C9F70E949D1D0C944B210C940000BD
:1003A000CF93DF9326E040E052EC61E070E08CED0B
:1003B00096E00E94951C81E0809301068AEF95E00B
:1003C0000E94A7121092FE051092FD058AEF95E09B
:1003D0000E94A914C2E2D2E08881229660E00E94C5
:1003E0001A1B82E0CE32D807B9F761E089E00E949B
:1003F0001A1B60E089E0DF91CF910C94531B0E949F
:100400004D1A60930A0370930B0380930C0390932F
:100410000D0360930E0370930F038093100390936A
:1004200011030895CF92DF92EF92FF920F931F93E3
:100430000E944D1A60930A0370930B0380930C0380
:1004400090930D0300910E0310910F032091100360
:10045000309111036B017C01C01AD10AE20AF30A40
:1004600097018601C0920603D0920703E092080329
:10047000F0920903C0900203D0900303E0900403BC
:10048000F0900503DC01CB018C199D09AE09BF0971
:100490008093FE029093FF02A0930003B0930103A8
:1004A000003A1F402105310598F00E94FF0169E2E2
:1004B00071E08CED96E00E94F71D109233031092CC
:1004C00032031092190310921803109217031BC0E5
:1004D000883E9340A105B105B0F06EE471E08CED6B
:1004E00096E00E94EA1D80910A0390910B03A0916F
:1004F0000C03B0910D038093020390930303A09328
:100500000403B09305031F910F91FF90EF90DF90CC
:10051000CF90089581E0809316038AEF95E00E94C2
:100520007D1761E089E00E94531B62E571E08CED6C
:1005300096E00C94F71DCF93DF938630910544F439
:10054000FC01EE0FFF1FEA5EFE4FC081D18102C0A9
:100550000E948A02CE01DF91CF910895AF92BF929F
:10056000CF92DF92EF92FF920F931F93CF93DF937F
:1005700022E2C22E22E0D22EC6E2D3E03AE1E32EFE
:1005800033E0F32E01E010E0F6018081F2E0CF0EBF
:10059000D11C0E94891B5E0199838883F701208109
:1005A00031818217930791F00E944D1A60931203D4
:1005B000709313038093140390931503888199819A
:1005C000019721F410931903009318032296F50163
:1005D00080819181F701819391937F010F5F1F4F7C
:1005E0000730110589F6DF91CF911F910F91FF9090
:1005F000EF90DF90CF90BF90AF9008950E94AE0231
:100600008091180390911903892B09F469C064EA59
:1006100071E08CED96E00E94EA1D609118037091E4
:1006200019034AE050E08CED96E00E94A21E66EBB2
:1006300071E08CED96E00E94EA1DE0911803F091C4
:100640001903EE0FFF1FE65FFE4F608171818CED95
:1006500096E00E94F71D8CED96E00E94F31D20911C
:1006600018033091190380913403909135032817B2
:100670003907D1F46AEB71E08CED96E00E94F71D2A
:1006800067EC71E08CED96E00E94F71D8CED96E032
:100690000E94F31D80913203909133030196909351
:1006A00033038093320314C06CED71E08CED96E05F
:1006B0000E94F71D67EC71E08CED96E00E94F71D3B
:1006C0008CED96E00E94F31D1092330310923203DA
:1006D0001092190310921803109217030C94FF0143
:1006E0000895CF93C1E08091160381114DC0809190
:1006F0003203909133030E949B02909335038093C1
:1007000034038091170381112AC06BEE71E08CEDE8
:1007100096E00E94EA1D60913403709135034AE02F
:1007200050E08CED96E00E94A21E66EB71E08CED2D
:1007300096E00E94EA1DE0913403F0913503EE0F3C
:10074000FF1FE65FFE4F608171818CED96E00E9495
:10075000F71D8CED96E00E94F31DC0931703809166
:10076000320390913303009761F007971CF40E94C5
:10077000120207C067EF71E08CED96E00E94F71D52
:10078000B2CF0E94FE02AFCFCF910895CF93CFB7E3
:10079000F89480913903811127C0EBE1F3E0849153
:1007A000E7E0F3E09491E82FF0E0EE0FFF1FE75C45
:1007B000FC4FA591B4918C91892321F461E08AE0EA
:1007C0000E94531B61E08AE00E941A1B8CB5806175
:1007D0008CBD8CB580648CBD61E08DE00E941A1BDD
:1007E00061E08BE00E941A1B809139038F5F809338
:1007F0003903CFBFCF91089510923F031092400369
:10080000109243031092450382E090E0A0E0B0E034
:100810008093460390934703A0934803B093490302
:1008200010925D03109267031092660382E392E0D8
:1008300090936503809364031092690308959FB7B2
:10084000F8942091380380913603213019F48DBB40
:100850009FBF08958FBF089520913803222399F0F8
:100860003FB7F89420913803213059F42DB32093E9
:1008700036034DB320913703209524232DBB3FBF72
:1008800002C0309336038CBD9DBD08958EBD00001F
:100890000DB407FEFDCF8EB508958FEF0C9446047E
:1008A00061E0FC0184810E94531B809183038823B3
:1008B00039F0109283038091380381110C941F0446
:1008C0000895CF93DF93EC0180918303811109C0D8
:1008D00081E08093830380918403909185030E943B
:1008E0002C0460E08C81DF91CF910C94531BCF934B
:1008F000DF93EC018E81882389F08F8198859C019C
:100900002F5F3F4F38872F838230924018F40E9428
:100910004D04F3CFCE010E9450041E82DF91CF918F
:100920000895673028F026E1FC01258380E00895D2
:10093000623081F030F4662359F06130B1F480E523
:1009400015C0643059F040F0653079F482E50EC08E
:1009500080E505C081E503C081E508C082E580939C
:10096000840381E080938503089583E58093840365
:100970001092850381E008950F931F93CF93DF9327
:10098000EB010E944D1A8B010E944D048F3F49F0EC
:100990000E944D1A601B710B6C177D07A8F380E055
:1009A00001C081E0DF91CF911F910F910895CF9207
:1009B000DF92FF920F931F93CF93DF9300D000D06D
:1009C000CDB7DEB76C01F62E29833A834B835C8367
:1009D0000E947704C6010E9461046CE271E0C601C6
:1009E0000E94BC048F2D80640E94460408E110E040
:1009F0005C814B813A812981DA01C901002E04C052
:100A0000B695A795979587950A94D2F729833A8347
:100A10004B835C830E9446040850110929813A8166
:100A20004B815C81083F8FEF180731F7FF2029F0D9
:100A3000E8E0FE1621F08FEF03C085E901C087E8EA
:100A40000E94460410E00E944D04F601828787FF51
:100A500004C01F3F11F01F5FF6CF0F900F900F9053
:100A60000F90DF91CF911F910F91FF90DF90CF906A
:100A70000895BF92CF92DF92EF92FF920F931F9350
:100A8000CF93DF93EC01B62E1B8619861E821D8242
:100A90004C830E944D1A8B0161E08C810E941A1BCD
:100AA00061E08C810E94531B0E94C60382E5809303
:100AB00084031092850380918403909185030E94A2
:100AC0002C042AE0F22E8FEF0E944604FA94D9F704
:100AD0008091380381110E941F04CE010E9461049D
:100AE00020E030E0A90160E0CE010E94D704F82E9A
:100AF0008A8781E0F81649F00E944D1A601B710B3D
:100B0000613D774068F381E04BC02AEA31E040E084
:100B100050E068E0CE010E94D70482FF02C0FB864D
:100B20000DC094E0F92E0E944D048A87FA94D9F7FB
:100B30008A3A11F082E034C082E08B878B85823064
:100B400031F4C12CD12CE12C80E4F82E03C0C12C4F
:100B5000D12C760120E030E0A90167E3CE010E94AC
:100B6000D704A701960169E2CE010E94D7048A87C3
:100B7000882349F00E944D1A601B710B613D77403C
:100B800048F388E00DC08B85823031F520E030E0FD
:100B9000A9016AE3CE010E94D704882381F086E090
:100BA0008D83CE010E94500480E0DF91CF911F9190
:100BB0000F91FF90EF90DF90CF90BF9008950E942B
:100BC0004D04807C803C11F483E08B870E944D04AF
:100BD0000E944D040E944D04CE010E9450046B2DD2
:100BE000CE01DF91CF911F910F91FF90EF90DF9099
:100BF000CF90BF900C9491040F931F93CF93DF93EA
:100C0000EC010E944D1A8B010E944D048A878F3F90
:100C100049F40E944D1A601B710B6D327140A0F3B4
:100C20008FE003C08E3F39F08DE08D83CE010E94AE
:100C3000500480E001C081E0DF91CF911F910F91BE
:100C40000895CF92DF92EF92FF920F931F93CF936D
:100C5000DF93EC0169010115110509F462C0C801B7
:100C6000820F931F8130924008F05DC08E818823EF
:100C700071F088819981AA81BB81481759076A0759
:100C80007B0729F48F819885C816D90610F548830B
:100C900059836A837B838B85833039F039E0440F35
:100CA000551F661F771F3A95D1F79A01AB0161E195
:100CB000CE010E94D704882319F083E08D8333C0CE
:100CC000CE010E94FC05882371F118861F8281E005
:100CD0008E838F8198858C159D0540F40E944D046C
:100CE0008F819885019698878F83F3CF6701E00EF7
:100CF000F11ECE14DF0431F00E944D04F601819301
:100D00006F01F7CF8F819885800F911F98878F8310
:100D10002985222319F08115924018F0CE010E94F6
:100D2000770481E004C0CE010E94500480E0DF918E
:100D3000CF911F910F91FF90EF90DF90CF9008958A
:100D4000EF92FF920F931F93790100E012E020E0F1
:100D500030E00E9421061F910F91FF90EF900895BF
:100D6000CF92DF92EF92FF920F931F93CF93DF9377
:100D700000D0CDB7DEB78C01862F49835A830E94FD
:100D800046044981C42E5A81D52EE12CF12CF6015E
:100D900081916F010E944604FFEFEF1AFF0AE114F0
:100DA00082E0F806A1F78FEF0E9446048FEF0E94C1
:100DB00046040E944D04F80182878F71853039F016
:100DC00081E18583C8010E94500480E001C081E078
:100DD0000F900F90DF91CF911F910F91FF90EF90A7
:100DE000DF90CF9008950F931F93CF93DF93EC0183
:100DF0008901411551056105710511F482E132C087
:100E00008B85833039F089E0440F551F661F771FAB
:100E10008A95D1F79A01AB0168E1CE010E94D7040F
:100E2000882311F084E01EC0A8016EEFCE010E945D
:100E3000B0068823C1F068E572E0CE010E94BC04D0
:100E4000811102C085E10EC020E030E0A9016DE013
:100E5000CE010E94D704811104C00E944D04882352
:100E600039F084E18D83CE010E94500480E004C0FB
:100E7000CE010E94500481E0DF91CF911F910F912C
:100E8000089580E580938403109285030895CF939D
:100E9000DF93EC019C012A5F3F4F41E050E060E0AE
:100EA00070E08B8D9C8D0E94920F8823A1F04F895A
:100EB000588D698D7A8D452B462B472B71F44E81C9
:100EC0005F81688579854F8B588F698F7A8F8C8188
:100ED00080688C8302C080E001C081E0DF91CF9107
:100EE0000895CF93DF93EC01462F6E857F85888927
:100EF00099890E94C70D882341F08A8920E2829F48
:100F0000C001112481579C4F02C080E090E0DF9126
:100F1000CF91089530E020E04EE2DC015C91503248
:100F200071F0383029F4FB01E20FF11D40832F5F8F
:100F3000FB01E20FF11DDC015C9150832F5F3F5FED
:100F400001963B3051F7FB01E20FF11D108208952D
:100F50000F931F93CF93DF93EC018B018D81882337
:100F600011F080E040C0FB0187898031B1F482E05C
:100F70008D831F8A188E198E1A8E408D518D60E0D8
:100F800070E095E0440F551F661F771F9A95D1F7C3
:100F90004B8B5C8B6D8B7E8B15C0803211F783E0A1
:100FA0008D83FB01428D538D648D758D4F8B588FD2
:100FB000698F7A8F9E012D5E3F4FC8010E94860E79
:100FC000882379F21C8F0B8F81E08C831E821F8215
:100FD000188619861A861B861C861D861E861F8605
:100FE000188A198A1A8ADF91CF911F910F9108955B
:100FF0002F923F924F925F926F927F928F929F9229
:10100000AF92BF92CF92DF92EF92FF920F931F9316
:10101000CF93DF93EC016B015A018D81811103C0E5
:101020008FEF9FEFDAC08C8180FFFACF4B895C890C
:101030006D897E898A859B85AC85BD852501612C5E
:10104000712C8A019B01081B190B2A0B3B0B041501
:1010500015052605370518F45A01A81AB90A2501FD
:101060001E0126E0220E311C4114510409F47BC0FC
:101070004A855B856C857D854A0181E09822ED81FA
:101080008A019B01F9E03695279517950795FA9502
:10109000D1F78B8D9C8DE23051F4FC01628D738D04
:1010A000848D958D600F711F821F931F3EC0FC01C0
:1010B00074807A94702281149104C9F4711017C05D
:1010C000452B462B472B49F48F89988DA98DBA8DD6
:1010D0008E839F83A887B9870AC04E815F81688508
:1010E000798591010E94020E882309F499CFEB8D36
:1010F000FC8D6E817F818885998562507109810997
:101100009109058404C0660F771F881F991F0A94F0
:10111000D2F70685178520893189600F711F821FDC
:10112000931F670D711D811D911D20E032E028196C
:10113000390932012415350508F439012C8126FDC1
:1011400004C06114F2E07F06A1F500912201109124
:101150002301209124013091250160177107820736
:10116000930719F426C0C50138C0760183019401A4
:10117000AB01BC0180918D0390918E030E942106EA
:10118000882309F44DCFC60CD71C04C0E81BF90B0B
:10119000CE0EDF1E8A859B85AC85BD85860D971D8D
:1011A000A11DB11D8A879B87AC87BD87461857084C
:1011B0005BCF40E00E94C70D882309F431CFC40102
:1011C00081579C4FD6019C01260D371DFC01E2176B
:1011D000F307E1F241914D93FACFDF91CF911F9147
:1011E0000F91FF90EF90DF90CF90BF90AF909F90C6
:1011F0008F907F906F905F904F903F902F900895C9
:101200000F931F93CF93DF93EC018B018D8182307D
:1012100010F48FEF24C04A855B856C857D854F7106
:10122000552766277727452B462B472B91F740E21A
:1012300050E0B801CE010E94F807803269F4F8014D
:101240008081882359F0853E91F38E3281F3838526
:1012500083FDEDCF80E203C087FDDBCF80E0DF912F
:10126000CF911F910F910895FF920F931F93CF93EA
:10127000DF931F92CDB7DEB78C01FC0185818230F0
:1012800018F480E090E034C0F8014285538564850D
:101290007585A5E07695679557954795AA95D1F7F9
:1012A000F42FFF70FF2E41E050E0BE016F5F7F4FD3
:1012B000C8010E94F807019719F4298130E002C0A3
:1012C0002FEF3FEF2F3F3F4FE1F2F801428553856B
:1012D00064857585415E5F4F6F4F7F4F42875387AF
:1012E00064877587F0E2FF9EC001112481579C4FEF
:1012F0000F90DF91CF911F910F91FF9008954F9222
:101300005F926F927F92AF92BF92CF92DF92EF92F5
:10131000FF920F931F93CF93DF93EC016A017B0140
:101320002D81222309F457C08B899C89AD89BE8900
:1013300084179507A607B70708F44DC04EC08A85E5
:101340009B85AC85BD85EB8DFC8DE585F0E0399600
:10135000AC01BD0141505109610971090E2E04C053
:1013600076956795579547950A94D2F79701860128
:10137000015011092109310904C0369527951795A7
:101380000795EA95D2F70417150726073707B0F532
:101390008F89988DA98DBA8D8E839F83A887B987F1
:1013A000280139015E0186E0A80EB11C41145104E8
:1013B0006104710461F14E815F81688579859501D1
:1013C0008B8D9C8D0E94020E91E0491A5108610894
:1013D00071088111EBCF80E01FC02230C1F0C11431
:1013E000D104E104F10409F0AACF1E821F821886FD
:1013F00019861A861B861C861D860DC0892B8A2B92
:101400008B2B31F2041B150B260B370BC9CFCA8669
:10141000DB86EC86FD8681E0DF91CF911F910F91F5
:10142000FF90EF90DF90CF90BF90AF907F906F9044
:101430005F904F9008950F931F93CF93DF93EC012C
:101440008D818823C9F18C8187FF30C061E0CE0196
:101450000E9471078C01009779F18D81823048F4E8
:101460004B895C896D897E89F801448F558F668F21
:10147000778F4F89588D698D7A8DF801538F428F00
:10148000758B648BE0918603F0918703309759F058
:10149000B8016A5E7F4FC80148960995F801808DB2
:1014A000918D938B828B8C818F778C83DF91CF9101
:1014B0001F910F910C948C0D80E0DF91CF911F91C3
:1014C0000F910895CF93DF93EC010E941B0A8823AC
:1014D00019F01D8281E001C080E0DF91CF91089575
:1014E0004F925F926F927F92AF92BF92CF92DF92B4
:1014F000EF92FF920F931F93CF93DF9300D000D012
:10150000CDB7DEB75C016A017B01FC0185818130CA
:10151000F1F4848181FF1BC0F50183899489A58939
:10152000B68984179507A607B70788F0892B8A2BF9
:101530008B2B09F479C0F50142845384648475844B
:10154000B701A601C5010E947F09811102C080E098
:101550006CC0F501838D948DC114D104E104F104B4
:1015600071F44789508D618D728D0E94A710882378
:1015700071F3F501178A108E118E128E3AC0F501A3
:1015800046815781608571859E012F5F3F4F0E9484
:10159000020E8823E1F249815A816B817C81F50139
:1015A000838D948DFC012789203129F408EF1FEFEA
:1015B00020E030E004C008EF1FEF2FEF3FE04017BE
:1015C000510762077307A8F40E94A710882309F443
:1015D000BECFF50146815781608571850FEF1FEF02
:1015E0002FEF3FE0838D948D0E94F10E882309F444
:1015F000AECFF501C38AD48AE58AF68A84818068F1
:101600008483C5010E941B0A882309F4A0CFB70177
:10161000A6014C145D046E047F0410F4B301A20112
:10162000C5010E947F0901C081E00F900F900F90CB
:101630000F90DF91CF911F910F91FF90EF90DF906E
:10164000CF90BF90AF907F906F905F904F90089534
:10165000FF920F931F93CF93DF93EC01F42E80E260
:10166000689FF0011124E157FC4F8385817129F0B7
:10167000842F827411F080E053C06A8B8091220124
:1016800090912301A0912401B09125018E879F871D
:10169000A88BB98B4489558960E070E0BA01552761
:1016A0004427028D138D20E030E0402B512B622B1C
:1016B000732B4F8B588F698F7A8F8385887151F484
:1016C000048D158D268D378D0B8B1C8B2D8B3E8BB2
:1016D00081E00CC0803179F69E012D5E3F4F8B8DED
:1016E0009C8D0E94860E882331F284E08D838F2D9D
:1016F0008F708C831E821F82188619861A861B861D
:101700001C861D86F6FE0BC040E050E0BA01CE01FB
:10171000DF91CF911F910F91FF900C94700A81E09F
:10172000DF91CF911F910F91FF900895DF92EF927B
:10173000FF920F931F93CF93DF93EC018B017A01FC
:10174000D22E8D8181112FC0822F8073803359F169
:10175000FB01838D948D9C8F8B8F65E0440F551F0B
:101760006A95E1F760E070E0C8010E947F09882374
:10177000D1F0C8010E9434090097A9F0FC018081D2
:10178000882389F0853E79F08E3269F06E2D6F7076
:101790004D2DCE01DF91CF911F910F91FF90EF90D2
:1017A000DF900C94280B80E0DF91CF911F910F9177
:1017B000FF90EF90DF9008952F923F924F925F92AB
:1017C0006F927F928F929F92AF92BF92CF92DF9251
:1017D000EF92FF920F931F93CF93DF9300D000D02F
:1017E0001F92CDB7DEB78C017B013A01DC01159663
:1017F0008C9115978130C9F414968C9181FF15C096
:1018000082FF1BC0F80143895489658976898285E6
:101810009385A485B58584179507A607B70769F052
:10182000C8010E947F09811108C081E090E0F801A1
:101830009383828380E090E046C1630180C0D80139
:101840005B968D919C915C97FC01F481F150B50100
:10185000A40129E076956795579547952A95D1F784
:10186000F423FD8321E09222FF2309F474C080E079
:1018700092E08819990956018C159D0508F45C01C0
:10188000D8015B96ED91FC915C9716962D903D905A
:101890004D905C901997B2E02B1A3108410851081D
:1018A000058404C0220C331C441C551C0A94D2F736
:1018B00086859785A089B189280E391E4A1E5B1E30
:1018C000ED812E0E311C411C511CA114F2E0BF060B
:1018D00009F088C08091220190912301A0912401F8
:1018E000B091250182159305A405B50559F48FEF34
:1018F0009FEFDC018093220190932301A0932401A8
:10190000B09325019701B201A10180918D039091BF
:101910008E030E94F306882309F487CF9EEFF91AFD
:10192000CA18DB08F80182859385A485B5858A0DE0
:101930009B1DA11DB11D82879387A487B587D80100
:101940001A968D909D90AD90BC901D97C114D104B6
:1019500009F075CF8AC08114910409F088CF1696DA
:101960004D915D916D917C911997411551056105DE
:10197000710559F457968D919D910D90BC91A02DB4
:101980000097A105B10541F521C09E012F5F3F4F92
:101990000E94020E882309F44ECF89819A81AB817F
:1019A000BC81F801238D348DF9012789203129F478
:1019B00048EF5FEF60E070E004C048EF5FEF6FEF6B
:1019C0007FE084179507A607B70730F0C8010E948B
:1019D000470781114CCF29CFF80186839783A087D1
:1019E000B18745CF8114910429F5D8011A964D91FC
:1019F0005D916D917C911D9753968D919D910D9068
:101A0000BC91A02D481759076A077B0798F00E94E0
:101A10008C0D882309F409CF2092220130922301F2
:101A2000409224015092250180918C038160809323
:101A30008C0308C041E0C201B1010E94C70D882398
:101A400009F4F3CEC40181579C4FD7019C012A0DA4
:101A50003B1DFC01E217F30719F04D914193FACFBA
:101A6000E81BF90BEE0EFF1E5BCF53968D919D91F7
:101A70000D90BC91A02DF801248188159905AA0527
:101A8000BB0538F4838A948AA58AB68A20682483A1
:101A90000CC08091860390918703892B31F06114EB
:101AA000710419F02068F8012483D80114968C91F0
:101AB00083FD02C0C30107C0C8010E941B0A88231E
:101AC00009F4B3CEF7CF0F900F900F900F900F90B7
:101AD000DF91CF911F910F91FF90EF90DF90CF900A
:101AE000BF90AF909F908F907F906F905F904F903E
:101AF0003F902F900895CF93DF931F92CDB7DEB71D
:101B0000698341E050E0BE016F5F7F4F0E94DC0BB4
:101B10000F90DF91CF91089580918C03882399F1E4
:101B2000409122015091230160912401709125017F
:101B30002FE833E080918D0390918E030E94F3068D
:101B4000882319F1409188035091890360918A0399
:101B500070918B03411551056105710591F02FE8D6
:101B600033E080918D0390918E030E94F3068823C9
:101B700061F0109288031092890310928A031092E8
:101B80008B0310928C0381E0089580E00895CF923A
:101B9000DF92EF92FF92CF936B017C01C42F809173
:101BA000220190912301A0912401B09125018C156F
:101BB0009D05AE05BF05D1F00E948C0D811102C0BC
:101BC00080E01AC02FE833E0B701A60180918D03B1
:101BD00090918E030E94A006882391F3C092220167
:101BE000D0922301E0922401F092250180918C0390
:101BF0008C2B80938C0381E0CF91FF90EF90DF904E
:101C0000CF9008958F929F92AF92BF92CF92DF9222
:101C1000EF92FF920F931F93CF93DF938C016A0192
:101C20007B01E901FC0181859285A385B48501963C
:101C3000A11DB11D84179507A607B70710F480E012
:101C400058C0F8014389548965897689878980312C
:101C500029F4BB27AF2D9E2D8D2D09C0D701C601BC
:101C600027E0B695A795979587952A95D1F74C01CA
:101C70005D01840E951EA61EB71EC501B40180909D
:101C8000220190902301A0902401B09025016815B5
:101C900079058A059B0589F4F8018789803199F4D3
:101CA000DD24EE24FF24F601EE0FFF1FE157FC4F69
:101CB00080819181A0E0B0E017C040E00E94C70D94
:101CC0008111EACFBCCFE894C7F8DD24EE24FF24CD
:101CD000F601EE0FFF1FEE0FFF1FE157FC4F808153
:101CE0009181A281B381BF7088839983AA83BB83CA
:101CF00081E0DF91CF911F910F91FF90EF90DF90E6
:101D0000CF90BF90AF909F908F9008954F925F9229
:101D10006F927F92AF92BF92CF92DF92EF92FF923B
:101D20000F931F93CF93DF9300D000D0CDB7DEB7D2
:101D30008C0149835A836B837C835901C12CD12C3C
:101D40007601412C42E0542E612C712C49815A813C
:101D50006B817C819E012F5F3F4FC8010E94020E64
:101D6000882359F1D301C201F801058404C0880F0A
:101D7000991FAA1FBB1F0A94D2F7C80ED91EEA1ECC
:101D8000FB1E49815A816B817C818789803129F4CE
:101D900088EF9FEFA0E0B0E004C088EF9FEFAFEFC7
:101DA000BFE0481759076A077B0780F2F501C08238
:101DB000D182E282F38281E001C080E00F900F9037
:101DC0000F900F90DF91CF911F910F91FF90EF90A7
:101DD000DF90CF90BF90AF907F906F905F904F90CB
:101DE00008954F925F926F927F928F929F92AF92DF
:101DF000BF92CF92DF92EF92FF920F931F93CF93F8
:101E0000DF93EC016A017B01280139014230510561
:101E10006105710508F474C049855A856B857C8518
:101E20004F5F5F4F6F4F7F4F4C155D056E057F0510
:101E300008F466C08B889C88AD88BE888F89803105
:101E400029F477276F2D5E2D4D2D09C0B701A6010E
:101E5000E7E07695679557954795EA95D1F7840E13
:101E6000951EA61EB71E409122015091230160913C
:101E700024017091250184169506A606B70671F413
:101E80008F89803199F4DD24EE24FF24F601EE0FD2
:101E9000FF1FE157FC4F5182408218C040E0C5014E
:101EA000B4010E94C70D8111EBCF2AC0E894C7F896
:101EB000DD24EE24FF24F601EE0FFF1FEE0FFF1FBF
:101EC000E157FC4F408251826282738280918C0381
:101ED000816080938C038A89823080F08D819E811D
:101EE000AF81B885880D991DAA1DBB1D80938803FD
:101EF00090938903A0938A03B0938B0381E001C080
:101F000080E0DF91CF911F910F91FF90EF90DF90D4
:101F1000CF90BF90AF909F908F907F906F905F9089
:101F20004F9008952F923F924F925F926F927F92BF
:101F30009F92AF92BF92CF92DF92EF92FF920F9358
:101F40001F93CF93DF93CDB7DEB760970FB6F894AA
:101F5000DEBF0FBECDBF5C014D875E876F87788B7C
:101F60001901D9014D905D906D907C904114510400
:101F70006104710431F0BFEF4B1A5B0A6B0A7B0AF4
:101F800010C0FC014080518062807380992493943A
:101F90000D851E852F8538890130110521053105F4
:101FA00009F0912CD50119962D913D914D915C919F
:101FB0001C972F5F3F4F4F4F5F4F29873A874B87C3
:101FC0005C87730162011D821E821F821886F501E3
:101FD00081859285A385B4850D811E812F813885E9
:101FE000081719072A073B0708F056C029853A85C4
:101FF0004B855C852C153D054E055F0550F4A2E030
:10200000CA2ED12CE12CF12CB2E04B2E512C612C9C
:10201000712C9E012F5F3F4FB701A601C5010E94A1
:10202000020E8823C9F149815A816B817C81D701D5
:10203000C6010196A11DB11D452B462B472B19F05A
:102040002C013D010FC0AC01BD01441955096609C1
:1020500077090D851E852F8538894017510762073E
:10206000730779F02D813E814F8158852F5F3F4F57
:102070004F4F5F4F2D833E834F8358876C017D0107
:10208000A6CF0FEF1FEF2FEF3FE0B701A601C5016D
:102090000E94F10E811118C080E041C0D701C60135
:1020A0000197A109B1098D839E83AF83B8879701FA
:1020B0008601AC01BD01C5010E94F10E882361F3C8
:1020C000CD80DE80EF80F8844C145D046E047F04C4
:1020D00028F3D1014D915D916D917C914115510590
:1020E0006105710599F4F101408251826282738227
:1020F0009920A1F0FFEF4F1A5F0A6F0A7F0AD501FE
:102100004D925D926D927C92139708C0930182016B
:10211000C5010E94F10E8111E6CFBECF81E060962D
:102120000FB6F894DEBF0FBECDBFDF91CF911F91E8
:102130000F91FF90EF90DF90CF90BF90AF909F9066
:102140007F906F905F904F903F902F900895AF9247
:10215000BF92CF92DF92EF92FF920F931F93CF9394
:10216000DF9300D000D0CDB7DEB75C016A017B0100
:1021700082E090E0A0E0B0E0F50180839183A2834B
:10218000B3839E012F5F3F4FB701A601C5010E9497
:10219000020E882311F100E010E09801B701A601BA
:1021A000C5010E94F10E8823C1F0C980DA80EB805E
:1021B000FC80F5018789803129F488EF9FEFA0E04A
:1021C000B0E004C088EF9FEFAFEFBFE0C816D906BC
:1021D000EA06FB06B0F281E001C080E00F900F90AC
:1021E0000F900F90DF91CF911F910F91FF90EF9083
:1021F000DF90CF90BF90AF9008958F929F92AF9253
:10220000BF92CF92DF92EF92FF920F931F93CF93E3
:10221000DF93EC01142F70938E0360938D0344239E
:1022200041F1453010F080E0EFC040E060E070E048
:10223000CB010E94C70D8823B1F320E1129FF0016A
:102240001124E35CFA4F80818F7769F78485958547
:10225000A685B78584369105A105B10520F3C08414
:10226000D184E284F384C114D104E104F10421F4A3
:10227000DACFC12CD12C760140E0C701B6010E9413
:10228000C70D882381F280919A0390919B03811559
:10229000924049F630919F03332329F280919D03A8
:1022A00090919E03892B09F4BECF20919C03222399
:1022B00009F4B9CF3A8B2C831D8630E041E050E021
:1022C0006D85062FCA01062E02C0880F991F0A9439
:1022D000E2F72817390731F081E0860F8D876830E3
:1022E00078F3A1CF2091A5033091A60321153105E4
:1022F00019F040E050E008C02091B3033091B403DE
:102300004091B5035091B6032D833E834F83588788
:1023100080919D0390919E0346015701880E991E5E
:10232000A11CB11C8B8A9C8AAD8ABE8AE091A00355
:10233000F091A103F98FE88FA0919F03B0E00E9474
:10234000721F680D791D8A1D9B1D6A8F7B8F8C8F74
:102350009D8F15E0EE0FFF1F1A95E1F7E150FE4F3C
:10236000EF2FFF27E695DC01CB018E0F9F1FA11DEC
:10237000B11D8E879F87A88BB98B8090A203909008
:10238000A3038114910419F0A12CB12C08C08090F2
:10239000AF039090B003A090B103B090B203A70137
:1023A0009601281B390B4A0B5B0BDA01C901880D1A
:1023B000991DAA1DBB1D04C0B695A7959795879535
:1023C0000A95D2F789879A87AB87BC87853F3FE01C
:1023D0009307A105B10510F48CE014C0853F9F4F11
:1023E000A105B10510F480E10DC08091BB0390916F
:1023F000BC03A091BD03B091BE038A8F9B8FAC8FAD
:10240000BD8F80E28F8B81E0DF91CF911F910F9183
:10241000FF90EF90DF90CF90BF90AF909F908F9004
:10242000089561E088E00E941A1B60E088E00C9447
:10243000531B60E083E00E941A1B60E086E00E946C
:102440001A1B60E085E00E941A1B60E084E00E9495
:102450001A1B60E087E00E941A1B61E083E00E9483
:10246000531B61E086E00E94531B61E085E00E94FF
:10247000531B61E084E00E94531B61E087E00C94F1
:10248000531BCF93DF93FC016491EC0121966623EB
:1024900031F08CED96E00E94EC1DCE01F4CFDF917F
:1024A000CF91089510928000E1E8F0E080E1808310
:1024B00080EA9FE090938700809386008081887FE8
:1024C000808380818160808381E080936F0010929F
:1024D000850010928400789408951F93CF93DF9322
:1024E000EC015881611106C0541710F4188210C015
:1024F000541B0DC0252F30E08EEF90E0841B910916
:10250000821793071CF48EEF888302C0540F588300
:102510001881412F612F82ED96E00E949019188357
:10252000DF91CF911F91089520E030E0FC01E20F90
:10253000F31F138612862E5F3F4F20353105B1F70A
:10254000FC01E65AFF4F1082319610820895CF9316
:10255000DF93EC010E9411128F81811102C00E9451
:10256000191285E0FE01E35AFF4F808381E08183E9
:1025700084E690E09383828321E030E035832483F6
:10258000168210861782118643E03B96408352E004
:1025900051839383828325E030E035832483168240
:1025A00010861782118627E03B9620835183938300
:1025B000828323E030E035832483168210861782DD
:1025C000118626E03B96208341839383828329E012
:1025D00030E035832483168210861782118624E02A
:1025E0003B96208341839383828387E090E09583A9
:1025F0008483168210861782118682ED96E00E94EF
:10260000DD1961E08AE00E941A1B4AE061E08EEE6B
:1026100095E00E94390581110FC08FEB92E00E9476
:10262000411284EA92E00E94411288E892E00E94FE
:10263000411282E492E02DC086E392E00E944112B2
:102640008091F905823039F0833041F0813049F4CE
:1026500080E392E008C08AE292E005C083E292E063
:1026600002C089E192E00E94411241E06EEE75E005
:1026700080ED95E00E94FD1081110FC040E06EEEEC
:1026800075E080ED95E00E94FD10811106C08DEC93
:1026900091E0DF91CF910C9441128AEB91E00E947E
:1026A00041124AE050E06091E7058CED96E00E940F
:1026B000B71E60ED75E083EB95E00E94A807CE01A0
:1026C0000E94941248E268E282ED96E00E9490191E
:1026D00088E288831C821B8283E090E090939505BA
:1026E000809394051092930510929205CE01DF918C
:1026F000CF910C9452128091AE069091AF06892B27
:1027000029F0E091AE06F091AF0609958091B006F0
:102710009091B106892B29F0E091B006F091B106B5
:1027200009940895CF92DF92EF92FF920F931F9337
:10273000CF93DF9302EB16E04AEBE42E46E0F42E53
:10274000C0E0D0E06E01CC0CDD1CC6018E53994F69
:102750006C01DC018D919C91892B91F421960F5F86
:102760001F4FBFEFEB1AFB0AC830D10559F7DF91B5
:10277000CF911F910F91FF90EF90DF90CF90089530
:10278000F80180810E94891BD7012C91332727FDF6
:1027900030958217930711F7D601ED91FC910995B9
:1027A000F80180810E94891BD7012C91332727FDD6
:1027B000309582179307A1F3D1CF80919405909122
:1027C00095058230910511F461E003C0892B21F455
:1027D00060E088E00C94531B8091260190912701C2
:1027E00001979093270180932601892BC1F482E3FE
:1027F00090E09093270180932601809128018130F9
:1028000039F461E088E00E94531B1092280108957A
:1028100060E088E00E94531B81E0809328010895C6
:1028200020E030E0FC01E20FF31F0284F385E02D8D
:10283000309729F0458556854617570739F02E5FA2
:102840003F4F2035310571F780E0089581E008950C
:102850008F929F92AF92BF92CF92DF92EF92FF92B0
:102860000F931F93CF93DF93CDB7DEB76D970FB65E
:10287000F894DEBF0FBECDBF6C015B014A017C0145
:102880008AE5E80EF11CF7018081873208F04DC01F
:10289000C6010E941014882351F0B4018CED96E01B
:1028A0000E94EA1D8DEE90E00E94411238C01C8209
:1028B0001B8282E392E09A8389831E8221E0A50134
:1028C00063EB75E0CE0101960E94960B811108C062
:1028D000B4018CED96E00E94EA1D8AED90E023C0E1
:1028E000CE0101960E94620A8FE090E00E948C1F48
:1028F0008C010097B1F04DE050E0B4010E9410212E
:10290000F801B686A586F7018081F601E80FF11D72
:10291000E80FF11D138702878F5FF701808381E045
:1029200005C088EC90E00E94411280E06D960FB6E1
:10293000F894DEBF0FBECDBFDF91CF911F910F91F5
:10294000FF90EF90DF90CF90BF90AF909F908F90CF
:1029500008958F929F92AF92BF92CF92DF92EF92A3
:10296000FF920F931F93CF93DF93CDB7DEB7AD9751
:102970000FB6F894DEBF0FBECDBF6C01FC01E65A66
:10298000FF4F808181119BC087E391E00E9441123B
:10299000E12CF12CBE016F5F7F4F83EB95E00E942D
:1029A000000987FD04C028E2E216F10448F0F601B0
:1029B000E55AFF4F10828CE091E00E9441127FC0E7
:1029C0008090BD059090BE05A090BF05B090C00559
:1029D0008981882361F3853EE9F28E32D9F28C85B4
:1029E00083FDD8CF8D8D9E8DAF8DB8A1811590427E
:1029F000A105B10578F2BE016F5D7F4FCE01019652
:102A00000E948A07CE0181960E9439218C0163E4DD
:102A100072E00E941F21892B59F568E472E0C80119
:102A20000E941F21892B21F56DE472E0C8010E94EC
:102A30001F21892BE9F462E572E0C8010E941F2181
:102A4000892BB1F467E572E0C8010E941F21892B30
:102A500079F46DE572E0C8010E941F21892B41F4D1
:102A600062E672E0C8010E941F21892B09F492CF0F
:102A7000C501B401605271098109910955E096952B
:102A80008795779567955A95D1F7AE014F5D5F4F62
:102A9000C6010E9428148FEFE81AF80A4AE050E0B5
:102AA000B7018CED96E00E94CE1E84E391E00E9477
:102AB0004112B8018CED96E00E94F71D6BCFAD96E8
:102AC0000FB6F894DEBF0FBECDBFDF91CF911F913F
:102AD0000F91FF90EF90DF90CF90BF90AF909F90BD
:102AE0008F90089580EA90E00E944112109295051F
:102AF00010929405089588E790E00E944112109288
:102B000095051092940508950F931F93CF93DF932B
:102B1000EC01E0919405F0919505E830F10508F09D
:102B2000E7C1EC5CFF4F0C946C1F80919205909173
:102B30009305019751F483E090E09093950580937D
:102B40009405109293051092920580919B0588231D
:102B500009F4CEC186E995E0DF91CF911F910F91E5
:102B60000C94620AFC01E65AFF4F8081811182C1F8
:102B700085EA91E078C18091920590919305019743
:102B800051F4109293051092920582E090E0909398
:102B900095058093940580919205909193050297F5
:102BA00041F410929305109292051092950510929F
:102BB00094058091920590919305059749F41092A0
:102BC00093051092920546E060E0CE010E946D12DE
:102BD0008091920590919305039749F41092930583
:102BE0001092920546E061E0CE010E946D12809144
:102BF000920590919305079799F51092930510927D
:102C000092058B819C81FE01E65AFF4F8E01055A89
:102C10001F4F019761F4208130E040E050E060E018
:102C200070E0CB010E940E1FD8016C930FC0D80139
:102C30004C91242F30E0808190E0019728173907CC
:102C400011F41C9203C04F5FF801408386E995E0C0
:102C50000E94620A83E090E090939505809394052A
:102C60008091920590919305099779F510929305BB
:102C7000109292058B819C818E01055A1F4F0197FE
:102C800071F4C65ADF4F288130E040E050E060E048
:102C900070E0CB010E940E1FD8016C930CC0F801AC
:102CA0008081811106C0C65ADF4F888181508083A0
:102CB00002C08150808386E995E00E94620A83E029
:102CC00090E0909395058093940580919205909162
:102CD0009305089729F5109293051092920581E0CB
:102CE00080938F054091A0055091A1056091A205A8
:102CF0007091A30550586F4F7F4F8091A905909117
:102D0000AA05A091AB05B091AC05481759076A0711
:102D10007B0720F486E995E00E947F0910928F05D9
:102D200080919205909193050A9709F0E1C0109265
:102D300093051092920581E080938F058091A00504
:102D40009091A105A091A205B091A3058115E0E89D
:102D50009E07A105B10549F0AC01BD0150586109BC
:102D6000710986E995E00E947F0910928F05C0C025
:102D700080919205909193058130910509F0B8C03A
:102D8000109293051092920559C085E791E00E9438
:102D9000411280919B05882321F086E995E00E94ED
:102DA000620A8B819C818130910581F4FE01E65A93
:102DB000FF4F208130E040E050E060E070E0CB0168
:102DC0000E940E1FC55ADF4F688326C0009779F412
:102DD000FE01E55AFF4F4081242F30E0C65ADF4FF5
:102DE000888190E0019728173907A1F43EC082300E
:102DF0009105A9F4FE01E55AFF4F4081242F30E0F0
:102E0000C65ADF4F888190E001972817390711F4DF
:102E1000108202C04F5F408383E090E00FC0833098
:102E2000910509F065C00AC00E94721586E691E01E
:102E30000E9441121092900586E090E090939505D3
:102E40008093940555C0DF91CF911F910F910C9401
:102E50007B1586E995E00E94620A82ED96E00E9469
:102E600063198FE591E00E9441121092950510922E
:102E700094053EC082ED96E00E94631980919B0507
:102E8000882321F086E995E00E94620AFE01E55A56
:102E9000FF4F8081C80FD11DC80FD11D0A84DB856B
:102EA000C02D4D855E8521E063EB75E086E995E0F8
:102EB0000E94960B81110CC0BE018CED96E00E9421
:102EC000EA1D85E991E00E94411284E090E0B6CFCE
:102ED00087E891E00E944112BE018CED96E00E94CD
:102EE000EA1D80E891E00E94411281E090E0A6CFC7
:102EF000DF91CF911F910F910895CF93DF93EC0154
:102F00008885882319F0CE010E947B138985882348
:102F100019F0CE010E949213CE01DF91CF910C9453
:102F20008415CF93DF93EC018E81813071F018F01E
:102F30008230A1F052C088810E94891B892B11F434
:102F400081E08E8319861A8648C088810E94891B79
:102F5000892B09F041C082E08E833FC088810E94A6
:102F6000891B3981892B21F529852F5F29873230EB
:102F700079F430E08A819B8196958795969587951F
:102F80008217930750F581E090E098878F830EC0F9
:102F9000333019F530E08A819B8182179307E8F47A
:102FA00082E090E098878F8381E08A87198615C038
:102FB000313051F4298530E08A819B818217930753
:102FC00018F482E090E005C08A85811104C081E098
:102FD00090E098878F8319861E82DF91CF910895A4
:102FE000FC01878190858130910529F41086178234
:102FF000848195810895029731F410861782848127
:103000009581019608958FEF9FEF0895EF92FF92BB
:103010000F931F93CF93DF93C0E0D0E0835A9F4F6D
:103020007C0187010C0F1D1FC8010E949117C80168
:103030000E94F01797FD05C0909393058093920529
:1030400004C02B96C733D10561F7DF91CF911F9153
:103050000F91FF90EF900895CF93DF93EC018F8154
:10306000811103C0CE010E940618CE01DF91CF91DD
:103070000C94DD131F920F920FB60F9211242F9311
:103080003F934F935F936F937F938F939F93AF93F0
:10309000BF93CF93EF93FF938FE00E94891B01971B
:1030A00071F48091940590919505019741F4809178
:1030B0009B05882321F080918F05882371F08091F2
:1030C00091058F5F80939105843158F18AEF95E0E7
:1030D0000E942C181092910524C040E250E06EE846
:1030E00076E086E995E00E94F807C82F482F6EE841
:1030F00076E082ED96E00E942019C03268F628E062
:1031000040E060E082ED96E00E94FA1882ED96E0E1
:103110000E94ED1984E090E09093950580939405CA
:10312000CECFFF91EF91CF91BF91AF919F918F91B2
:103130007F916F915F914F913F912F910F900FBEB3
:103140000F901F9018951092F3051092F4051092AD
:10315000F7051092F90582E090E0A0E0B0E08093DE
:10316000D0059093D105A093D205B093D3051092CA
:10317000E7051092B6051092B50582E392E09093B0
:10318000B4058093B3051092B8051092990510927A
:103190009805909397058093960510929B05089546
:1031A00061E080E10C94531B2CB5982F93702C7F19
:1031B000922B9CBD9DB582FB882780F99E7F982B22
:1031C0009DBD089561E08EE00E941A1B60E08FE0D3
:1031D0000E941A1B61E080E10E941A1B61E081E1FC
:1031E0000E941A1B61E080E10E94531B61E081E1B3
:1031F0000C94531B1F93CF93DF9300D0CDB7DEB752
:10320000162F2A8349830E94D01860E081E10E9432
:10321000531B82E00E944604812F0E94460449818C
:10322000842F0E9446042A81822F0E94460461E076
:1032300081E10F900F90DF91CF911F910C94531B60
:10324000FF920F931F93CF93DF93162FF72E042F28
:1032500060E080E10E94531B8FE00E94891B88235D
:10326000D9F3C12FDF2D100F1C1721F089910E9477
:103270004604FACFDF91CF911F910F91FF900C94EC
:10328000D018CF93DF93C62F0E94D01860E081E161
:103290000E94531B83E00E9446048C2F0E94460428
:1032A0008FEF0E944604C82F8FEF0E944604D0E0A3
:1032B000DC2FCC27C82B61E081E10E94531BCE019B
:1032C000DF91CF910895CF93DF93EC0124E048E0A4
:1032D00060E00E94FA188FE00E94891B8823D9F3CE
:1032E00027E140EC67E0CE010E94FA1820EF40E0B1
:1032F00066E0CE010E94FA1820E440EC67E0CE01BF
:103300000E94FA182CE040E066E0CE010E94FA1814
:103310008FE00E94891B8823D9F3DF91CF91089514
:10332000242F462F6BE00C94FA18CF93DF93EC0117
:1033300060E08EE00E94531B64E670E080E090E065
:103340000E947C1A61E081E10E94531B0E94D01808
:1033500061E08EE00E94531B8FE00E94891B88234E
:10336000D9F320E040EC63E0CE010E94FA1864EB50
:1033700072E08CED96E00E94EA1D63E0CE010E94AF
:10338000411940E150E0BC018CED96E00E94D41E52
:103390008FE00E94891B8823D9F3CE010E94631914
:1033A00023E140EC67E0CE010E94FA1848E268E2AF
:1033B000CE01DF91CF910C949019CF93DF93EC0164
:1033C0000E94C60381E00E94D418CE010E94E21838
:1033D000CE01DF91CF910C949519CF93DF9360E0EC
:1033E00080E10E94531BC0E0D8E08FE00E94891B5F
:1033F0008823D9F380E00E9446042197B1F7DF913A
:10340000CF910C94D0181F920F920FB60F921124E7
:103410002F933F938F939F93AF93BF938091D40645
:103420009091D506A091D606B091D7063091D306DB
:1034300023E0230F2D3720F40196A11DB11D05C0F7
:1034400026E8230F0296A11DB11D2093D306809379
:10345000D4069093D506A093D606B093D706809154
:10346000D8069091D906A091DA06B091DB060196B4
:10347000A11DB11D8093D8069093D906A093DA06BA
:10348000B093DB06BF91AF919F918F913F912F91A8
:103490000F900FBE0F901F9018952FB7F894609162
:1034A000D4067091D5068091D6069091D7062FBF8D
:1034B00008953FB7F8948091D8069091D906A091CD
:1034C000DA06B091DB0626B5A89B05C02F3F19F0A0
:1034D0000196A11DB11D3FBF6627782F892F9A2F16
:1034E000620F711D811D911D42E0660F771F881FBD
:1034F000991F4A95D1F708958F929F92AF92BF92EC
:10350000CF92DF92EF92FF926B017C010E94591AD9
:103510004B015C01C114D104E104F104F1F00E94FB
:103520002A1F0E94591A681979098A099B09683E5D
:1035300073408105910570F321E0C21AD108E108BA
:10354000F10888EE880E83E0981EA11CB11CC114FE
:10355000D104E104F10429F7DDCFFF90EF90DF9073
:10356000CF90BF90AF909F908F900895789484B53E
:10357000826084BD84B5816084BD85B5826085BD6F
:1035800085B5816085BDEEE6F0E080818160808355
:10359000E1E8F0E010828081826080838081816038
:1035A0008083E0E8F0E0808181608083E1EBF0E0FF
:1035B000808184608083E0EBF0E0808181608083A3
:1035C000EAE7F0E08081846080838081826080838C
:1035D0008081816080838081806880831092C100B7
:1035E0000895833081F028F4813099F08230A1F081
:1035F00008958730A9F08830B9F08430D1F48091F3
:1036000080008F7D03C0809180008F778093800041
:10361000089584B58F7702C084B58F7D84BD0895E9
:103620008091B0008F7703C08091B0008F7D809330
:10363000B0000895CF93DF9390E0FC01E350FD4F7D
:103640002491FC01EF5EFC4F8491882349F190E0C6
:10365000880F991FFC01E75CFC4FA591B491815D37
:103660009C4FFC01C591D4919FB7611108C0F8949B
:103670008C91209582238C93888182230AC06230AA
:1036800051F4F8948C91322F309583238C93888158
:10369000822B888304C0F8948C91822B8C939FBFDB
:1036A000DF91CF9108950F931F93CF93DF931F92D4
:1036B000CDB7DEB7282F30E0F901E751FD4F8491F7
:1036C000F901E350FD4F1491F901EF5EFC4F0491B5
:1036D0000023C9F0882321F069830E94F11A6981CF
:1036E000E02FF0E0EE0FFF1FE15DFC4FA591B491DC
:1036F0009FB7F8948C91611103C01095812301C08C
:10370000812B8C939FBF0F90DF91CF911F910F91D1
:103710000895CF93DF93282F30E0F901E751FD4F53
:103720008491F901E350FD4FD491F901EF5EFC4F14
:10373000C491CC2391F081110E94F11AEC2FF0E09A
:10374000EE0FFF1FEB5DFC4FA591B4912C912D2343
:1037500081E090E021F480E002C080E090E0DF9121
:10376000CF910895FC01818D228D90E0805C9F4F68
:10377000821B91098F7399270895FC01918D828D89
:10378000981731F0828DE80FF11D858D90E0089536
:103790008FEF9FEF0895FC01918D828D981761F056
:1037A000828DDF01A80FB11D5D968C91928D9F5F78
:1037B0009F73928F90E008958FEF9FEF08958FE4AD
:1037C0009DE1892B49F080E090E0892B29F00E944F
:1037D0004F1D81110C9400000895FC01848DDF01C0
:1037E000A80FB11DA35ABF4F2C91848D90E0019674
:1037F0008F739927848FA689B7892C93A089B18963
:103800008C9180648C93938D848D981306C002886C
:10381000F389E02D80818F7D80830895CF93DF939E
:10382000EC01888D8823C9F0EA89FB89808185FDB8
:1038300005C0A889B9898C9186FD0FC00FB607FC19
:10384000F5CF808185FFF2CFA889B9898C9185FF5A
:10385000EDCFCE010E94ED1BE7CFDF91CF91089510
:10386000CF92DF92FF920F931F93CF93DF931F921C
:10387000CDB7DEB76C0181E0D60158968C9358978E
:103880005B969C915B975C968C915C97981307C0B4
:103890005096ED91FC915197808185FD2EC0F601E7
:1038A000038D10E00F5F1F4F0F731127F02EF601ED
:1038B000848DF81211C00FB607FCF9CFD6015096CF
:1038C000ED91FC915197808185FFF1CFC60169830D
:1038D0000E94ED1B6981EBCF838DE80FF11DE35A48
:1038E000FF4F6083D6015B960C935B975296ED91E8
:1038F000FC915397808180620CC0D6015696ED9161
:10390000FC91579760835096ED91FC91519780817F
:103910008064808381E090E00F90DF91CF911F91D0
:103920000F91FF90DF90CF900895BF92CF92DF92DA
:10393000EF92FF92CF93DF93EC016A017B01B22EED
:10394000E889F98982E08083411581EE5807610595
:103950007105A1F060E079E08DE390E0A7019601A8
:103960000E942B1F21503109410951095695479555
:1039700037952795211580E1380798F0E889F9896E
:10398000108260E874E88EE190E0A70196010E9441
:103990002B1F2150310941095109569547953795FB
:1039A0002795EC85FD853083EE85FF852083188E75
:1039B000EC89FD89B082EA89FB89808180618083FE
:1039C000EA89FB89808188608083EA89FB8980811C
:1039D00080688083EA89FB8980818F7D8083DF9185
:1039E000CF91FF90EF90DF90CF90BF9008951F92FE
:1039F0000F920FB60F9211242F938F939F93EF93F3
:103A0000FF93E091EC06F091ED068081E091F206E3
:103A1000F091F30682FD12C090818091F5068F5FD0
:103A20008F732091F606821751F0E091F506F0E0D1
:103A3000E452F94F958F8093F50601C08081FF9184
:103A4000EF919F918F912F910F900FBE0F901F902C
:103A500018951F920F920FB60F9211242F933F9338
:103A60004F935F936F937F938F939F93AF93BF9386
:103A7000EF93FF938CED96E00E94ED1BFF91EF9189
:103A8000BF91AF919F918F917F916F915F914F9176
:103A90003F912F910F900FBE0F901F9018958CEDB6
:103AA00096E00E94B21B21E0892B09F420E0822FCE
:103AB00008951092DF061092DE0688EE93E0A0E0F3
:103AC000B0E08093E0069093E106A093E206B09305
:103AD000E30685EE92E09093DD068093DC0685ECAC
:103AE00090E09093E9068093E80684EC90E0909350
:103AF000EB068093EA0680EC90E09093ED068093CD
:103B0000EC0681EC90E09093EF068093EE0682EC59
:103B100090E09093F1068093F00686EC90E090930D
:103B2000F3068093F2061092F5061092F6061092B4
:103B3000F7061092F806089508950E94B61A0E949A
:103B40009C1D0E94D001CFEDDBE10E947103209704
:103B5000E1F30E94DF1BF9CFCF92DF92EF92FF9249
:103B60000F931F93CF93DF937C016A01EB0100E079
:103B700010E00C151D0571F06991D701ED91FC91D4
:103B80000190F081E02DC7010995892B19F00F5F95
:103B90001F4FEFCFC801DF91CF911F910F91FF9081
:103BA000EF90DF90CF9008956115710581F0DB01F2
:103BB0000D900020E9F7AD0141505109461B570B0C
:103BC000DC01ED91FC910280F381E02D099480E00D
:103BD00090E008950C94D41DDC01ED91FC910190CE
:103BE000F081E02D09946EED72E00C94D41D0F93DA
:103BF0001F93CF93DF93EC010E94D41D8C01CE0163
:103C00000E94F31D800F911FDF91CF911F910F91A3
:103C100008958F929F92AF92BF92DF92EF92FF92A0
:103C20000F931F93CF93DF93CDB7DEB7A1970FB656
:103C3000F894DEBF0FBECDBF7C01F42FD52ECB0193
:103C400019A2223008F42AE08E010F5D1F4F822E48
:103C5000912CA12CB12C6F2F7D2DA50194010E94D8
:103C60002B1FF22FD32ECA01015011096A3014F410
:103C7000E0E301C0E7E3E60FD801EC93232B242B0C
:103C8000252B49F7B801C7010E94D41DA1960FB694
:103C9000F894DEBF0FBECDBFDF91CF911F910F9182
:103CA000FF90EF90DF90BF90AF909F908F9008951E
:103CB000CF92DF92EF92FF920F931F93CF93DF93F8
:103CC000EC016A017B012115310579F4E881F98164
:103CD0000190F081E02D642FDF91CF911F910F9122
:103CE000FF90EF90DF90CF9009942A303105E9F4EE
:103CF00077FF1AC06DE20E94EC1D8C014427552706
:103D0000BA014C195D096E097F092AE0CE010E94B3
:103D1000091E800F911FDF91CF911F910F91FF908E
:103D2000EF90DF90CF9008952AE0B701A601CE0171
:103D3000DF91CF911F910F91FF90EF90DF90CF9087
:103D40000C94091E9A01AB01662757FD6095762FEA
:103D50000C94581E2115310541F4DC01ED91FC91C4
:103D60000190F081E02D642F09940C94091E0F93AB
:103D70001F93CF93DF93EC019A01462F50E060E050
:103D800070E00E94AA1E8C01CE010E94F31D800FDC
:103D9000911FDF91CF911F910F9108959A01AB016F
:103DA00060E070E00C94AA1E0F931F93CF93DF93F3
:103DB000EC019A01AB0160E070E00E94AA1E8C0148
:103DC000CE010E94F31D800F911FDF91CF911F91B3
:103DD0000F910895CF93DF9300D000D0CDB7DEB719
:103DE0009B01AC01611571058105910569F069833D
:103DF0003A834B835C830E94022129813A814B8163
:103E00005C810E944D1F03C060E070E0CB010F9009
:103E10000F900F900F90DF91CF910895CF92DF9286
:103E2000EF92FF926B017C0162177307840795077D
:103E300064F4CA01B9016C197D098E099F090E94B9
:103E4000EA1E6C0D7D1D8E1D9F1DFF90EF90DF9073
:103E5000CF9008950895A1E21A2EAA1BBB1BFD0165
:103E60000DC0AA1FBB1FEE1FFF1FA217B307E40759
:103E7000F50720F0A21BB30BE40BF50B661F771FB1
:103E8000881F991F1A9469F7609570958095909591
:103E90009B01AC01BD01CF010895052E97FB1EF4D7
:103EA00000940E94641F57FD07D00E942B1F07FC3F
:103EB00003D04EF40C94641F509540953095219595
:103EC0003F4F4F4F5F4F0895909580957095619546
:103ED0007F4F8F4F9F4F0895EE0FFF1F0590F49176
:103EE000E02D09940E947D1FA59F900DB49F900D19
:103EF000A49F800D911D11240895A29FB001B39F2E
:103F0000C001A39F700D811D1124911DB29F700DE2
:103F1000811D1124911D0895CF93DF938230910567
:103F200010F482E090E0E0917B07F0917C0720E0C4
:103F300030E0A0E0B0E0309739F14081518148177E
:103F40005907B8F04817590771F482819381109787
:103F500029F013969C938E9312972CC090937C0714
:103F600080937B0727C02115310531F04217530795
:103F700018F0A901DB0101C0EF019A01BD01DF01C9
:103F80000280F381E02DD7CF21153105F9F0281BF0
:103F9000390B2430310580F48A819B8161157105CC
:103FA00021F0FB019383828304C090937C0780936C
:103FB0007B07FE01329644C0FE01E20FF31F81939E
:103FC000919322503109398328833AC0209179078F
:103FD00030917A07232B41F42091020130910301A3
:103FE00030937A07209379072091000130910101E5
:103FF0002115310541F42DB73EB740910401509190
:104000000501241B350BE0917907F0917A07E2173F
:10401000F307A0F42E1B3F0B2817390778F0AC01EB
:104020004E5F5F4F2417350748F04E0F5F1F5093C8
:104030007A07409379078193919302C0E0E0F0E022
:10404000CF01DF91CF910895CF93DF93009709F4CB
:1040500087C0FC01329713821282C0917B07D091F6
:104060007C07209781F420813181280F391F8091AE
:10407000790790917A078217930779F5F0937A0779
:10408000E09379076DC0DE0120E030E0AE17BF0796
:1040900050F412964D915C9113979D014115510575
:1040A00009F1DA01F3CFB383A28340815181840FF8
:1040B000951F8A179B0771F48D919C911197840F1E
:1040C000951F02969183808312968D919C911397F0
:1040D000938382832115310529F4F0937C07E093C3
:1040E0007B073EC0D9011396FC93EE9312974D9136
:1040F0005D91A40FB51FEA17FB0779F480819181C8
:10410000840F951F0296D90111969C938E938281FC
:10411000938113969C938E931297E0E0F0E08A814E
:104120009B81009719F0FE01EC01F9CFCE010296B8
:1041300028813981820F931F2091790730917A0766
:104140002817390769F4309729F410927C071092E8
:104150007B0702C013821282D0937A07C09379073B
:10416000DF91CF9108958F929F92AF92BF92CF929D
:10417000DF92EF92FF92CF93DF93EC016881798118
:104180008A819B81611571058105910521F464E2A5
:1041900079ED8BE597E02DE133EF41E050E00E94AF
:1041A0004D1F49015A019B01AC01A7EAB1E40E94ED
:1041B000721F6B017C01ACEEB4EFA50194010E946B
:1041C0004621C60ED71EE81EF91EF7FE06C081E086
:1041D000C81AD108E10880E8F80AC882D982EA82C0
:1041E000FB82C701B6019F77DF91CF91FF90EF90DF
:1041F000DF90CF90BF90AF909F908F9008950E94D6
:10420000B320089586E091E00E94B3200895609362
:1042100006017093070180930801909309010895A6
:10422000FB01DC014150504048F001900D9200200C
:10423000C9F701C01D9241505040E0F70895FB01BD
:1042400051915523A9F0BF01DC014D914517411152
:10425000E1F759F4CD010190002049F04D9140154E
:104260004111C9F3FB014111EFCF81E090E00197CB
:104270000895DC016C9161566A3108F0605E6F5BF5
:104280006D93C1F70895B7FF0C94721F0E94721FBF
:0A429000821B930B0895F894FFCFF2
:10429A0000007D0780000100000019021C021E02B6
:1042AA00200260024B020500040003000200010024
:1042BA000200FFFFFFFF320001746F6F20736C6F03
:1042CA00772E206261636B20746F20746865207397
:1042DA007461727420666F7220796F752E002020C7
:1042EA002E00596F7520776F6E2069742120596FDF
:1042FA0075206765742061206E696365206D65733A
:10430A0073616765207669612074686520596F75E5
:10431A00576F6E2046756E6374696F6E2120796FD0
:10432A0075576F6E49742069732074727565206EB3
:10433A006F772100596F7520507265737365642019
:10434A004B6579202300202D20005B20436F727279
:10435A0065637421205D002D2D2D2D2D2D2D2D2DE4
:10436A002D2D2D2D2D2D2D2D2D2D2D005B20496E22
:10437A00636F727265637421205D00507265737396
:10438A00206B6579202300486F6F7261792120596B
:10439A006F7520736F6C7665642069742120536F82
:1043AA0020636C6576657221004323004400450052
:1043BA004600020003000400050006000700000092
:1043CA0000007B0DAC1D44656C65746520736F6ECF
:1043DA00673A002E4D5033002E574D41002E57415B
:1043EA0056002E414343002E4D494449002E4F4763
:1043FA0047002E564F5242495300496E697420763F
:10440A00733130787820696E204D49444920666FAF
:10441A00726D61742E2E2E00646F6E650D0A004651
:10442A00616E6379204D69646920536F756E647398
:10443A000D0A0020496E737472756D656E743A20A8
:10444A00004E3A000D0A56533130787820436C6F8B
:10445A00636B204672713A203078006C6F61642079
:10446A004D49444920506C7567696E2E2E2E0D0AEF
:10447A000000000000301CAC1DB21BCB1BBD1B0E84
:0E448A001C6E616E00696E66006F7666000043
:00000001FF
