:100000000C94A6010C94D7010C94D7010C94D70141
:100010000C94D7010C94D7010C94D7010C94D70100
:100020000C94D7010C94D7010C94D7010C94D701F0
:100030000C94D7010C94AE180C94D7010C94D701F2
:100040000C94771A0C94D7010C946B1D0C949D1D85
:100050000C94D7010C94D7010C94D7010C94D701C0
:100060000C94D7010C94D70109162F162C172616BD
:100070003917881797179D174F6E6C79204D454794
:10008000413235363020626F6172642063616E20C8
:10009000646F207265636F7264696E672E0D0A006B
:1000A0004F6E6C79204D4547413235363020626FB6
:1000B0006172642063616E20646F207265636F7289
:1000C00064696E672E0D0A0072756E206F7574205C
:1000D0006F662072616D2E0D0A002063616E7420C0
:1000E0006265206F70656E65642E0D0A0020616C7C
:1000F00072656164792065786973747320696E2014
:10010000706C61796C6973742E0D0A002D2D2D2D84
:100110002D2D2D2D2D2D2D2D2D2D2D2D2D2D2D2D0F
:100120002D2D2D2D2D2D2D2D2D2D2D2D2D2D2D2DFF
:100130002D0D0A002E20002D2D2D2D20736F6E67A2
:100140007320696E20544620636172642028726FA8
:100150006F742064697229202D2D2D2D0D0A0073D6
:10016000746F700D0A005265636F7264696E672E5A
:100170002E2E0D0A00205B646F6E655D2E0D0A0049
:10018000202E2E2E0D0A00506C6179696E67207347
:100190006F6E672000206F70656E206661696C6508
:1001A000642E0D0A00506C61796C69737420697358
:1001B00020656D7074792E0D0A00566F6C756D6533
:1001C00020747970652069732046415400436F752F
:1001D0006C64206E6F742066696E642046415431F1
:1001E000362F464154333220706172746974696FDE
:1001F0006E2E0A4D616B65207375726520796F757F
:1002000027766520666F726D61747465642074680A
:100210006520636172640D0A00556E6B6E6F776EB8
:100220000D0A00534448430D0A005344320D0A009E
:100230005344310D0A004361726420747970653A49
:1002400020002A2064696420796F75206368616EDC
:10025000676520746865206368697053656C6563C1
:10026000742070696E20746F206D617463682079EA
:100270006F757220736869656C64206F72206D6F92
:1002800064756C653F0D0A002A20497320796F75EB
:100290007220776972696E6720636F72726563742A
:1002A0003F0D0A002A206973206120636172642077
:1002B000697320696E7365727465643F0D0A006925
:1002C0006E697469616C697A6174696F6E206661C8
:1002D000696C65642E205468696E677320746F20A2
:1002E000636865636B3A0D0A0000000008000201B4
:1002F00000000304070000000000000000010204E9
:100300000810204080010204081020010204081097
:10031000200404040404040404020202020202038E
:10032000030303030300000000230026002900004C
:10033000000000250028002B0000000000240027FA
:10034000002A00007004B5071719CD1D11241FBE27
:10035000CFEFD8E0DEBFCDBF14BE88E10FB6F89472
:1003600080936000109260000FBE13E0A0E0B1E047
:10037000E2E8F3E402C005900D92AC30B107D9F782
:1003800027E0ACE0B3E001C01D92AB38B207E1F763
:1003900013E0CCE4D3E004C02297FE010E94E21FE8
:1003A000C434D107C9F70E94111E0C94BF210C94CC
:1003B0000000CF93DF9326E040E052EC61E070E074
:1003C0008AEE96E00E94091D81E080930F0688E086
:1003D00096E00E941B1310920C0610920B0688E008
:1003E00096E00E941D15C1E3D2E08881229660E06C
:1003F0000E948E1B82E0CD33D807B9F761E089E017
:100400000E948E1B60E089E00E94C71B40E060E014
:1004100080EE96E00E94041A10920806DF91CF91B8
:1004200008950E94C11A6093180370931903809372
:100430001A0390931B0360931C0370931D03809316
:100440001E0390931F030895CF92DF92EF92FF92C5
:100450000F931F930E94C11A60931803709319039E
:1004600080931A0390931B0300911C0310911D03AA
:1004700020911E0330911F036B017C01C01AD10A29
:10048000E20AF30A97018601C0921403D092150381
:10049000E0921603F0921703C0901003D09011035E
:1004A000E0901203F0901303DC01CB018C199D093D
:1004B000AE09BF0980930C0390930D03A0930E0324
:1004C000B0930F03003A1F402105310598F00E94B8
:1004D000110269E271E08AEE96E00E946B1E1092B2
:1004E00041031092400310922703109226031092AA
:1004F00025031BC0883E9340A105B105B0F06EE412
:1005000071E08AEE96E00E945E1E80911803909141
:100510001903A0911A03B0911B03809310039093C9
:100520001103A0931203B09313031F910F91FF9037
:10053000EF90DF90CF90089581E08093240388E0CE
:1005400096E00E94F11761E089E00E94C71B62E516
:1005500071E08AEE96E00E946B1E60E97EEB86E019
:1005600090E00E94F01A64EA71E08AEE96E00E9440
:100570006B1E60E089E00E94C71B64E670E080E0CB
:1005800090E00E94F01A61E089E00E94C71B64E6D7
:1005900070E080E090E00E94F01A60E089E00E9444
:1005A000C71B64E670E080E090E00E94F01A61E012
:1005B00089E00E94C71B64E670E080E090E00E9442
:1005C000F01A60E089E00E94C71B64E670E080E0FA
:1005D00090E00E94F01A61E089E00E94C71B64E687
:1005E00070E080E090E00E94F01A60E089E00E94F4
:1005F000C71B64E670E080E090E00E94F01A61E0C2
:1006000089E00E94C71B64E670E080E090E00E94F1
:10061000F01A28E088E190E00FB6F894A89580934E
:1006200060000FBE20936000FFCF8630910544F438
:10063000FC01EE0FFF1FEA5EFE4F8081918108955D
:100640000E949C02AF92BF92CF92DF92EF92FF92F4
:100650000F931F93CF93DF9321E3C22E22E0D22E7C
:10066000C4E3D3E038E2E32E33E0F32E01E010E000
:10067000F6018081F2E0CF0ED11C0E94FD1B5E01CD
:1006800099838883F701208131818217930791F044
:100690000E94C11A60932003709321038093220368
:1006A0009093230388819981019721F41093270364
:1006B000009326032296F50180819181F7018193B1
:1006C00091937F010F5F1F4F0730110589F6DF916E
:1006D000CF911F910F91FF90EF90DF90CF90BF903F
:1006E000AF9008950E9422038091260390912703E2
:1006F000892B09F469C063EB71E08AEE96E00E94F1
:100700005E1E60912603709127034AE050E08AEE56
:1007100096E00E94161F65EC71E08AEE96E00E945A
:100720005E1EE0912603F0912703EE0FFF1FE65FA8
:10073000FE4F608171818AEE96E00E946B1E8AEE08
:1007400096E00E94671E2091260330912703809136
:1007500042039091430328173907D1F469EC71E003
:100760008AEE96E00E946B1E66ED71E08AEE96E0DE
:100770000E946B1E8AEE96E00E94671E80914003E5
:10078000909141030196909341038093400314C0DC
:100790006BEE71E08AEE96E00E946B1E66ED71E0F2
:1007A0008AEE96E00E946B1E8AEE96E00E94671E1B
:1007B00010924103109240031092270310922603D7
:1007C000109225030C9411020895CF93C1E08091FB
:1007D000240381114DC080914003909141030E94F8
:1007E0001503909343038093420380912503811165
:1007F0002AC06AEF71E08AEE96E00E945E1E609168
:100800004203709143034AE050E08AEE96E00E9472
:10081000161F65EC71E08AEE96E00E945E1EE09184
:100820004203F0914303EE0FFF1FE65FFE4F60812E
:1008300071818AEE96E00E946B1E8AEE96E00E941D
:10084000671EC09325038091400390914103009758
:1008500061F007971CF40E94240207C066E072E072
:100860008AEE96E00E946B1EB2CF0E947203AFCF59
:10087000CF910895CF93CFB7F8948091470381111A
:1008800027C0EBE1F3E08491E7E0F3E09491E82FF7
:10089000F0E0EE0FFF1FE75CFC4FA591B4918C9147
:1008A000892321F461E08AE00E94C71B61E08AE0AD
:1008B0000E948E1B8CB580618CBD8CB580648CBD14
:1008C00061E08DE00E948E1B61E08BE00E948E1B38
:1008D000809147038F5F80934703CFBFCF910895E7
:1008E00010924D0310924E03109251031092530335
:1008F00082E090E0A0E0B0E0809354039093550331
:10090000A0935603B093570310926B031092750394
:100910001092740381E492E09093730380937203C6
:100920001092770308959FB7F89420914603809121
:100930004403213019F48DBB9FBF08958FBF0895E4
:1009400020914603222399F03FB7F8942091460363
:10095000213059F42DB3209344034DB32091450326
:10096000209524232DBB3FBF02C0309344038CBD90
:100970009DBD08958EBD00000DB407FEFDCF8EB560
:1009800008958FEF0C94BA0461E0FC0184810E9409
:10099000C71B80919103882339F0109291038091B5
:1009A000460381110C9493040895CF93DF93EC01D7
:1009B00080919103811109C081E08093910380911E
:1009C0009203909193030E94A00460E08C81DF91D8
:1009D000CF910C94C71BCF93DF93EC018E818823BA
:1009E00089F08F8198859C012F5F3F4F38872F8337
:1009F0008230924018F40E94C104F3CFCE010E94CD
:100A0000C4041E82DF91CF910895673028F026E15B
:100A1000FC01258380E00895623081F030F4662384
:100A200059F06130B1F480E515C0643059F040F000
:100A3000653079F482E50EC080E505C081E503C02C
:100A400081E508C082E58093920381E0809393035F
:100A5000089583E5809392031092930381E00895B3
:100A60000F931F93CF93DF93EB010E94C11A8B0169
:100A70000E94C1048F3F49F00E94C11A601B710B94
:100A80006C177D07A8F380E001C081E0DF91CF9172
:100A90001F910F910895CF92DF92FF920F931F93B2
:100AA000CF93DF9300D000D0CDB7DEB76C01F62E28
:100AB00029833A834B835C830E94EB04C6010E9426
:100AC000D5046CE271E0C6010E9430058F2D806470
:100AD0000E94BA0408E110E05C814B813A812981CF
:100AE000DA01C901002E04C0B695A79597958795A0
:100AF0000A94D2F729833A834B835C830E94BA0419
:100B00000850110929813A814B815C81083F8FEFA0
:100B1000180731F7FF2029F0E8E0FE1621F08FEFEB
:100B200003C085E901C087E80E94BA0410E00E9472
:100B3000C104F601828787FF04C01F3F11F01F5FC9
:100B4000F6CF0F900F900F900F90DF91CF911F91E4
:100B50000F91FF90DF90CF900895BF92CF92DF92D8
:100B6000EF92FF920F931F93CF93DF93EC01B62E7A
:100B70001B8619861E821D824C830E94C11A8B011E
:100B800061E08C810E948E1B61E08C810E94C71BFA
:100B90000E943A0482E5809392031092930380911D
:100BA0009203909193030E94A0042AE0F22E8FEF0B
:100BB0000E94BA04FA94D9F78091460381110E94E9
:100BC0009304CE010E94D50420E030E0A90160E04A
:100BD000CE010E944B05F82E8A8781E0F81649F075
:100BE0000E94C11A601B710B613D774068F381E080
:100BF0004BC02AEA31E040E050E068E0CE010E94BC
:100C00004B0582FF02C0FB860DC094E0F92E0E94C6
:100C1000C1048A87FA94D9F78A3A11F082E034C085
:100C200082E08B878B85823031F4C12CD12CE12C72
:100C300080E4F82E03C0C12CD12C760120E030E0F6
:100C4000A90167E3CE010E944B05A701960169E265
:100C5000CE010E944B058A87882349F00E94C11A61
:100C6000601B710B613D774048F388E00DC08B85B8
:100C7000823031F520E030E0A9016AE3CE010E9424
:100C80004B05882381F086E08D83CE010E94C40449
:100C900080E0DF91CF911F910F91FF90EF90DF9057
:100CA000CF90BF9008950E94C104807C803C11F4D5
:100CB00083E08B870E94C1040E94C1040E94C1048A
:100CC000CE010E94C4046B2DCE01DF91CF911F9104
:100CD0000F91FF90EF90DF90CF90BF900C9405059F
:100CE0000F931F93CF93DF93EC010E94C11A8B01E6
:100CF0000E94C1048A878F3F49F40E94C11A601B79
:100D0000710B6D327140A0F38FE003C08E3F39F05C
:100D10008DE08D83CE010E94C40480E001C081E09B
:100D2000DF91CF911F910F910895CF92DF92EF92B3
:100D3000FF920F931F93CF93DF93EC01690101158D
:100D4000110509F462C0C801820F931F81309240DF
:100D500008F05DC08E81882371F088819981AA8115
:100D6000BB81481759076A077B0729F48F8198854B
:100D7000C816D90610F5488359836A837B838B850F
:100D8000833039F039E0440F551F661F771F3A95BD
:100D9000D1F79A01AB0161E1CE010E944B05882396
:100DA00019F083E08D8333C0CE010E947006882342
:100DB00071F118861F8281E08E838F8198858C1552
:100DC0009D0540F40E94C1048F8198850196988703
:100DD0008F83F3CF6701E00EF11ECE14DF0431F0F4
:100DE0000E94C104F60181936F01F7CF8F8198852E
:100DF000800F911F98878F832985222319F08115F1
:100E0000924018F0CE010E94EB0481E004C0CE01B4
:100E10000E94C40480E0DF91CF911F910F91FF9059
:100E2000EF90DF90CF900895EF92FF920F931F9372
:100E3000790100E012E020E030E00E9495061F9169
:100E40000F91FF90EF900895CF92DF92EF92FF9273
:100E50000F931F93CF93DF9300D0CDB7DEB78C01F4
:100E6000862F49835A830E94BA044981C42E5A812D
:100E7000D52EE12CF12CF60181916F010E94BA046C
:100E8000FFEFEF1AFF0AE11482E0F806A1F78FEFF7
:100E90000E94BA048FEF0E94BA040E94C104F801B4
:100EA00082878F71853039F081E18583C8010E9486
:100EB000C40480E001C081E00F900F90DF91CF91DA
:100EC0001F910F91FF90EF90DF90CF9008950F93B7
:100ED0001F93CF93DF93EC01890141155105610503
:100EE000710511F482E132C08B85833039F089E0DD
:100EF000440F551F661F771F8A95D1F79A01AB01E2
:100F000068E1CE010E944B05882311F084E01EC0E9
:100F1000A8016EEFCE010E9424078823C1F068E586
:100F200072E0CE010E943005811102C085E10EC041
:100F300020E030E0A9016DE0CE010E944B05811157
:100F400004C00E94C104882339F084E18D83CE015E
:100F50000E94C40480E004C0CE010E94C40481E069
:100F6000DF91CF911F910F91089580E580939203B7
:100F7000109293030895CF93DF93EC019C012A5FB5
:100F80003F4F41E050E060E070E08B8D9C8D0E940F
:100F900006108823A1F04F89588D698D7A8D452BD5
:100FA000462B472B71F44E815F81688579854F8B85
:100FB000588F698F7A8F8C8180688C8302C080E023
:100FC00001C081E0DF91CF910895CF93DF93EC01D1
:100FD000462F6E857F85888999890E943B0E8823DC
:100FE00041F08A8920E2829FC001112483569C4FE0
:100FF00002C080E090E0DF91CF91089530E020E0E2
:101000004EE2DC015C91503271F0383029F4FB0182
:10101000E20FF11D40832F5FFB01E20FF11DDC01A8
:101020005C9150832F5F3F5F01963B3051F7FB018E
:10103000E20FF11D108208950F931F93CF93DF935A
:10104000EC018B018D81882311F080E040C0FB0111
:1010500087898031B1F482E08D831F8A188E198EC2
:101060001A8E408D518D60E070E095E0440F551F61
:10107000661F771F9A95D1F74B8B5C8B6D8B7E8BA0
:1010800015C0803211F783E08D83FB01428D538DB3
:10109000648D758D4F8B588F698F7A8F9E012D5E71
:1010A0003F4FC8010E94FA0E882379F21C8F0B8FE4
:1010B00081E08C831E821F82188619861A861B8601
:1010C0001C861D861E861F86188A198A1A8ADF9139
:1010D000CF911F910F9108952F923F924F925F925F
:1010E0006F927F928F929F92AF92BF92CF92DF9238
:1010F000EF92FF920F931F93CF93DF93EC016B015D
:101100005A018D81811103C08FEF9FEFDAC08C816E
:1011100080FFFACF4B895C896D897E898A859B85A2
:10112000AC85BD852501612C712C8A019B01081BB2
:10113000190B2A0B3B0B041515052605370518F46A
:101140005A01A81AB90A25011E0126E0220E311CF7
:101150004114510409F47BC04A855B856C857D850B
:101160004A0181E09822ED818A019B01F9E03695E0
:10117000279517950795FA95D1F78B8D9C8DE230C1
:1011800051F4FC01628D738D848D958D600F711FFC
:10119000821F931F3EC0FC0174807A9470228114D8
:1011A0009104C9F4711017C0452B462B472B49F405
:1011B0008F89988DA98DBA8D8E839F83A887B987D3
:1011C0000AC04E815F816885798591010E94760E03
:1011D000882309F499CFEB8DFC8D6E817F81888502
:1011E00099856250710981099109058404C0660FCF
:1011F000771F881F991F0A94D2F7068517852089C3
:101200003189600F711F821F931F670D711D811D32
:10121000911D20E032E028193909320124153505E5
:1012200008F439012C8126FD04C06114F2E07F0628
:10123000A1F5009122011091230120912401309108
:101240002501601771078207930719F426C0C501AD
:1012500038C0760183019401AB01BC0180919B03EE
:1012600090919C030E949506882309F44DCFC60CEB
:10127000D71C04C0E81BF90BCE0EDF1E8A859B85A8
:10128000AC85BD85860D971DA11DB11D8A879B87E5
:10129000AC87BD87461857085BCF40E00E943B0EE5
:1012A000882309F431CFC40183569C4FD6019C0199
:1012B000260D371DFC01E217F307E1F241914D9332
:1012C000FACFDF91CF911F910F91FF90EF90DF90B8
:1012D000CF90BF90AF909F908F907F906F905F90D6
:1012E0004F903F902F9008950F931F93CF93DF93CC
:1012F000EC018B018D81823010F48FEF24C04A8580
:101300005B856C857D854F71552766277727452B33
:10131000462B472B91F740E250E0B801CE010E94E6
:101320006C08803269F4F8018081882359F0853E89
:1013300091F38E3281F3838583FDEDCF80E203C08C
:1013400087FDDBCF80E0DF91CF911F910F91089552
:10135000FF920F931F93CF93DF931F92CDB7DEB70A
:101360008C01FC018581823018F480E090E034C06B
:10137000F8014285538564857585A5E07695679566
:1013800057954795AA95D1F7F42FFF70FF2E41E0AE
:1013900050E0BE016F5F7F4FC8010E946C0801974B
:1013A00019F4298130E002C02FEF3FEF2F3F3F4F6C
:1013B000E1F2F8014285538564857585415E5F4F92
:1013C0006F4F7F4F4287538764877587F0E2FF9E98
:1013D000C001112483569C4F0F90DF91CF911F9134
:1013E0000F91FF9008954F925F926F927F92AF920C
:1013F000BF92CF92DF92EF92FF920F931F93CF9302
:10140000DF93EC016A017B012D81222309F457C08F
:101410008B899C89AD89BE8984179507A607B70774
:1014200008F44DC04EC08A859B85AC85BD85EB8D8B
:10143000FC8DE585F0E03996AC01BD0141505109C4
:10144000610971090E2E04C07695679557954795E9
:101450000A94D2F797018601015011092109310937
:1014600004C03695279517950795EA95D2F7041786
:10147000150726073707B0F58F89988DA98DBA8D86
:101480008E839F83A887B987280139015E0186E092
:10149000A80EB11C411451046104710461F14E8124
:1014A0005F816885798595018B8D9C8D0E94760E74
:1014B00091E0491A5108610871088111EBCF80E071
:1014C0001FC02230C1F0C114D104E104F10409F0BD
:1014D000AACF1E821F82188619861A861B861C8632
:1014E0001D860DC0892B8A2B8B2B31F2041B150B0B
:1014F000260B370BC9CFCA86DB86EC86FD8681E0DA
:10150000DF91CF911F910F91FF90EF90DF90CF90DF
:10151000BF90AF907F906F905F904F9008950F9322
:101520001F93CF93DF93EC018D818823C9F18C81C8
:1015300087FF30C061E0CE010E94E5078C01009773
:1015400079F18D81823048F44B895C896D897E897F
:10155000F801448F558F668F778F4F89588D698D2D
:101560007A8DF801538F428F758B648BE0919403D1
:10157000F0919503309759F0B8016A5E7F4FC8012A
:1015800048960995F801808D918D938B828B8C8183
:101590008F778C83DF91CF911F910F910C94000E68
:1015A00080E0DF91CF911F910F910895CF93DF934A
:1015B000EC010E948F0A882319F01D8281E001C08E
:1015C00080E0DF91CF9108954F925F926F927F926A
:1015D000AF92BF92CF92DF92EF92FF920F931F9341
:1015E000CF93DF9300D000D0CDB7DEB75C016A01A6
:1015F0007B01FC0185818130F1F4848181FF1BC076
:10160000F50183899489A589B68984179507A6076A
:10161000B70788F0892B8A2B8B2B09F479C0F50149
:101620004284538464847584B701A601C5010E9475
:10163000F309811102C080E06CC0F501838D948DA7
:10164000C114D104E104F10471F44789508D618D16
:10165000728D0E941B11882371F3F501178A108E79
:10166000118E128E3AC0F5014681578160857185D1
:101670009E012F5F3F4F0E94760E8823E1F2498141
:101680005A816B817C81F501838D948DFC012789C2
:10169000203129F408EF1FEF20E030E004C008EF0C
:1016A0001FEF2FEF3FE04017510762077307A8F4C1
:1016B0000E941B11882309F4BECFF5014681578192
:1016C000608571850FEF1FEF2FEF3FE0838D948DC5
:1016D0000E94650F882309F4AECFF501C38AD48A2E
:1016E000E58AF68A848180688483C5010E948F0A16
:1016F000882309F4A0CFB701A6014C145D046E0441
:101700007F0410F4B301A201C5010E94F30901C0D6
:1017100081E00F900F900F900F90DF91CF911F916C
:101720000F91FF90EF90DF90CF90BF90AF907F90A0
:101730006F905F904F900895FF920F931F93CF93F8
:10174000DF93EC01F42E80E2689FF0011124E35650
:10175000FC4F8385817129F0842F827411F080E021
:1017600053C06A8B8091220190912301A0912401A2
:10177000B09125018E879F87A88BB98B44895589A5
:1017800060E070E0BA0155274427028D138D20E0F8
:1017900030E0402B512B622B732B4F8B588F698F6E
:1017A0007A8F8385887151F4048D158D268D378D40
:1017B0000B8B1C8B2D8B3E8B81E00CC0803179F61E
:1017C0009E012D5E3F4F8B8D9C8D0E94FA0E8823CB
:1017D00031F284E08D838F2D8F708C831E821F8267
:1017E000188619861A861B861C861D86F6FE0BC077
:1017F00040E050E0BA01CE01DF91CF911F910F91EF
:10180000FF900C94E40A81E0DF91CF911F910F913A
:10181000FF900895DF92EF92FF920F931F93CF9363
:10182000DF93EC018B017A01D22E8D8181112FC0C3
:10183000822F8073803359F1FB01838D948D9C8FAF
:101840008B8F65E0440F551F6A95E1F760E070E00B
:10185000C8010E94F3098823D1F0C8010E94A80999
:101860000097A9F0FC018081882389F0853E79F0FA
:101870008E3269F06E2D6F704D2DCE01DF91CF91BC
:101880001F910F91FF90EF90DF900C949C0B80E0E4
:10189000DF91CF911F910F91FF90EF90DF9008950E
:1018A0002F923F924F925F926F927F928F929F9270
:1018B000AF92BF92CF92DF92EF92FF920F931F935E
:1018C000CF93DF9300D000D01F92CDB7DEB78C014D
:1018D0007B013A01DC0115968C9115978130C9F492
:1018E00014968C9181FF15C082FF1BC0F8014389BB
:1018F00054896589768982859385A485B585841701
:101900009507A607B70769F0C8010E94F30981117E
:1019100008C081E090E0F8019383828380E090E04A
:1019200046C1630180C0D8015B968D919C915C9704
:10193000FC01F481F150B501A40129E07695679589
:10194000579547952A95D1F7F423FD8321E09222FC
:10195000FF2309F474C080E092E0881999095601C8
:101960008C159D0508F45C01D8015B96ED91FC9106
:101970005C9716962D903D904D905C901997B2E033
:101980002B1A310841085108058404C0220C331C6D
:10199000441C551C0A94D2F786859785A089B18985
:1019A000280E391E4A1E5B1EED812E0E311C411C75
:1019B000511CA114F2E0BF0609F088C080912201F9
:1019C00090912301A0912401B091250182159305E6
:1019D000A405B50559F48FEF9FEFDC018093220138
:1019E00090932301A0932401B09325019701B201A4
:1019F000A10180919B0390919C030E94670788231B
:101A000009F487CF9EEFF91ACA18DB08F80182851E
:101A10009385A485B5858A0D9B1DA11DB11D828767
:101A20009387A487B587D8011A968D909D90AD9025
:101A3000BC901D97C114D10409F075CF8AC08114E0
:101A4000910409F088CF16964D915D916D917C912E
:101A50001997411551056105710559F457968D91F6
:101A60009D910D90BC91A02D0097A105B10541F568
:101A700021C09E012F5F3F4F0E94760E882309F4FC
:101A80004ECF89819A81AB81BC81F801238D348D41
:101A9000F9012789203129F448EF5FEF60E070E019
:101AA00004C048EF5FEF6FEF7FE084179507A6074C
:101AB000B70730F0C8010E94BB0781114CCF29CF76
:101AC000F80186839783A087B18745CF811491045D
:101AD00029F5D8011A964D915D916D917C911D97D4
:101AE00053968D919D910D90BC91A02D481759074B
:101AF0006A077B0798F00E94000E882309F409CF3B
:101B0000209222013092230140922401509225011B
:101B100080919A03816080939A0308C041E0C201DA
:101B2000B1010E943B0E882309F4F3CEC401835611
:101B30009C4FD7019C012A0D3B1DFC01E217F307C6
:101B400019F04D914193FACFE81BF90BEE0EFF1EF1
:101B50005BCF53968D919D910D90BC91A02DF80176
:101B6000248188159905AA05BB0538F4838A948ACF
:101B7000A58AB68A206824830CC080919403909132
:101B80009503892B31F06114710419F02068F80174
:101B90002483D80114968C9183FD02C0C30107C031
:101BA000C8010E948F0A882309F4B3CEF7CF0F90A3
:101BB0000F900F900F900F90DF91CF911F910F9189
:101BC000FF90EF90DF90CF90BF90AF909F908F905D
:101BD0007F906F905F904F903F902F900895CF939C
:101BE000DF931F92CDB7DEB7698341E050E0BE01BD
:101BF0006F5F7F4F0E94500C0F90DF91CF9108953F
:101C000080919A03882399F14091220150912301F8
:101C100060912401709125012DE933E080919B03AF
:101C200090919C030E946707882319F140919603C5
:101C30005091970360919803709199034115510554
:101C40006105710591F02DE933E080919B0390913E
:101C50009C030E946707882361F0109296031092FC
:101C60009703109298031092990310929A0381E0BF
:101C7000089580E00895CF92DF92EF92FF92CF9384
:101C80006B017C01C42F8091220190912301A091CE
:101C90002401B09125018C159D05AE05BF05D1F03D
:101CA0000E94000E811102C080E01AC02DE933E0CD
:101CB000B701A60180919B0390919C030E94140799
:101CC000882391F3C0922201D0922301E092240153
:101CD000F092250180919A038C2B80939A0381E0E6
:101CE000CF91FF90EF90DF90CF9008958F929F92C9
:101CF000AF92BF92CF92DF92EF92FF920F931F931A
:101D0000CF93DF938C016A017B01E901FC0181859E
:101D10009285A385B4850196A11DB11D84179507F1
:101D2000A607B70710F480E058C0F801438954892A
:101D3000658976898789803129F4BB27AF2D9E2D4F
:101D40008D2D09C0D701C60127E0B695A7959795B7
:101D500087952A95D1F74C015D01840E951EA61E2C
:101D6000B71EC501B4018090220190902301A0907C
:101D70002401B0902501681579058A059B0589F431
:101D8000F8018789803199F4DD24EE24FF24F601DF
:101D9000EE0FFF1FE356FC4F80819181A0E0B0E081
:101DA00017C040E00E943B0E8111EACFBCCFE894FF
:101DB000C7F8DD24EE24FF24F601EE0FFF1FEE0F1F
:101DC000FF1FE356FC4F80819181A281B381BF70D8
:101DD00088839983AA83BB8381E0DF91CF911F9190
:101DE0000F91FF90EF90DF90CF90BF90AF909F90BA
:101DF0008F9008954F925F926F927F92AF92BF92B1
:101E0000CF92DF92EF92FF920F931F93CF93DF93C6
:101E100000D000D0CDB7DEB78C0149835A836B83E5
:101E20007C835901C12CD12C7601412C42E0542EE7
:101E3000612C712C49815A816B817C819E012F5FBD
:101E40003F4FC8010E94760E882359F1D301C20189
:101E5000F801058404C0880F991FAA1FBB1F0A94AC
:101E6000D2F7C80ED91EEA1EFB1E49815A816B812A
:101E70007C818789803129F488EF9FEFA0E0B0E072
:101E800004C088EF9FEFAFEFBFE0481759076A071C
:101E90007B0780F2F501C082D182E282F38281E089
:101EA00001C080E00F900F900F900F90DF91CF91C5
:101EB0001F910F91FF90EF90DF90CF90BF90AF9068
:101EC0007F906F905F904F9008954F925F926F92C6
:101ED0007F928F929F92AF92BF92CF92DF92EF92BA
:101EE000FF920F931F93CF93DF93EC016A017B0165
:101EF00028013901423051056105710508F474C0AB
:101F000049855A856B857C854F5F5F4F6F4F7F4F4B
:101F10004C155D056E057F0508F466C08B889C88AE
:101F2000AD88BE888F89803129F477276F2D5E2D8B
:101F30004D2D09C0B701A601E7E076956795579545
:101F40004795EA95D1F7840E951EA61EB71E4091BF
:101F50002201509123016091240170912501841682
:101F60009506A606B70671F48F89803199F4DD24B1
:101F7000EE24FF24F601EE0FFF1FE356FC4F5182C3
:101F8000408218C040E0C501B4010E943B0E81119F
:101F9000EBCF2AC0E894C7F8DD24EE24FF24F60135
:101FA000EE0FFF1FEE0FFF1FE356FC4F40825182E2
:101FB0006282738280919A03816080939A038A89F6
:101FC000823080F08D819E81AF81B885880D991D0A
:101FD000AA1DBB1D8093960390939703A09398032B
:101FE000B093990381E001C080E0DF91CF911F9110
:101FF0000F91FF90EF90DF90CF90BF90AF909F90A8
:102000008F907F906F905F904F9008952F923F92A6
:102010004F925F926F927F929F92AF92BF92CF92B8
:10202000DF92EF92FF920F931F93CF93DF93CDB781
:10203000DEB760970FB6F894DEBF0FBECDBF5C0170
:102040004D875E876F87788B1901D9014D905D9020
:102050006D907C90411451046104710431F0BFEF24
:102060004B1A5B0A6B0A7B0A10C0FC01408051804E
:1020700062807380992493940D851E852F853889FD
:10208000013011052105310509F0912CD501199672
:102090002D913D914D915C911C972F5F3F4F4F4F7C
:1020A0005F4F29873A874B875C87730162011D82E6
:1020B0001E821F821886F50181859285A385B485CD
:1020C0000D811E812F813885081719072A073B07C4
:1020D00008F056C029853A854B855C852C153D0551
:1020E0004E055F0550F4A2E0CA2ED12CE12CF12C54
:1020F000B2E04B2E512C612C712C9E012F5F3F4F73
:10210000B701A601C5010E94760E8823C9F1498155
:102110005A816B817C81D701C6010196A11DB11D39
:10212000452B462B472B19F02C013D010FC0AC016C
:10213000BD0144195509660977090D851E852F854E
:102140003889401751076207730779F02D813E8166
:102150004F8158852F5F3F4F4F4F5F4F2D833E83F9
:102160004F8358876C017D01A6CF0FEF1FEF2FEF34
:102170003FE0B701A601C5010E94650F811118C09B
:1021800080E041C0D701C6010197A109B1098D8343
:102190009E83AF83B88797018601AC01BD01C5015D
:1021A0000E94650F882361F3CD80DE80EF80F88484
:1021B0004C145D046E047F0428F3D1014D915D91B0
:1021C0006D917C91411551056105710599F4F101FD
:1021D00040825182628273829920A1F0FFEF4F1AF0
:1021E0005F0A6F0A7F0AD5014D925D926D927C92D3
:1021F000139708C093018201C5010E94650F8111E8
:10220000E6CFBECF81E060960FB6F894DEBF0FBE7A
:10221000CDBFDF91CF911F910F91FF90EF90DF9095
:10222000CF90BF90AF909F907F906F905F904F90B6
:102230003F902F900895AF92BF92CF92DF92EF928E
:10224000FF920F931F93CF93DF9300D000D0CDB7B1
:10225000DEB75C016A017B0182E090E0A0E0B0E0C3
:10226000F50180839183A283B3839E012F5F3F4F4B
:10227000B701A601C5010E94760E882311F100E086
:1022800010E09801B701A601C5010E94650F8823DF
:10229000C1F0C980DA80EB80FC80F501878980314C
:1022A00029F488EF9FEFA0E0B0E004C088EF9FEF33
:1022B000AFEFBFE0C816D906EA06FB06B0F281E030
:1022C00001C080E00F900F900F900F90DF91CF91A1
:1022D0001F910F91FF90EF90DF90CF90BF90AF9044
:1022E00008958F929F92AF92BF92CF92DF92EF921A
:1022F000FF920F931F93CF93DF93EC01142F7093F2
:102300009C0360939B03442341F1453010F080E02F
:10231000EFC040E060E070E0CB010E943B0E8823FC
:10232000B1F320E1129FF0011124E55BFA4F8081A7
:102330008F7769F784859585A685B785843691055D
:10234000A105B10520F3C084D184E284F384C114D3
:10235000D104E104F10421F4DACFC12CD12C7601AF
:1023600040E0C701B6010E943B0E882381F28091B4
:10237000A8039091A9038115924049F63091AD03CD
:10238000332329F28091AB039091AC03892B09F49C
:10239000BECF2091AA03222309F4B9CF3A8B2C8314
:1023A0001D8630E041E050E06D85062FCA01062E03
:1023B00002C0880F991F0A94E2F72817390731F0F5
:1023C00081E0860F8D87683078F3A1CF2091B30329
:1023D0003091B4032115310519F040E050E008C0F8
:1023E0002091C1033091C2034091C3035091C403B3
:1023F0002D833E834F8358878091AB039091AC032C
:1024000046015701880E991EA11CB11C8B8A9C8A1B
:10241000AD8ABE8AE091AE03F091AF03F98FE88FE9
:10242000A091AD03B0E00E94E61F680D791D8A1DE2
:102430009B1D6A8F7B8F8C8F9D8F15E0EE0FFF1F8A
:102440001A95E1F7E150FE4FEF2FFF27E695DC01EB
:10245000CB018E0F9F1FA11DB11D8E879F87A88B5B
:10246000B98B8090B0039090B1038114910419F05E
:10247000A12CB12C08C08090BD039090BE03A09009
:10248000BF03B090C003A7019601281B390B4A0B6C
:102490005B0BDA01C901880D991DAA1DBB1D04C083
:1024A000B695A795979587950A95D2F789879A87C4
:1024B000AB87BC87853F3FE09307A105B10510F4CA
:1024C0008CE014C0853F9F4FA105B10510F480E159
:1024D0000DC08091C9039091CA03A091CB03B09124
:1024E000CC038A8F9B8FAC8FBD8F80E28F8B81E076
:1024F000DF91CF911F910F91FF90EF90DF90CF90E0
:10250000BF90AF909F908F90089561E088E00E9407
:102510008E1B60E088E00C94C71B60E083E00E94A3
:102520008E1B60E086E00E948E1B60E085E00E94CA
:102530008E1B60E084E00E948E1B60E087E00E94BA
:102540008E1B61E083E00E94C71B61E086E00E9471
:10255000C71B61E085E00E94C71B61E084E00E9428
:10256000C71B61E087E00C94C71BCF93DF93FC018E
:102570006491EC012196662331F08AEE96E00E9488
:10258000601ECE01F4CFDF91CF91089510928000AC
:10259000E1E8F0E080E1808380EA9FE090938700AB
:1025A000809386008081887F8083808181608083A2
:1025B00081E080936F0010928500109284007894DF
:1025C00008951F93CF93DF93EC015881611106C0EA
:1025D000541710F4188210C0541B0DC0252F30E082
:1025E0008EEF90E0841B9109821793071CF48EEF05
:1025F000888302C0540F58831881412F612F80EEC9
:1026000096E00E94041A1883DF91CF911F910895DC
:1026100020E030E0FC01E20FF31F138612862E5FEC
:102620003F4F20353105B1F7FC01E65AFF4F1082CC
:10263000319610820895CF93DF93EC010E948512AA
:102640008F81811102C00E948D1285E0FE01E35A44
:10265000FF4F808381E0818384E690E093838283CF
:1026600021E030E03583248316821086178211869C
:1026700043E03B96408352E051839383828325E07D
:1026800030E035832483168210861782118627E076
:102690003B96208351839383828323E030E035830C
:1026A0002483168210861782118626E03B962083AB
:1026B00041839383828329E030E03583248316822B
:1026C00010861782118624E03B96208341839383F2
:1026D000828387E090E09583848316821086178238
:1026E000118680EE96E00E94511A61E08AE00E9415
:1026F0008E1B4AE061E08CEF95E00E94AD058111F0
:102700000FC08FEB92E00E94B51284EA92E00E9423
:10271000B51288E892E00E94B51282E492E02DC0E2
:1027200086E392E00E94B51280910706823039F06C
:10273000833041F0813049F480E392E008C08AE2BE
:1027400092E005C083E292E002C089E192E00E943B
:10275000B51241E06CEF75E08EED95E00E947111CD
:1027600081110FC040E06CEF75E08EED95E00E94A6
:102770007111811106C08DEC91E0DF91CF910C9425
:10278000B5128AEB91E00E94B5124AE050E06091E8
:10279000F5058AEE96E00E942B1F6EED75E081EC48
:1027A00095E00E941C08CE010E94081348E268E2EE
:1027B00080EE96E00E94041A88E288831C821B82C5
:1027C00083E090E09093A3058093A2051092A10569
:1027D0001092A005CE01DF91CF910C94C61280918A
:1027E000BC069091BD06892B29F0E091BC06F091C2
:1027F000BD0609958091BE069091BF06892B29F0F0
:10280000E091BE06F091BF0609940895CF92DF9241
:10281000EF92FF920F931F93CF93DF9300EC16E09C
:1028200048ECE42E46E0F42EC0E0D0E06E01CC0C83
:10283000DD1CC6018053994F6C01DC018D919C9188
:10284000892B91F421960F5F1F4FBFEFEB1AFB0A04
:10285000C830D10559F7DF91CF911F910F91FF90AB
:10286000EF90DF90CF900895F80180810E94FD1BCA
:10287000D7012C91332727FD30958217930711F745
:10288000D601ED91FC910995F80180810E94FD1B14
:10289000D7012C91332727FD309582179307A1F399
:1028A000D1CF8091A2059091A3058230910511F4BA
:1028B00061E003C0892B21F460E088E00C94C71B21
:1028C0008091260190912701019790932701809391
:1028D0002601892BC1F482E390E090932701809335
:1028E000260180912801813039F461E088E00E945E
:1028F000C71B10922801089560E088E00E94C71B62
:1029000081E080932801089520E030E0FC01E20F8F
:10291000F31F0284F385E02D309729F04585568515
:102920004617570739F02E5F3F4F2035310571F7B5
:1029300080E0089581E008958F929F92AF92BF92B8
:10294000CF92DF92EF92FF920F931F93CF93DF937B
:10295000CDB7DEB76D970FB6F894DEBF0FBECDBF13
:102960006C015B014A017C018AE5E80EF11CF7016C
:102970008081873208F04DC0C6010E9484148823EC
:1029800051F0B4018AEE96E00E945E1E8DEE90E05A
:102990000E94B51238C01C821B8281E492E09A83A7
:1029A00089831E8221E0A50161EC75E0CE010196CC
:1029B0000E940A0C811108C0B4018AEE96E00E94C0
:1029C0005E1E8AED90E023C0CE0101960E94D60AD9
:1029D0008FE090E00E9400208C010097B1F04DE064
:1029E00050E0B4010E948421F801B686A586F70163
:1029F0008081F601E80FF11DE80FF11D13870287B2
:102A00008F5FF701808381E005C088EC90E00E9431
:102A1000B51280E06D960FB6F894DEBF0FBECDBF45
:102A2000DF91CF911F910F91FF90EF90DF90CF90AA
:102A3000BF90AF909F908F9008958F929F92AF928A
:102A4000BF92CF92DF92EF92FF920F931F93CF939B
:102A5000DF93CDB7DEB7AD970FB6F894DEBF0FBEEC
:102A6000CDBF6C01FC01E65AFF4F808181119BC0F4
:102A700087E391E00E94B512E12CF12CBE016F5F5B
:102A80007F4F81EC95E00E94740987FD04C028E225
:102A9000E216F10448F0F601E55AFF4F10828CE08F
:102AA00091E00E94B5127FC08090CB059090CC053C
:102AB000A090CD05B090CE058981882361F3853E35
:102AC000E9F28E32D9F28C8583FDD8CF8D8D9E8D23
:102AD000AF8DB8A181159042A105B10578F2BE0174
:102AE0006F5D7F4FCE0101960E94FE07CE01819659
:102AF0000E94AD218C0162E572E00E949321892B36
:102B000059F567E572E0C8010E949321892B21F5F0
:102B10006CE572E0C8010E949321892BE9F461E61B
:102B200072E0C8010E949321892BB1F466E672E03D
:102B3000C8010E949321892B79F46CE672E0C801E8
:102B40000E949321892B41F461E772E0C8010E9441
:102B50009321892B09F492CFC501B4016052710908
:102B60008109910955E096958795779567955A95CE
:102B7000D1F7AE014F5D5F4FC6010E949C148FEFED
:102B8000E81AF80A4AE050E0B7018AEE96E00E949F
:102B9000421F84E391E00E94B512B8018AEE96E0EC
:102BA0000E946B1E6BCFAD960FB6F894DEBF0FBEC2
:102BB000CDBFDF91CF911F910F91FF90EF90DF90EC
:102BC000CF90BF90AF909F908F90089580EA90E053
:102BD0000E94B5121092A3051092A205089588E7ED
:102BE00090E00E94B5121092A3051092A2050895DC
:102BF0000F931F93CF93DF93EC01E091A205F09127
:102C0000A305E830F10508F0E7C1EC5CFF4F0C9438
:102C1000E01F8091A0059091A105019751F483E0F8
:102C200090E09093A3058093A2051092A1051092C5
:102C3000A0058091A905882309F4CEC184EA95E016
:102C4000DF91CF911F910F910C94D60AFC01E65AA7
:102C5000FF4F8081811182C185EA91E078C1809126
:102C6000A0059091A105019751F41092A105109231
:102C7000A00582E090E09093A3058093A205809147
:102C8000A0059091A105029741F41092A105109220
:102C9000A0051092A3051092A2058091A005909125
:102CA000A105059749F41092A1051092A00546E0F0
:102CB00060E0CE010E94E1128091A0059091A105F3
:102CC000039749F41092A1051092A00546E061E037
:102CD000CE010E94E1128091A0059091A105079775
:102CE00099F51092A1051092A0058B819C81FE019F
:102CF000E65AFF4F8E01055A1F4F019761F420815C
:102D000030E040E050E060E070E0CB010E94821FC4
:102D1000D8016C930FC0D8014C91242F30E08081F2
:102D200090E001972817390711F41C9203C04F5FF8
:102D3000F801408384EA95E00E94D60A83E090E09F
:102D40009093A3058093A2058091A0059091A10581
:102D5000099779F51092A1051092A0058B819C81AD
:102D60008E01055A1F4F019771F4C65ADF4F288113
:102D700030E040E050E060E070E0CB010E94821F54
:102D8000D8016C930CC0F8018081811106C0C65A2D
:102D9000DF4F88818150808302C08150808384EA24
:102DA00095E00E94D60A83E090E09093A30580937B
:102DB000A2058091A0059091A105089729F5109290
:102DC000A1051092A00581E080939D054091AE057C
:102DD0005091AF056091B0057091B10550586F4F9B
:102DE0007F4F8091B7059091B805A091B905B0913A
:102DF000BA05481759076A077B0720F484EA95E06B
:102E00000E94F30910929D058091A0059091A10563
:102E10000A9709F0E1C01092A1051092A00581E087
:102E200080939D058091AE059091AF05A091B0056E
:102E3000B091B1058115E0E89E07A105B10549F003
:102E4000AC01BD0150586109710984EA95E00E9406
:102E5000F30910929D05C0C08091A0059091A10535
:102E60008130910509F0B8C01092A1051092A0051B
:102E700059C085E791E00E94B5128091A905882389
:102E800021F084EA95E00E94D60A8B819C818130F2
:102E9000910581F4FE01E65AFF4F208130E040E0C9
:102EA00050E060E070E0CB010E94821FC55ADF4F06
:102EB000688326C0009779F4FE01E55AFF4F4081F0
:102EC000242F30E0C65ADF4F888190E00197281701
:102ED0003907A1F43EC082309105A9F4FE01E55AFC
:102EE000FF4F4081242F30E0C65ADF4F888190E0A9
:102EF00001972817390711F4108202C04F5F4083F1
:102F000083E090E00FC08330910509F065C00AC0EE
:102F10000E94E61586E691E00E94B51210929E0589
:102F200086E090E09093A3058093A20555C0DF91C1
:102F3000CF911F910F910C94EF1584EA95E00E94B8
:102F4000D60A80EE96E00E94D7198FE591E00E94A4
:102F5000B5121092A3051092A2053EC080EE96E035
:102F60000E94D7198091A905882321F084EA95E071
:102F70000E94D60AFE01E55AFF4F8081C80FD11D7D
:102F8000C80FD11D0A84DB85C02D4D855E8521E0EB
:102F900061EC75E084EA95E00E940A0C81110CC096
:102FA000BE018AEE96E00E945E1E85E991E00E94D5
:102FB000B51284E090E0B6CF87E891E00E94B512A8
:102FC000BE018AEE96E00E945E1E80E891E00E94BB
:102FD000B51281E090E0A6CFDF91CF911F910F91C4
:102FE0000895CF93DF93EC018885882319F0CE01F3
:102FF0000E94EF138985882319F0CE010E940614E0
:10300000CE01DF91CF910C94F815CF93DF93EC01B3
:103010008E81813071F018F08230A1F052C0888129
:103020000E94FD1B892B11F481E08E8319861A867C
:1030300048C088810E94FD1B892B09F041C082E0B5
:103040008E833FC088810E94FD1B3981892B21F529
:1030500029852F5F2987323079F430E08A819B817E
:1030600096958795969587958217930750F581E0F9
:1030700090E098878F830EC0333019F530E08A8155
:103080009B8182179307E8F482E090E098878F8312
:1030900081E08A87198615C0313051F4298530E0E6
:1030A0008A819B818217930718F482E090E005C023
:1030B0008A85811104C081E090E098878F8319860A
:1030C0001E82DF91CF910895FC0187819085813028
:1030D000910529F4108617828481958108950297BD
:1030E00031F41086178284819581019608958FEFBF
:1030F0009FEF0895EF92FF920F931F93CF93DF936B
:10310000C0E0D0E0835A9F4F7C0187010C0F1D1F48
:10311000C8010E940518C8010E94641897FD05C0E7
:103120009093A1058093A00504C02B96C733D105C9
:1031300061F7DF91CF911F910F91FF90EF9008956C
:10314000CF93DF93EC018F81811103C0CE010E94E8
:103150007A18CE01DF91CF910C9451141F920F92E7
:103160000FB60F9211242F933F934F935F936F935A
:103170007F938F939F93AF93BF93CF93EF93FF93DF
:103180008FE00E94FD1B019771F48091A205909140
:10319000A305019741F48091A905882321F080912E
:1031A0009D05882371F080919F058F5F80939F0517
:1031B000843158F188E096E00E94A01810929F0593
:1031C00024C040E250E06CE976E084EA95E00E9499
:1031D0006C08C82F482F6CE976E080EE96E00E94DC
:1031E0009419C03268F628E040E060E080EE96E096
:1031F0000E946E1980EE96E00E94611A84E090E0D1
:103200009093A3058093A205CECFFF91EF91CF912C
:10321000BF91AF919F918F917F916F915F914F91EE
:103220003F912F910F900FBE0F901F901895109205
:10323000010610920206109205061092070682E01F
:1032400090E0A0E0B0E08093DE059093DF05A093CE
:10325000E005B093E1051092F5051092C4051092B7
:10326000C30581E492E09093C2058093C10510925A
:10327000C6051092A7051092A6059093A505809308
:10328000A4051092A905089561E080E10C94C71B84
:103290002CB5982F93702C7F922B9CBD9DB582FBF3
:1032A000882780F99E7F982B9DBD089561E08EE070
:1032B0000E948E1B60E08FE00E948E1B61E080E127
:1032C0000E948E1B61E081E10E948E1B61E080E123
:1032D0000E94C71B61E081E10C94C71B1F93CF9331
:1032E000DF9300D0CDB7DEB7162F2A8349830E9423
:1032F000441960E081E10E94C71B82E00E94BA0489
:10330000812F0E94BA044981842F0E94BA042A8125
:10331000822F0E94BA0461E081E10F900F90DF914B
:10332000CF911F910C94C71BFF920F931F93CF93C4
:10333000DF93162FF72E042F60E080E10E94C71B59
:103340008FE00E94FD1B8823D9F3C12FDF2D100FC2
:103350001C1721F089910E94BA04FACFDF91CF9116
:103360001F910F91FF900C944419CF93DF93C62FB8
:103370000E94441960E081E10E94C71B83E00E9423
:10338000BA048C2F0E94BA048FEF0E94BA04C82F8F
:103390008FEF0E94BA04D0E0DC2FCC27C82B61E06D
:1033A00081E10E94C71BCE01DF91CF910895CF9399
:1033B000DF93EC0124E048E060E00E946E198FE0AA
:1033C0000E94FD1B8823D9F327E140EC67E0CE0182
:1033D0000E946E1920EF40E066E0CE010E946E1957
:1033E00020E440EC67E0CE010E946E192CE040E042
:1033F00066E0CE010E946E198FE00E94FD1B8823BB
:10340000D9F3DF91CF910895242F462F6BE00C94D0
:103410006E19CF93DF93EC0160E08EE00E94C71B32
:1034200064E670E080E090E00E94F01A61E081E1E3
:103430000E94C71B0E94441961E08EE00E94C71BD6
:103440008FE00E94FD1B8823D9F320E040EC63E06D
:10345000CE010E946E1963EC72E08AEE96E00E9443
:103460005E1E63E0CE010E94B51940E150E0BC0150
:103470008AEE96E00E94481F8FE00E94FD1B882381
:10348000D9F3CE010E94D71923E140EC67E0CE01C9
:103490000E946E1948E268E2CE01DF91CF910C9450
:1034A000041ACF93DF93EC010E943A0481E00E945A
:1034B0004819CE010E945619CE01DF91CF910C948C
:1034C000091ACF93DF9360E080E10E94C71BC0E040
:1034D000D8E08FE00E94FD1B8823D9F380E00E9492
:1034E000BA042197B1F7DF91CF910C9444191F9240
:1034F0000F920FB60F9211242F933F938F939F93A8
:10350000AF93BF938091E2069091E306A091E40609
:10351000B091E5063091E10623E0230F2D3720F42A
:103520000196A11DB11D05C026E8230F0296A11D1D
:10353000B11D2093E1068093E2069093E306A093E9
:10354000E406B093E5068091E6069091E706A09127
:10355000E806B091E9060196A11DB11D8093E6062B
:103560009093E706A093E806B093E906BF91AF9168
:103570009F918F913F912F910F900FBE0F901F90B1
:1035800018952FB7F8946091E2067091E306809148
:10359000E4069091E5062FBF08953FB7F894809117
:1035A000E6069091E706A091E806B091E90626B5F7
:1035B000A89B05C02F3F19F00196A11DB11D3FBF6B
:1035C0006627782F892F9A2F620F711D811D911DFB
:1035D00042E0660F771F881F991F4A95D1F708951B
:1035E0008F929F92AF92BF92CF92DF92EF92FF9213
:1035F0006B017C010E94CD1A4B015C01C114D10406
:10360000E104F104F1F00E949E1F0E94CD1A681996
:1036100079098A099B09683E73408105910570F319
:1036200021E0C21AD108E108F10888EE880E83E093
:10363000981EA11CB11CC114D104E104F10429F7A6
:10364000DDCFFF90EF90DF90CF90BF90AF909F9035
:103650008F900895789484B5826084BD84B581602C
:1036600084BD85B5826085BD85B5816085BDEEE68A
:10367000F0E0808181608083E1E8F0E01082808169
:1036800082608083808181608083E0E8F0E08081D7
:1036900081608083E1EBF0E0808184608083E0EBF7
:1036A000F0E0808181608083EAE7F0E080818460DF
:1036B000808380818260808380818160808380813B
:1036C000806880831092C1000895833081F028F4CF
:1036D000813099F08230A1F008958730A9F08830C8
:1036E000B9F08430D1F4809180008F7D03C0809147
:1036F00080008F7780938000089584B58F7702C013
:1037000084B58F7D84BD08958091B0008F7703C00C
:103710008091B0008F7D8093B0000895CF93DF93A8
:1037200090E0FC01E350FD4F2491FC01EF5EFC4F63
:103730008491882349F190E0880F991FFC01E75C90
:10374000FC4FA591B491815D9C4FFC01C591D49132
:103750009FB7611108C0F8948C91209582238C93B7
:10376000888182230AC0623051F4F8948C91322F00
:10377000309583238C938881822B888304C0F894AE
:103780008C91822B8C939FBFDF91CF9108950F93E3
:103790001F93CF93DF931F92CDB7DEB7282F30E072
:1037A000F901E751FD4F8491F901E350FD4F149168
:1037B000F901EF5EFC4F04910023C9F0882321F04A
:1037C00069830E94651B6981E02FF0E0EE0FFF1F07
:1037D000E15DFC4FA591B4919FB7F8948C91611174
:1037E00003C01095812301C0812B8C939FBF0F9044
:1037F000DF91CF911F910F910895CF93DF93282FE1
:1038000030E0F901E751FD4F8491F901E350FD4F9C
:10381000D491F901EF5EFC4FC491CC2391F081115A
:103820000E94651BEC2FF0E0EE0FFF1FEB5DFC4FDD
:10383000A591B4912C912D2381E090E021F480E0BA
:1038400002C080E090E0DF91CF910895FC01818D6E
:10385000228D90E0805C9F4F821B91098F73992786
:103860000895FC01918D828D981731F0828DE80FBB
:10387000F11D858D90E008958FEF9FEF0895FC0175
:10388000918D828D981761F0828DDF01A80FB11D97
:103890005D968C91928D9F5F9F73928F90E00895BB
:1038A0008FEF9FEF089583EC9DE1892B49F080E035
:1038B00090E0892B29F00E94C31D81110C94000017
:1038C0000895FC01848DDF01A80FB11DA35ABF4FDD
:1038D0002C91848D90E001968F739927848FA6890F
:1038E000B7892C93A089B1898C9180648C93938D36
:1038F000848D981306C00288F389E02D80818F7D26
:1039000080830895CF93DF93EC01888D8823C9F0DD
:10391000EA89FB89808185FD05C0A889B9898C91D8
:1039200086FD0FC00FB607FCF5CF808185FFF2CF73
:10393000A889B9898C9185FFEDCFCE010E94611CC9
:10394000E7CFDF91CF910895CF92DF92FF920F934F
:103950001F93CF93DF931F92CDB7DEB76C0181E049
:10396000D60158968C9358975B969C915B975C9682
:103970008C915C97981307C05096ED91FC915197EC
:10398000808185FD2EC0F601038D10E00F5F1F4F73
:103990000F731127F02EF601848DF81211C00FB6A7
:1039A00007FCF9CFD6015096ED91FC91519780819B
:1039B00085FFF1CFC60169830E94611C6981EBCF4D
:1039C000838DE80FF11DE35AFF4F6083D6015B96AC
:1039D0000C935B975296ED91FC9153978081806296
:1039E0000CC0D6015696ED91FC9157976083509686
:1039F000ED91FC91519780818064808381E090E01B
:103A00000F90DF91CF911F910F91FF90DF90CF909A
:103A10000895BF92CF92DF92EF92FF92CF93DF9300
:103A2000EC016A017B01B22EE889F98982E080838A
:103A3000411581EE580761057105A1F060E079E05C
:103A40008DE390E0A70196010E949F1F215031094C
:103A5000410951095695479537952795211580E1DC
:103A6000380798F0E889F989108260E874E88EE1F7
:103A700090E0A70196010E949F1F21503109410942
:103A800051095695479537952795EC85FD853083E7
:103A9000EE85FF852083188EEC89FD89B082EA8946
:103AA000FB89808180618083EA89FB8980818860CD
:103AB0008083EA89FB89808180688083EA89FB8929
:103AC00080818F7D8083DF91CF91FF90EF90DF9099
:103AD000CF90BF9008951F920F920FB60F921124AE
:103AE0002F938F939F93EF93FF93E091FA06F091BA
:103AF000FB068081E0910007F091010782FD12C072
:103B00009081809103078F5F8F7320910407821744
:103B100051F0E0910307F0E0E651F94F958F809363
:103B2000030701C08081FF91EF919F918F912F91A9
:103B30000F900FBE0F901F9018951F920F920FB607
:103B40000F9211242F933F934F935F936F937F9323
:103B50008F939F93AF93BF93EF93FF938AEE96E07B
:103B60000E94611CFF91EF91BF91AF919F918F9146
:103B70007F916F915F914F913F912F910F900FBE69
:103B80000F901F9018958AEE96E00E94261C21E067
:103B9000892B09F420E0822F08951092ED061092EF
:103BA000EC0688EE93E0A0E0B0E08093EE06909300
:103BB000EF06A093F006B093F10684EF92E09093A5
:103BC000EB068093EA0685EC90E09093F7068093ED
:103BD000F60684EC90E09093F9068093F80680EC6A
:103BE00090E09093FB068093FA0681EC90E090932E
:103BF000FD068093FC0682EC90E09093FF06809394
:103C0000FE0686EC90E090930107809300071092E7
:103C100003071092040710920507109206070895F3
:103C200008950E942A1B0E94101E0E94D901C3E51C
:103C3000DCE10E94E5032097E1F30E94531CF9CFD9
:103C4000CF92DF92EF92FF920F931F93CF93DF9368
:103C50007C016A01EB0100E010E00C151D0571F01C
:103C60006991D701ED91FC910190F081E02DC701A0
:103C70000995892B19F00F5F1F4FEFCFC801DF9116
:103C8000CF911F910F91FF90EF90DF90CF9008950B
:103C90006115710581F0DB010D900020E9F7AD01A0
:103CA00041505109461B570BDC01ED91FC910280FC
:103CB000F381E02D099480E090E008950C94481E73
:103CC000DC01ED91FC910190F081E02D09946DEE05
:103CD00072E00C94481E0F931F93CF93DF93EC0177
:103CE0000E94481E8C01CE010E94671E800F911F0A
:103CF000DF91CF911F910F9108958F929F92AF9274
:103D0000BF92DF92EF92FF920F931F93CF93DF93B7
:103D1000CDB7DEB7A1970FB6F894DEBF0FBECDBF0B
:103D20007C01F42FD52ECB0119A2223008F42AE011
:103D30008E010F5D1F4F822E912CA12CB12C6F2F65
:103D40007D2DA50194010E949F1FF22FD32ECA0141
:103D5000015011096A3014F4E0E301C0E7E3E60F13
:103D6000D801EC93232B242B252B49F7B801C7014D
:103D70000E94481EA1960FB6F894DEBF0FBECDBFBD
:103D8000DF91CF911F910F91FF90EF90DF90BF9047
:103D9000AF909F908F900895CF92DF92EF92FF9215
:103DA0000F931F93CF93DF93EC016A017B012115E1
:103DB000310579F4E881F9810190F081E02D642FDB
:103DC000DF91CF911F910F91FF90EF90DF90CF90F7
:103DD00009942A303105E9F477FF1AC06DE20E9498
:103DE000601E8C0144275527BA014C195D096E09E4
:103DF0007F092AE0CE010E947D1E800F911FDF9176
:103E0000CF911F910F91FF90EF90DF90CF90089589
:103E10002AE0B701A601CE01DF91CF911F910F914A
:103E2000FF90EF90DF90CF900C947D1E9A01AB0134
:103E3000662757FD6095762F0C94CC1E2115310511
:103E400041F4DC01ED91FC910190F081E02D642FB3
:103E500009940C947D1E0F931F93CF93DF93EC0175
:103E60009A01462F50E060E070E00E941E1F8C0116
:103E7000CE010E94671E800F911FDF91CF911F918D
:103E80000F9108959A01AB0160E070E00C941E1F41
:103E90000F931F93CF93DF93EC019A01AB0160E086
:103EA00070E00E941E1F8C01CE010E94671E800FD1
:103EB000911FDF91CF911F910F910895CF93DF93C1
:103EC00000D000D0CDB7DEB79B01AC016115710504
:103ED0008105910569F069833A834B835C830E9475
:103EE000762129813A814B815C810E94C11F03C0E8
:103EF00060E070E0CB010F900F900F900F90DF917A
:103F0000CF910895CF92DF92EF92FF926B017C01E7
:103F1000621773078407950764F4CA01B9016C1925
:103F20007D098E099F090E945E1F6C0D7D1D8E1DEF
:103F30009F1DFF90EF90DF90CF9008950895A1E22C
:103F40001A2EAA1BBB1BFD010DC0AA1FBB1FEE1F13
:103F5000FF1FA217B307E407F50720F0A21BB30B5E
:103F6000E40BF50B661F771F881F991F1A9469F7DA
:103F700060957095809590959B01AC01BD01CF0136
:103F80000895052E97FB1EF400940E94D81F57FD3C
:103F900007D00E949F1F07FC03D04EF40C94D81F3B
:103FA00050954095309521953F4F4F4F5F4F089565
:103FB00090958095709561957F4F8F4F9F4F089595
:103FC000EE0FFF1F0590F491E02D09940E94F11F60
:103FD000A59F900DB49F900DA49F800D911D11245D
:103FE0000895A29FB001B39FC001A39F700D811DD2
:103FF0001124911DB29F700D811D1124911D0895F2
:10400000CF93DF938230910510F482E090E0E0914D
:104010008907F0918A0720E030E0A0E0B0E0309717
:1040200039F14081518148175907B8F048175907AD
:1040300071F482819381109729F013969C938E934B
:1040400012972CC090938A078093890727C0211567
:10405000310531F04217530718F0A901DB0101C007
:10406000EF019A01BD01DF010280F381E02DD7CF7E
:1040700021153105F9F0281B390B2430310580F466
:104080008A819B816115710521F0FB0193838283F5
:1040900004C090938A0780938907FE01329644C03A
:1040A000FE01E20FF31F819391932250310939836E
:1040B00028833AC02091870730918807232B41F449
:1040C00020910201309103013093880720938707E4
:1040D00020910001309101012115310541F42DB7E6
:1040E0003EB74091040150910501241B350BE0912E
:1040F0008707F0918807E217F307A0F42E1B3F0B08
:104100002817390778F0AC014E5F5F4F2417350749
:1041100048F04E0F5F1F50938807409387078193A5
:10412000919302C0E0E0F0E0CF01DF91CF910895DC
:10413000CF93DF93009709F487C0FC013297138275
:104140001282C0918907D0918A07209781F420813B
:104150003181280F391F8091870790918807821736
:10416000930779F5F0938807E09387076DC0DE0128
:1041700020E030E0AE17BF0750F412964D915C91ED
:1041800013979D014115510509F1DA01F3CFB3836E
:10419000A28340815181840F951F8A179B0771F478
:1041A0008D919C911197840F951F02969183808326
:1041B00012968D919C9113979383828321153105DB
:1041C00029F4F0938A07E09389073EC0D90113963A
:1041D000FC93EE9312974D915D91A40FB51FEA17D2
:1041E000FB0779F480819181840F951F0296D90194
:1041F00011969C938E938281938113969C938E93B8
:104200001297E0E0F0E08A819B81009719F0FE01AF
:10421000EC01F9CFCE01029628813981820F931FDC
:1042200020918707309188072817390769F430975C
:1042300029F410928A071092890702C01382128211
:10424000D0938807C0938707DF91CF9108958F920D
:104250009F92AF92BF92CF92DF92EF92FF92CF9355
:10426000DF93EC01688179818A819B8161157105F9
:104270008105910521F464E279ED8BE597E02DE16C
:1042800033EF41E050E00E94C11F49015A019B01F8
:10429000AC01A7EAB1E40E94E61F6B017C01ACEE21
:1042A000B4EFA50194010E94BA21C60ED71EE81EE4
:1042B000F91EF7FE06C081E0C81AD108E10880E8BF
:1042C000F80AC882D982EA82FB82C701B6019F77C9
:1042D000DF91CF91FF90EF90DF90CF90BF90AF90A4
:1042E0009F908F9008950E942721089586E091E085
:1042F0000E9427210895609306017093070180931F
:104300000801909309010895FB01DC0141505040E0
:1043100048F001900D920020C9F701C01D92415054
:104320005040E0F70895FB0151915523A9F0BF01DA
:10433000DC014D9145174111E1F759F4CD01019090
:10434000002049F04D9140154111C9F3FB01411185
:10435000EFCF81E090E001970895DC016C91615608
:104360006A3108F0605E6F5B6D93C1F70895B7FF27
:104370000C94E61F0E94E61F821B930B0895F8948D
:02438000FFCF6D
:1043820000008B0780000100000028022B022D0292
:104392002F026F025A02050004000300020001000E
:1043A2000200FFFFFFFF320001746F6F20736C6F1A
:1043B200772E206261636B20746F207468652073AE
:1043C2007461727420666F7220796F752E002020DE
:1043D2002E00596F7520776F6E2069742120596FF6
:1043E20075206765742061206E696365206D657351
:1043F20073616765207669612074686520596F75FD
:10440200576F6E2046756E6374696F6E2120796FE7
:1044120075576F6E49742069732074727565206ECA
:104422006F772100526573657474696E67206E6FD1
:10443200772100596F752050726573736564204B44
:104442006579202300202D20005B20436F72726566
:10445200637421205D002D2D2D2D2D2D2D2D2D2D23
:104462002D2D2D2D2D2D2D2D2D2D005B20496E63F3
:104472006F727265637421205D00507265737320E0
:104482006B6579202300486F6F7261792120596F23
:104492007520736F6C7665642069742120536F20D8
:1044A200636C657665722100432300440045004633
:1044B20000020003000400050006000700000000DF
:1044C20000EF0D201E44656C65746520736F6E6786
:1044D2003A002E4D5033002E574D41002E57415673
:1044E200002E414343002E4D494449002E4F474779
:1044F200002E564F5242495300496E69742076731A
:104502003130787820696E204D49444920666F72B7
:104512006D61742E2E2E00646F6E650D0A00466169
:104522006E6379204D69646920536F756E64730DF3
:104532000A0020496E737472756D656E743A2000BC
:104542004E3A000D0A56533130787820436C6F632F
:104552006B204672713A203078006C6F6164204D96
:1045620049444920506C7567696E2E2E2E0D0A0043
:1045720000000000A41C201E261C3F1C311C821CB3
:0C4582006E616E00696E66006F76660068
:00000001FF
