:100000000C94A3010C94CB010C94CB010C94CB0168
:100010000C94CB010C94CB010C94CB010C94CB0130
:100020000C94CB010C94CB010C94CB010C94CB0120
:100030000C94CB010C940E0B0C94CB010C94CB01C3
:100040000C941C040C94CB010C940F030C94E90247
:100050000C94CB010C94CB010C94CB010C94CB01F0
:100060000C94CB010C94CB019316B416C017AD16AB
:10007000CD17121827182A180000000024002700A6
:100080002A0000000000250028002B0000000000CE
:1000900023002600290004040404040404040202CA
:1000A00002020202030303030303010204081020F7
:1000B0004080010204081020010204081020000002
:1000C0000008000201000003040700000000000017
:1000D0000000566F6C756D652074797065206973CA
:1000E0002046415400436F756C64206E6F74206627
:1000F000696E642046415431362F464154333220D4
:10010000706172746974696F6E2E0A4D616B65203F
:100110007375726520796F7527766520666F726DCD
:1001200061747465642074686520636172640D0A8B
:1001300000556E6B6E6F776E0D0A00534448430D89
:100140000A005344320D0A005344310D0A00436142
:10015000726420747970653A20002A2064696420F2
:10016000796F75206368616E6765207468652063C8
:1001700068697053656C6563742070696E20746F74
:10018000206D6174636820796F757220736869658A
:100190006C64206F72206D6F64756C653F0D0A0092
:1001A0002A20497320796F757220776972696E67AA
:1001B00020636F72726563743F0D0A002A206973B1
:1001C0002061206361726420697320696E736572B7
:1001D0007465643F0D0A00696E697469616C697ABF
:1001E0006174696F6E206661696C65642E20546865
:1001F000696E677320746F20636865636B3A0D0ADC
:100200000072756E206F7574206F662072616D2E9E
:100210000D0A002063616E74206265206F70656E48
:1002200065642E0D0A0020616C7265616479206539
:10023000786973747320696E20706C61796C69736E
:10024000742E0D0A002D2D2D2D2D2D2D2D2D2D2D06
:100250002D2D2D2D2D2D2D2D2D2D2D2D2D2D2D2DCE
:100260002D2D2D2D2D2D2D2D2D2D0D0A002E200067
:100270002D2D2D2D20736F6E677320696E205446CF
:1002800020636172642028726F6F74206469722920
:10029000202D2D2D2D0D0A004F6E6C79204D4547D8
:1002A000413235363020626F6172642063616E20A6
:1002B000646F207265636F7264696E672E0D0A0049
:1002C0004F6E6C79204D4547413235363020626F94
:1002D0006172642063616E20646F207265636F7267
:1002E00064696E672E0D0A0073746F700D0A0052F8
:1002F00065636F7264696E672E2E2E0D0A00205B97
:10030000646F6E655D2E0D0A00202E2E2E0D0A00E4
:10031000506C6179696E6720736F6E672000206F83
:1003200070656E206661696C65642E0D0A00506C04
:1003300061796C69737420697320656D7074792EAE
:100340000D0A00008A1A11241FBECFEFD8E0DEBFCD
:10035000CDBF12E0A0E0B1E0EAE7FAE302C0059009
:100360000D92A23AB107D9F727E0A2EAB2E001C0A4
:100370001D92AE30B207E1F711E0C3EAD1E004C04C
:100380002197FE010E94111BC23AD107C9F70E94B2
:1003900043120C943B1D0C940000FC01918D828D46
:1003A000981761F0828DDF01A80FB11D5D968C91C9
:1003B000928D9F5F9F73928F90E008958FEF9FEFD4
:1003C0000895FC01918D828D981731F0828DE80F90
:1003D000F11D858D90E008958FEF9FEF0895FC014A
:1003E000918D228D892F90E0805C9F4F821B910917
:1003F0008F73992708958EEB95E00E94EF0121E01D
:10040000892B09F420E0822F0895FC01848DDF01FF
:10041000A80FB11DA35ABF4F2C91848D90E0019677
:100420008F739927848FA689B7892C93A089B18966
:100430008C9180648C93938D848D981306C0028870
:10044000F389E02D80818F7D80830895EF92FF9264
:100450000F931F93CF93DF93EC0181E0888F9B8DE7
:100460008C8D981305C0E889F989808185FD24C0A9
:10047000F62E0B8D10E00F5F1F4F0F731127E02E2C
:100480008C8DE8120CC00FB607FCFACFE889F98909
:10049000808185FFF5CFCE010E940502F1CF8B8DC3
:1004A000FE01E80FF11DE35AFF4FF0820B8FEA893E
:1004B000FB898081806207C0EE89FF896083E889BB
:1004C000F98980818064808381E090E0DF91CF9121
:1004D0001F910F91FF90EF900895CF93DF93EC0160
:1004E000888D8823C9F0EA89FB89808185FD05C054
:1004F000A889B9898C9186FD0FC00FB607FCF5CF8E
:10050000808185FFF2CFA889B9898C9185FFEDCFD5
:10051000CE010E940502E7CFDF91CF91089580E0E0
:1005200090E0892B29F00E94FB0181110C940000BE
:100530000895833081F028F4813099F08230A1F061
:1005400008958730A9F08830B9F08430D1F48091D3
:1005500080008F7D03C0809180008F778093800022
:10056000089584B58F7702C084B58F7D84BD0895CA
:100570008091B0008F7703C08091B0008F7D809311
:10058000B00008953FB7F8948091ED029091EE028B
:10059000A091EF02B091F00226B5A89B05C02F3FB5
:1005A00019F00196A11DB11D3FBFBA2FA92F982F99
:1005B0008827820F911DA11DB11DBC01CD0142E014
:1005C000660F771F881F991F4A95D1F708950E94DB
:1005D000171B1F920F920FB60F9211242F933F9368
:1005E0004F935F936F937F938F939F93AF93BF933B
:1005F000EF93FF938EEB95E00E940502FF91EF9140
:10060000BF91AF919F918F917F916F915F914F912A
:100610003F912F910F900FBE0F901F9018951F9232
:100620000F920FB60F9211242F938F939F93EF93F6
:10063000FF93E091CE05F091CF058081E091D40544
:10064000F091D50582FD12C090818091D7058F5F12
:100650008F732091D805821751F0E091D705F0E013
:10066000E254FA4F958F8093D70501C08081FF91A6
:10067000EF919F918F912F910F900FBE0F901F9030
:100680001895CF93DF93282F30E0F901E254FF4F04
:100690008491F901E655FF4FD491F901EA56FF4FD5
:1006A000C491CC2391F081110E949902EC2FF0E0CB
:1006B000EE0FFF1FE457FF4FA591B491EC91ED238E
:1006C00081E090E021F480E002C080E090E0DF91E2
:1006D000CF9108951F93CF93DF93282F30E0F90136
:1006E000E254FF4F8491F901E655FF4FD491F9018F
:1006F000EA56FF4FC491CC23C9F0162F81110E94F6
:100700009902EC2FF0E0EE0FFF1FEE57FF4FA5917F
:10071000B4918FB7F894111105C09C91ED2FE0951D
:10072000E92302C0EC91ED2BEC938FBFDF91CF91C9
:100730001F910895CF93DF9390E0FC01E655FF4FA2
:100740002491FC01EA56FF4F8491882361F190E0E7
:10075000880F991FFC01E858FF4FC591D491FC0107
:10076000EE57FF4FA591B491611109C09FB7F8945E
:100770008881209582238883EC912E230BC06230E0
:1007800061F49FB7F8943881822F80958323888302
:10079000EC912E2B2C939FBF06C08FB7F894E88165
:1007A0002E2B28838FBFDF91CF9108958F929F9238
:1007B000AF92BF92CF92DF92EF92FF926B017C01DA
:1007C0000E94C2024B015C01C114D104E104F10496
:1007D000F1F00E94C202DC01CB0188199909AA0933
:1007E000BB09883E9340A105B10570F321E0C21A10
:1007F000D108E108F10888EE880E83E0981EA11C5C
:10080000B11CC114D104E104F10419F7DDCFFF904C
:10081000EF90DF90CF90BF90AF909F908F90089512
:100820002FB7F8946091E9027091EA028091EB028F
:100830009091EC022FBF08951F920F920FB60F9266
:1008400011242F933F938F939F93AF93BF938091E6
:10085000E9029091EA02A091EB02B091EC02309192
:10086000E80223E0230F2D3720F40196A11DB11DCE
:1008700005C026E8230F0296A11DB11D2093E802B2
:100880008093E9029093EA02A093EB02B093EC020A
:100890008091ED029091EE02A091EF02B091F002F2
:1008A0000196A11DB11D8093ED029093EE02A093DD
:1008B000EF02B093F002BF91AF919F918F913F9162
:1008C0002F910F900FBE0F901F90189561E080E15F
:1008D0000C946A03CF93DF93FC016491EC012196A1
:1008E000662361F0E091BE05F091BF050190F081B3
:1008F000E02D8EEB95E00995CE01EECFDF91CF9103
:1009000008958FB7F8948091C1028FBF089561E078
:10091000FC0184810E946A038091C00281111092BF
:10092000C00208958EBD00000DB407FEFDCF8EB548
:1009300008958FEF0C9492040F931F93CF93DF933E
:10094000EB010E9410048B010E9499048F3F49F033
:100950000E941004601B710B6C177D07A8F380E0E8
:1009600001C081E0DF91CF911F910F910895CF9346
:10097000DF93EC018E81882389F08F8198859C011B
:100980002F5F3F4F38872F838230924018F40E94A8
:100990009904F3CFCE010E9487041E82DF91CF918C
:1009A00008958CBD9DBD0895CF93DF93EC01809198
:1009B000C002811109C081E08093C0028091BF060E
:1009C0009091C0060E94D10460E08C81DF91CF91AC
:1009D0000C946A03CF92DF92FF920F931F93CF93F1
:1009E000DF9300D000D0CDB7DEB76C01F62E29839F
:1009F0003A834B835C830E94B704C6010E94D404EF
:100A00006CE271E0C6010E949C048F2D80640E94FC
:100A1000920408E110E05C814B813A812981DA017E
:100A2000C901002E04C0B695A795979587950A949D
:100A3000D2F729833A834B835C830E949204085047
:100A4000110929813A814B815C81083F8FEF18079A
:100A500031F7FF2029F0E8E0FE1204C087E803C068
:100A600085E901C08FEF0E94920410E00E94990472
:100A7000F601828787FF04C01F3F11F01F5FF6CF8A
:100A80000F900F900F900F90DF91CF911F910F91CA
:100A9000FF90DF90CF900895AF92BF92CF92DF92F8
:100AA000EF92FF920F931F93CF93DF93EC016901B5
:100AB000C801820F931F8130924008F084C08E815C
:100AC000882371F088819981AA81BB8148175907D1
:100AD0006A077B0729F48F819885C816D906B0F577
:100AE000488359836A837B838B85833039F089E01F
:100AF000440F551F661F771F8A95D1F79A01AB01E6
:100B000061E1CE010E94EA04882319F083E08D831D
:100B10005AC00E9410045B010E9499048A878F3F8B
:100B200049F40E9410046A197B096D327140A0F3E8
:100B30008FE003C08E3F31F08DE08D83CE010E94A7
:100B4000870441C018861F8281E08E838F8198853B
:100B50008C159D0540F40E9499048F81988501961B
:100B600098878F83F3CF01151105E9F0F701808194
:100B70008EBDD7013196C701800F911FE817F90785
:100B800041F031910DB407FEFDCF2EB53EBD2D9342
:100B9000F5CFC8010197F701E80FF91F0DB407FE63
:100BA000FDCF8EB580838F819885080F191F188718
:100BB0000F838985882319F00115124048F0CE0172
:100BC0000E94B70405C0CE010E94870480E001C0E6
:100BD00081E0DF91CF911F910F91FF90EF90DF9017
:100BE000CF90BF90AF900895EF92FF920F931F9315
:100BF000CF93DF93EC017901411551056105710532
:100C000011F482E13CC08B85833039F089E0440FD8
:100C1000551F661F771F8A95D1F79A01AB0168E1CE
:100C2000CE010E94EA04882311F084E028C08EEFF0
:100C30000E94920487018EEFF81AF80181918F01CA
:100C40000E9492040E151F05C1F78FEF0E949204B7
:100C50008FEF0E9492040E9499048A878F718530D9
:100C600031F081E18D83CE010E94870409C068E5DF
:100C700072E0CE010E949C04811107C085E18D8342
:100C8000CE010E94870480E013C020E030E0A9017B
:100C90006DE0CE010E94EA04811104C00E94990413
:100CA000882311F084E1EBCFCE010E94870481E01C
:100CB000DF91CF911F910F91FF90EF900895809158
:100CC000C2028823A9F1409103015091040160916F
:100CD0000501709106012DEB33E08091BB039091EB
:100CE000BC030E94F405811102C080E00895409188
:100CF000C3025091C4026091C5027091C6024115B1
:100D000051056105710591F02DEB33E08091BB0336
:100D10009091BC030E94F405882339F31092C3021A
:100D20001092C4021092C5021092C6021092C20222
:100D300081E008958F929F92AF92BF92EF92FF92BF
:100D40000F931F93CF934B015C01C42F809103013C
:100D500090910401A0910501B091060188159905B3
:100D6000AA05BB0501F10E945F06811102C080E067
:100D700020C08DEBE82E83E0F82E00E012E020E0AA
:100D800030E0B501A4018091BB039091BC030E94A7
:100D90004C05882361F38092030190920401A09294
:100DA0000501B09206018091C202C82BC093C20215
:100DB00081E0CF911F910F91FF90EF90BF90AF9086
:100DC0009F908F9008954F925F926F927F928F9233
:100DD0009F92AF92BF92CF92DF92EF92FF920F93CA
:100DE0001F93CF93DF93EC016A017B012801390146
:100DF000423051056105710510F480E073C08985AA
:100E00009A85AB85BC850196A11DB11D84179507F8
:100E1000A607B70790F38B889C88AD88BE888F891A
:100E2000803129F4BB27AF2D9E2D8D2D09C0DB010C
:100E3000CA0147E0B695A795979587954A95D1F74A
:100E4000880E991EAA1EBB1E809103019091040179
:100E5000A0910501B091060188169906AA06BB0665
:100E600079F48F898031A1F4DD24EE24FF24C601BA
:100E7000880F991FFC01E354FC4F5182408219C036
:100E800040E0C501B4010E949A068111EACFB5CFB6
:100E9000E894C7F8DD24EE24FF24C601880F991FCB
:100EA000880F991FFC01E354FC4F408251826282FB
:100EB00073828091C20281608093C2028A898230EB
:100EC00080F08D819E81AF81B885880E991EAA1E03
:100ED000BB1E8092C3029092C402A092C502B0923F
:100EE000C60281E0DF91CF911F910F91FF90EF90AB
:100EF000DF90CF90BF90AF909F908F907F906F903A
:100F00005F904F9008958F929F92AF92BF92CF9231
:100F1000DF92EF92FF920F931F93CF93DF93FC0129
:100F200081859285A385B4850196A11DB11D841785
:100F30009507A607B70710F480E05CC08389948901
:100F4000A589B689C789C03129F4852E962EA72E8A
:100F5000BB2409C04A015B01C7E0B694A7949794EB
:100F60008794CA95D1F7E9016A017B018F01BC0121
:100F7000CD01680D791D8A1D9B1D80900301909005
:100F80000401A0900501B0900601681579058A0555
:100F90009B0599F4F80187898031A9F4B701A6016E
:100FA000552766277727440F551FFA01E354FC4F56
:100FB00080819181A0E0B0E018C040E00E949A06D4
:100FC0008111E8CFB9CFB701A6014F775527662722
:100FD0007727440F551F440F551FFA01E354FC4F68
:100FE00080819181A281B381BF7088839983AA8314
:100FF000BB8381E0DF91CF911F910F91FF90EF9024
:10100000DF90CF90BF90AF909F908F9008954F92B8
:101010005F926F927F92AF92BF92CF92DF92EF92E8
:10102000FF920F931F93CF93DF9300D000D0CDB7E3
:10103000DEB78C0149835A836B837C835901C12CB1
:10104000D12C7601412C82E0582E612C712C4981E3
:101050005A816B817C819E012F5F3F4FC8010E94A6
:101060008307882351F1D301C201F801058404C02C
:10107000880F991FAA1FBB1F0A94D2F7C80ED91E4A
:10108000EA1EFB1E49815A816B817C8187898031F0
:1010900029F088EF9FEFAFEFBFE004C088EF9FEF2C
:1010A000A0E0B0E0481759076A077B0780F2F50116
:1010B000C082D182E282F38281E00F900F900F9084
:1010C0000F90DF91CF911F910F91FF90EF90DF90E4
:1010D000CF90BF90AF907F906F905F904F900895AA
:1010E0008F929F92AF92BF92CF92DF92EF92FF9238
:1010F0000F931F93CF93DF93EC018D81811102C079
:1011000080E077C00B891C892D893E89041715075B
:1011100026073707A8F36A017B01823029F4CA86C3
:10112000DB86EC86FD860DC0C114D104E104F10418
:1011300051F41E821F82188619861A861B861C8609
:101140001D8681E056C08A849B84AC84BD84EB8D6F
:10115000FC8D258530E0275F3F4FB501A40141504C
:10116000510961097109022E04C07695679557955A
:1011700047950A94D2F7D701C6010197A109B10991
:1011800004C0B695A795979587952A95D2F78417A9
:101190009507A607B70720F089288A288B2849F4E5
:1011A0004F89588D698D7A8D4E835F8368877987E3
:1011B00004C0841B950BA60BB70B4C015D018E017F
:1011C0000A5F1F4F81149104A104B10409F4A7CF51
:1011D0004E815F816885798598018B8D9C8D0E94F9
:1011E000830791E0891A9108A108B1088111EACF1B
:1011F00087CFDF91CF911F910F91FF90EF90DF90FC
:10120000CF90BF90AF909F908F9008953F924F9254
:101210005F926F927F928F929F92AF92BF92CF9286
:10122000DF92EF92FF920F931F93CF93DF93CDB78F
:10123000DEB72C970FB6F894DEBF0FBECDBF5C01B2
:10124000DC015B968D909C905C971696CD90DD901E
:10125000ED90FC901997C114D104E104F10439F028
:10126000BFEFCB1ADB0AEB0AFB0A312C07C0F401F3
:10127000C080D180E280F38033243394F4018185EF
:101280009285A385B4859C01AD012F5F3F4F4F4FE1
:101290005F4F29873A874B875C87260137011D827C
:1012A0001E821F821886F40181859285A385B485EC
:1012B0002D813E814F815885281739074A075B07E2
:1012C00008F063C089859A85AB85BC858C159D0522
:1012D000AE05BF0550F482E0C82ED12CE12CF12CD4
:1012E00092E0492E512C612C712C9E012F5F3F4FB3
:1012F000B701A601C4010E948307882309F445C0F1
:1013000089819A81AB81BC81892B8A2B8B2B41F0FF
:10131000260137019FEF491A590A690A790A05C05F
:10132000C414D504E604F70491F02D813E814F8169
:1013300058852F5F3F4F4F4F5F4F2D833E834F8325
:1013400058873FEFC31AD30AE30AF30AACCF0FEF73
:101350001FEF2FEF3FE0B301A201C4010E94E3069B
:10136000882399F0D50116964D915D916D917C91F0
:101370001997411551056105710549F093018201E5
:10138000C4010E94E306811102C080E02AC0D50199
:1013900016964D925D926D927C921997332051F082
:1013A000D301C2010196A11DB11DF4018083918377
:1013B000A283B383F5018789908DA18DB28D892B8E
:1013C0008A2B8B2B69F4D50157964D925D926D92C5
:1013D0007C925A9714968C911497806814968C93EB
:1013E00081E02C960FB6F894DEBF0FBECDBFDF9123
:1013F000CF911F910F91FF90EF90DF90CF90BF9012
:10140000AF909F908F907F906F905F904F903F90A4
:1014100008952F923F924F925F926F927F928F9298
:101420009F92AF92BF92CF92DF92EF92FF920F9373
:101430001F93CF93DF93EC016B014A018D818111E2
:1014400003C08FEF9FEFD7C08C8180FFFACF4B880E
:101450005C886D887E884A855B856C857D85C40146
:10146000A0E0B0E093018201041B150B260B370BA3
:10147000081719072A073B0718F44201841A950A2E
:1014800054011E0126E0220E311CA114B10409F4FE
:101490007EC04A855B856C857D852A0181E0582266
:1014A000ED818A019B0189E036952795179507956F
:1014B0008A95D1F78B8D9C8DE23061F4FC01828D91
:1014C000938DA48DB58DBC01CD01600F711F821F5E
:1014D000931F3FC0FC0174807A9470224114510420
:1014E000C9F4711017C0452B462B472B49F48F893F
:1014F000988DA98DBA8D8E839F83A887B9870AC0DE
:101500004E815F816885798591010E9483078823D8
:1015100009F497CFEB8DFC8D8E819F81A885B985CD
:101520000297A109B109058404C0880F991FAA1F59
:10153000BB1F0A94D2F74685578560897189840F4D
:10154000951FA61FB71FBC01CD01670D711D811D21
:10155000911D20E032E02419350935012A153B059B
:1015600008F439012C8126FD04C06114F2E07F06E5
:1015700081F4009103011091040120910501309143
:1015800006016017710782079307B1F402C0C40116
:1015900032C040E00E949A06882309F452CFF2013B
:1015A000E354FC4FD601CF01860D971DE817F907CC
:1015B00089F021912D93FACF760183019201AB013D
:1015C000BC018091BB039091BC030E944C05882311
:1015D00009F437CFC60CD71C8A859B85AC85BD85A1
:1015E000860D971DA11DB11D8A879B87AC87BD877E
:1015F000A618B7084ACFDF91CF911F910F91FF90A6
:10160000EF90DF90CF90BF90AF909F908F907F90A2
:101610006F905F904F903F902F9008951F920F9280
:101620000FB60F9211246F927F928F929F92AF927A
:10163000BF92CF92DF92EF92FF920F931F932F935F
:101640003F934F935F936F937F938F939F93AF934A
:10165000BF93CF93DF93EF93FF93A8ECEA2EA2E022
:10166000FA2E8FE00E944103019779F48091F402F1
:101670009091F502019749F480916006882329F042
:101680008091F102882309F4DEC08091C7028F5F48
:101690008093C702843108F415C18091FD02811145
:1016A0009CC059E5852E53E0952E0CE513E06DE5C1
:1016B000E62E63E0F62EC3E5D3E072E0672E7724D2
:1016C0007394CC24C394D12CF2E0AF2EB12CD4016E
:1016D0008C91813079F018F08230B9F057C0888150
:1016E0000E944103892B11F4F4017082D8011C92ED
:1016F000F70109C088810E944103892B19F4D401A4
:101700006C9244C0F401108241C088810E94410360
:10171000F8013897892B11F5D8018C918F5F8C9344
:101720009081923069F490E02A813B81369527952B
:10173000369527952817390748F5D886CF8225C0D2
:10174000933021F590E02A813B8128173907F0F486
:10175000B886AF82F7017082D80117C080818130CE
:1017600059F4F801808190E02A813B8128173907DC
:1017700018F4B886AF8206C0D7018C91811102C0DF
:10178000D886CF82F8011082D4011C928F8198856F
:101790008130910529F418861F828C819D8107C0B4
:1017A000029761F418861F828C819D81019697FDB6
:1017B00005C09093F3028093F2020FC0BBE08B0E42
:1017C000911C055F1F4FEBE0EE0EF11C2B96F0E92C
:1017D0008F16F3E09F0609F07ACF8091F402909182
:1017E000F5028230910511F461E003C0892B29F4E0
:1017F00060E088E00E946A0323C08091010190911B
:10180000020101979093020180930101892BC1F499
:1018100082E390E0909302018093010180910001A6
:10182000813039F461E088E00E946A03109200017F
:1018300007C060E088E00E946A0381E080930001B5
:101840001092C7023FC040E250E068EC72E08BE5C6
:1018500096E00E94090A182F60E080E10E946A0366
:101860008FE00E9441038823D9F3C8ECD2E0012F16
:101870000E0D0C1721F089910E949204FACF0E945C
:101880006604103208F0EDCE48E060E080E00E948F
:10189000430F60E080E10E946A03C0E0D8E08FE07F
:1018A0000E9441038823D9F380E00E94920421978B
:1018B000B1F70E94660484E090E09093F502809373
:1018C000F402E3CEFF91EF91DF91CF91BF91AF9101
:1018D0009F918F917F916F915F914F913F912F9148
:1018E0001F910F91FF90EF90DF90CF90BF90AF903E
:1018F0009F908F907F906F900F900FBE0F901F90D2
:101900001895CF93DF93FC01248127FF2EC0EC01B3
:10191000668577858089918941E00E949A068823AF
:1019200041F1EA8980E2E89FF0011124DF01A3542C
:10193000BC4F1097F1F08D81823050F44B895C8957
:101940006D897E895C964D935D936D937C935F97D3
:101950008F89988DA98DBA8DE354FC4F938F828F18
:10196000B58BA48B8C818F778C83DF91CF910C9476
:101970005F0680E0DF91CF910895CF93DF93FC0164
:101980002581211102C080E007C0EC010E94810C7A
:101990008823C9F31D8281E0DF91CF9108958F9252
:1019A0009F92AF92BF92DF92EF92FF920F931F939D
:1019B000CF93DF9300D000D01F92CDB7DEB78C015C
:1019C0006D83DC0115968C9115978130C9F41496BE
:1019D0008C9181FF15C082FF1DC0F8014389548995
:1019E0006589768982859385A485B5858417950751
:1019F000A607B70779F0C8010E94700881110AC0D4
:101A000081E090E0D80113969C938E93129780E02A
:101A100090E0E8C0D8011A964D915D916D917C914E
:101A20001D975B968D919C915C97FC01D480DA9414
:101A30004A015B0129E0B694A794979487942A956C
:101A4000D1F7D8207A01F1E0FF22D11047C0E1148C
:101A5000F10409F043C0D80116964D915D916D9146
:101A60007C911997411551056105710559F45796F7
:101A70008D919D910D90BC91A02D0097A105B10570
:101A800041F521C09E012F5F3F4F0E9483078823AD
:101A900009F4BDCF89819A81AB81BC81F801238D86
:101AA000348DF9012789203129F048EF5FEF6FEF7E
:101AB0007FE004C048EF5FEF60E070E084179507B7
:101AC000A607B70730F0C8010E940609811106C0B9
:101AD00097CFF80186839783A087B187D8015B965B
:101AE000ED91FC915C9716968D909D90AD90BC9079
:101AF0001997B2E08B1A9108A108B108058404C0B7
:101B0000880C991CAA1CBB1C0A94D2F78685978561
:101B1000A089B189880E991EAA1EBB1E8D0C911C2E
:101B2000A11CB11CE114F10409F5F80142855385AB
:101B30006485758583899489A589B689481759076D
:101B40006A077B0798F00E945F06882309F458CF44
:101B50008092030190920401A0920501B0920601C7
:101B60008091C20281608093C20208C041E0C50139
:101B7000B4010E949A06882309F442CFF701E35486
:101B8000FC4F8D818083F80182859385A485B5857E
:101B90000196A11DB11D82879387A487B5874389CC
:101BA000548965897689481759076A077B0738F48D
:101BB000838B948BA58BB68B848180688483D801BA
:101BC00014968C9183FD03C081E090E00BC0F80176
:101BD0008581882309F414CFC8010E94810C8111EA
:101BE000F3CF0ECF0F900F900F900F900F90DF91CB
:101BF000CF911F910F91FF90EF90DF90BF90AF902A
:101C00009F908F900895CF93CFB7F8948091BF02A3
:101C1000811127C0E0EAF0E08491E4EBF0E09491D8
:101C2000E82FF0E0EE0FFF1FE858FF4FA591B491A9
:101C3000EC91E92321F461E08AE00E946A0361E00B
:101C40008AE00E949A038CB580618CBD8CB580645B
:101C50008CBD61E08DE00E949A0361E08BE00E9400
:101C60009A038091BF028F5F8093BF02CFBFCF9155
:101C70000895AF92BF92CF92DF92EF92FF920F93AF
:101C80001F93CF93DF9394E1C92E91E0D92E23EBDC
:101C9000A22E22E0B22E37EAE32E32E0F32EC1E08C
:101CA000D0E0F6018081F2E0CF0ED11C0E9441030A
:101CB0008C01F501819391935F01F70180819181FE
:101CC0000817190789F00E9410046093A30270930B
:101CD000A4028093A5029093A6020130110521F47D
:101CE000D0938B03C0938A03F701019311937F0173
:101CF0002196C730D105A9F680918A0390918B0374
:101D0000892B09F475C068E571E08EEB95E00E94BF
:101D1000411280918A0390918B030E94F1116AE62F
:101D200071E08EEB95E00E944112E0918A03F09100
:101D30008B03EE0FFF1FE45DFE4F608171818EEB20
:101D400095E00E942F128EEB95E00E942B122091BD
:101D50008A0330918B038091950390919603281705
:101D60003907D1F46EE671E08EEB95E00E942F12F8
:101D70006BE771E08EEB95E00E942F128EEB95E001
:101D80000E942B1280919703909198030196909353
:101D900098038093970314C060E971E08EEB95E09F
:101DA0000E942F126BE771E08EEB95E00E942F12DC
:101DB0008EEB95E00E942B121092980310929703DD
:101DC00010928B0310928A03109294030E941004C5
:101DD0006093900370939103809392039093930385
:101DE00060938C0370938D0380938E0390938F0385
:101DF000DF91CF911F910F91FF90EF90DF90CF90E7
:101E0000BF90AF900895CF92DF92EF92FF920F9321
:101E10001F93CF93DF936C017A018B01C0E0D0E078
:101E2000CE15DF0589F0D8016D918D01D601ED91B8
:101E3000FC910190F081E02DC6010995892B11F4E8
:101E40007E0102C02196ECCFC701DF91CF911F9197
:101E50000F91FF90EF90DF90CF900895611571057D
:101E600079F0FB0101900020E9F73197AF01461BA3
:101E7000570BDC01ED91FC910280F381E02D099478
:101E800080E090E008950F931F93CF93DF931F920C
:101E9000CDB7DEB7182F062F49830E94660460E095
:101EA00081E10E946A0382E00E949204812F0E94D5
:101EB0009204802F0E9492044981842F0E949204F0
:101EC00061E081E10F90DF91CF911F910F910C9410
:101ED0006A03CF92DF92EF92FF920F931F93CF93FB
:101EE000DF931F92CDB7DEB78C017B01DC01159625
:101EF000CC90CC2011F0C12CCDC080919306909154
:101F00009406F801948F838FAB0125E0440F551F91
:101F10002A95E1F760E070E088E796E00E9470089B
:101F2000882349F380917D06823008F4B3C0409144
:101F3000820650918306609184067091850695E033
:101F400076956795579547959A95D1F7F42FFF7039
:101F5000DF2E41E050E0BE016F5F7F4F88E796E0E3
:101F60000E94090A019719F4898190E002C08FEF5D
:101F70009FEF019609F48EC08091820690918306AE
:101F8000A0918406B09185064F96A11DB11D809346
:101F9000820690938306A0938406B093850680E220
:101FA000D89EF0011124E354FC4F309709F4A3CFDD
:101FB0008081882309F49FCF853E09F49CCF8E321F
:101FC00009F499CF2E2D2F70D80152962C93809121
:101FD000030190910401A0910501B0910601F8015F
:101FE00086879787A08BB18B80E2289FF001112410
:101FF000E354FC4F4489558960E070E0BA015527ED
:102000004427D80157964D935D936D937C935A97CF
:10201000828D938DA0E0B0E0482B592B6A2B7B2B4F
:10202000D80157964D935D936D937C935A97838512
:10203000887159F4848D958DA68DB78DF801838BA9
:10204000948BA58BB68B81E012C0803109F053CF01
:1020500098012D5E3F4FD8015B968D919C915C97C6
:102060000E940708882309F446CF84E0F80185839D
:1020700081E0D80114968C931497F8011682178288
:10208000108611861A961D921D921D921C921D9704
:10209000CC24C3948C2D0F90DF91CF911F910F9181
:1020A000FF90EF90DF90CF9008958F929F92AF9224
:1020B000BF92CF92DF92EF92FF92CF93DF93C82F20
:1020C00083EB96E09093BC038093BB03CC2369F130
:1020D000C53010F080E00DC140E060E070E0CB0161
:1020E0000E949A068823B1F320E1C29FC001112407
:1020F00083559C4FFC01E254FE4F20812F7751F70E
:102100003C9640815181628173814436510561055D
:10211000710500F33497C080D180E280F380C11450
:10212000D104E104F10421F4D5CFC12CD12C7601E6
:1021300040E0C701B6010E949A06882359F28091B7
:10214000C8039091C9038115924021F6A091CD0357
:10215000AA2309F4BFCF6091CB037091CC03611522
:10216000710509F4B7CF2091CA03222309F4B2CF35
:10217000A093A7062093990680E030E0E1E0F0E02C
:10218000C82FAF01082E02C0440F551F0A94E2F772
:102190002417350741F0982F8F5F983089F789E031
:1021A0008093A20697CF8093A2062091D30330910B
:1021B000D4032115310519F040E050E008C020910A
:1021C000E1033091E2034091E3035091E403209353
:1021D0009A0630939B0640939C0650939D064601B9
:1021E0005701860E971EA11CB11C8092A8069092E2
:1021F000A906A092AA06B092AB06E091CE03F09198
:10220000CF03F093AE06E093AD06B0E00E94F71C5A
:10221000860E971EA81EB91E8092AF069092B00639
:10222000A092B106B092B20685E0EE0FFF1F8A952C
:10223000E1F7E150FE4FEF2FFF27E6958E0E9F1E30
:10224000A11CB11C8092A3069092A406A092A506A0
:10225000B092A6062091D0033091D103211531050B
:1022600021F0A90160E070E008C04091DD035091C9
:10227000DE036091DF037091E003D701C601881986
:102280009909AA09BB09840F951FA61FB71F04C08F
:10229000B695A79597958795CA95D2F780939E0690
:1022A00090939F06A093A006B093A106853F2FE0D0
:1022B0009207A105B10510F48CE018C0853F9F4F2F
:1022C000A105B10510F480E111C08091E90390915E
:1022D000EA03A091EB03B091EC038093AF069093D7
:1022E000B006A093B106B093B20680E28093AC062C
:1022F00081E0DF91CF91FF90EF90DF90CF90BF9082
:10230000AF909F908F90089544E068E080E00E9435
:10231000430F8FE00E9441038823D9F347E160EC2B
:1023200087E00E94430F40EF60E086E00E94430F89
:1023300040E460EC87E00E94430F4CE060E086E000
:102340000E94430F8FE00E9441038823D9F3089530
:102350004F925F926F927F92EF92FF920F931F9333
:10236000CF93DF93CDB7DEB7A1970FB6F894DEBF5A
:102370000FBECDBF7C01FA01CB0119A2223008F4B7
:102380002AE08E010F5D1F4F422E512C612C712CC3
:10239000BF01A30192010E940A1DF901CA01015067
:1023A00011096A3014F4605D01C0695CD8016C9356
:1023B000232B242B252B61F7B801C7010E942E0F78
:1023C000A1960FB6F894DEBF0FBECDBFDF91CF91BF
:1023D0001F910F91FF90EF907F906F905F904F90C3
:1023E0000895CF92DF92EF92FF92CF93DF936C012B
:1023F000990FEE08FF08F7FE21C0E091BE05F091AD
:10240000BF050190F081E02D6DE28EEB95E009951E
:10241000EC0144275527BA014C195D096E097F0963
:102420002AE08EEB95E00E94A8118C0F9D1FDF9192
:10243000CF91FF90EF90DF90CF9008952AE0B70101
:10244000A6018EEB95E0DF91CF91FF90EF90DF90AA
:10245000CF900C94A8116EE972E00C942E0F0F939C
:102460001F93CF93DF93EC010E942E0F8C01CE01BE
:102470000E942B12800F911FDF91CF911F910F911E
:1024800008950C942E0FCF93DF93CDB7DEB7CA54C7
:10249000D1090FB6F894DEBF0FBECDBF789484B5D6
:1024A000826084BD84B5816084BD85B5826085BD50
:1024B00085B5816085BD80916E00816080936E00DE
:1024C00010928100809181008260809381008091D0
:1024D0008100816080938100809180008160809381
:1024E00080008091B10084608093B1008091B00041
:1024F00081608093B00080917A00846080937A003C
:1025000080917A00826080937A0080917A00816065
:1025100080937A0080917A00806880937A0010928C
:10252000C100E091CE05F091CF0582E08083E0917B
:10253000CA05F091CB051082E091CC05F091CD0554
:1025400080E180831092D605E091D205F091D30509
:1025500086E08083E091D005F091D1058081806193
:102560008083E091D005F091D105808188608083DF
:10257000E091D005F091D105808180688083E09161
:10258000D005F091D10580818F7D808381E080939B
:10259000FD0261E088E00E949A0360E088E00E940A
:1025A0006A038091FD02811128C060E083E00E94EF
:1025B0009A0360E086E00E949A0360E085E00E9452
:1025C0009A0360E084E00E949A0360E087E00E9442
:1025D0009A0361E083E00E946A0361E086E00E9462
:1025E0006A0361E085E00E946A0361E084E00E9482
:1025F0006A0361E087E00E946A0385E080935303E9
:1026000081E08093540384E690E090935603809396
:10261000550321E030E03093580320935703109284
:10262000590310925B0310925A0310925C0323E04B
:1026300020935E0332E030935F03909361038093B5
:10264000600345E050E050936303409362031092AF
:10265000640310926603109265031092670347E0CB
:102660004093690330936A0390936C0380936B03E8
:1026700043E050E050936E0340936D0310926F035C
:1026800010927103109270031092720336E030932F
:10269000740320937503909377038093760349E046
:1026A00050E0509379034093780310927A0310928C
:1026B0007C0310927B0310927D0334E030937F0300
:1026C00020938003909382038093810387E090E0BE
:1026D0009093840380938303109285031092870361
:1026E00010928603109288030E94030E8CB58C7F93
:1026F00081608CBD8DB58E7F8DBD61E08EE00E94C6
:102700009A0360E08FE00E949A0361E080E10E94FA
:102710009A0361E081E10E949A0361E080E10E94F6
:102720006A0361E081E10E946A0360E08EE00E943A
:102730006A0364E670E080E090E00E94D60361E006
:1027400081E10E946A030E94660461E08EE00E94BB
:102750006A038FE00E9441038823D9F340E060ECD4
:1027600083E00E94430F6FE971E08EEB95E00E94D9
:1027700041120E94660460E081E10E946A0383E0E6
:102780000E94920483E00E9492048FEF0E949204C0
:10279000082F8FEF0E949204402F50E0542F4427BF
:1027A0008A01082B61E081E10E946A03A80160E0D0
:1027B00070E020E18EEB95E00E94A8118EEB95E091
:1027C0000E942B128FE00E9441038823D9F30E94BC
:1027D000841143E160EC87E00E94430F48E268E225
:1027E0008BE00E94430F61E08AE00E949A031092FE
:1027F000BE061092BC061092B9061092B8068AE086
:102800008093B7060E9410048B0161E08091B706A7
:102810000E949A0361E08091B7060E946A030E94B9
:10282000030E82E58093BF061092C0068091BF061A
:102830009091C0060E94D104BAE0FB2E8FEF0E9457
:102840009204FA94F110FACF83EB96E00E94D4043C
:1028500020E030E0A90160E083EB96E00E94EA040A
:10286000F82E8093BD0631E0831749F00E941004D2
:10287000601B710B613D774058F381E056C02AEA36
:1028800031E040E050E068E083EB96E00E94EA042B
:1028900082FF03C0F092BE0610C0A4E0FA2E0E9490
:1028A00099048093BD06FA94F110F9CF8A3A11F099
:1028B00082E03BC082E08093BE068091BE068230FB
:1028C00021F0C12CD12C760105C0C12CD12CE12CDA
:1028D000F0E4FF2E20E030E0A90167E383EB96E00F
:1028E0000E94EA04A701960169E283EB96E00E9448
:1028F000EA048093BD06882349F00E941004601BFF
:10290000710B613D774030F388E00FC08091BE06C7
:10291000823071F520E030E0A9016AE383EB96E0B4
:102920000E94EA048823B1F086E08093B80683EB26
:1029300096E00E94870487ED91E00E946A048CEB88
:1029400091E00E946A0480EA91E00E946A048AE5AC
:1029500091E03BC00E949904807C803C19F483E0A4
:102960008093BE060E9499040E9499040E949904D3
:1029700083EB96E00E94870480E58093BF06109267
:10298000C0068EE491E00E946A048091BE06823007
:1029900039F0833041F0813049F488E491E008C097
:1029A00082E491E005C08BE391E002C081E391E015
:1029B0000E946A0481E00E945510811109C00E94A2
:1029C0005510811105C085EE90E00E946A04BAC0DE
:1029D00082ED90E00E946A044091AC0650E060E015
:1029E00070E02AE08EEB95E00E94A8118EEB95E056
:1029F0000E942B1280917D06811165C08091AC06EA
:102A0000803109F582E080937D0610928F06109246
:102A1000900610929106109292068091AD069091C8
:102A2000AE06A0E0B0E0E5E0880F991FAA1FBB1F2B
:102A3000EA95D1F780938B0690938C06A0938D0630
:102A4000B0938E061DC08032F1F583E080937D0641
:102A50004091AF065091B0066091B1067091B206F8
:102A600040938F0650939006609391067093920660
:102A70002BE836E085E996E00E940708882319F1E3
:102A800085E996E0909394068093930681E0809385
:102A90007C0610927E0610927F061092800610929D
:102AA000810610928206109283061092840610927C
:102AB000850610928606109287061092880610925C
:102AC000890610928A06E0E0F3E01192119253E039
:102AD000E035F507D1F7109250031092510348E208
:102AE00068E28BE00E94430F88E28093F602109226
:102AF000FA021092F90283E090E09093F50280933D
:102B0000F4021092F3021092F2021092800080E11F
:102B10008093810080EA9FE09093870080938600F5
:102B200080918100887F8093810080918100816005
:102B30008093810081E080936F0010928500109255
:102B4000840078941092FA021092F9028091500356
:102B5000882309F492C33AC0853E09F0A9C3809145
:102B60007D06823068F18091820690918306A09163
:102B70008406B09185068F719927AA27BB27892BD8
:102B80008A2B8B2BE9F440E250E0BE016F5F7F4F50
:102B900088E796E00E94090A803209F47BC387FD2A
:102BA0000FC0E8E2EE16F10458F44090820650900F
:102BB0008306609084067090850689818111CCCF50
:102BC0001092510385E492E00E946A0404E111E04E
:102BD000D8018C910E5F1F4F60E00E949A03B1E014
:102BE00000321B07A9F761E089E00E949A0360E0C8
:102BF00089E00E946A0340E060E08BE00E94430F9E
:102C00001092F60211E08091BA03811133C38091D2
:102C100097039091980386309105B4F5880F991F1A
:102C2000FC01E05EFE4F808191819093960380933A
:102C300095038091940381118CC26EE372E08EEB58
:102C400095E00E94411280919503909196030E9415
:102C5000F1116AE671E08EEB95E00E944112E0917D
:102C60009503F0919603EE0FFF1FE45DFE4F608128
:102C700071818EEB95E00E942F128EEB95E00E9401
:102C80002B121093940365C281E08093BA03809164
:102C9000FE028823B1F08091AA039091AB03892BA7
:102CA00029F0E091AA03F091AB0309958091AC0360
:102CB0009091AD03892B29F0E091AC03F091AD0325
:102CC00009958091FF0281110CC0E091F402F0910E
:102CD000F502E830F10508F0CBC1EC5CFF4F0C9435
:102CE000111B00E010E0C801880F991FFC01E65697
:102CF000FC4F7F0180819181892B31F40F5F1F4F41
:102D00000830110581F7E1CF80E00E944103892B53
:102D1000A9F7D701ED91FC91099580E00E9441034C
:102D2000892BD9F3EBCF8091F2029091F3020197B6
:102D300051F483E090E09093F5028093F4021092B6
:102D4000F3021092F20280916006882309F490C188
:102D50008BE596E00E94BD0C8BC1809150038111E0
:102D600093C38EE293E07EC18091F2029091F302D0
:102D7000019751F41092F3021092F20282E090E077
:102D80009093F5028093F4028091F2029091F30205
:102D9000029741F41092F3021092F2021092F5029F
:102DA0001092F4028091F2029091F3020597B9F427
:102DB0001092F3021092F2028091F602863018F41B
:102DC0001092F60203C086508093F6021091F6022C
:102DD000412F612F8BE00E94430F1093F6028091E8
:102DE000F2029091F3020397C9F41092F302109249
:102DF000F2028091F602282F30E0293F310514F0CD
:102E00008EEF01C08A5F8093F6021091F602412F87
:102E1000612F8BE00E94430F1093F6028091F20223
:102E20009091F302079771F51092F3021092F2025B
:102E30008091F9029091FA0260915003019741F458
:102E400070E080E090E00E94ED1A6093510310C0A2
:102E500080915103282F30E070E0615071092617EE
:102E6000370719F41092510303C08F5F8093510309
:102E70008BE596E00E94BD0C83E090E09093F50214
:102E80008093F4028091F2029091F302099739F550
:102E90001092F3021092F2028091F9029091FA02DC
:102EA000019751F46091500370E080E090E00E943F
:102EB000ED1A6093510309C080915103811102C042
:102EC000809150038150809351038BE596E00E94DE
:102ED000BD0C83E090E09093F5028093F402809122
:102EE000F2029091F302089729F51092F3021092E2
:102EF000F20281E08093F1024091650650916606EE
:102F0000609167067091680650586F4F7F4F8091AF
:102F10006E0690916F06A0917006B09171064817E9
:102F200059076A077B0720F48BE596E00E9470083A
:102F30001092F1028091F2029091F3020A9709F047
:102F400097C01092F3021092F20281E08093F10296
:102F5000409165065091660660916706709168061B
:102F60004115F0E85F076105710539F050586109B6
:102F700071098BE596E00E9470081092F10278C00A
:102F80008091F2029091F3028130910509F070C0B6
:102F90001092F3021092F20255C08EEF92E00E945E
:102FA0006A0480916006882321F08BE596E00E94F8
:102FB000BD0C8091F9029091FA028130910551F493
:102FC0006091500370E080E090E00E94ED1A609301
:102FD000510322C0009761F420915103422F50E029
:102FE0008091500390E001974817590791F43CC035
:102FF00082309105A1F420915103422F50E080913D
:10300000500390E001974817590719F410925103A3
:1030100003C02F5F2093510383E090E013C0039718
:1030200039F5FACF80EC92E00E946A041092F50222
:103030001092F4028FEE92E00E946A0410929903BB
:1030400086E090E09093F5028093F40211C088E945
:1030500092E008C08BE596E00E94BD0C0E948411AE
:1030600088EE92E00E946A041092F5021092F40237
:1030700061E089E00E946A036DED71E08EEB95E0FE
:103080000E942F1268EB78E880E090E00E94D6035F
:103090006FE272E08EEB95E00E942F1260E089E013
:1030A0000E946A0364E670E080E090E00E94D6032C
:1030B00061E089E00E946A0364E670E080E090E0ED
:1030C0000E94D60360E089E00E946A0364E670E033
:1030D00080E090E00E94D60361E089E00E946A03EC
:1030E00064E670E080E090E00E94D60360E089E052
:1030F0000E946A0364E670E080E090E00E94D603DC
:1031000061E089E00E946A0364E670E080E090E09C
:103110000E94D60360E089E00E946A0364E670E0E2
:1031200080E090E00E94D60361E089E00E946A039B
:1031300064E670E080E090E00E94D60398E088E1C9
:103140000FB6F894A895809360000FBE909360002E
:10315000FFCF8091970390919803009709F480C066
:1031600007970CF080C00E94100460939003709346
:1031700091038093920390939303C0908C03D0901B
:103180008D03E0908E03F0908F039B01AC012C190E
:103190003D094E095F0969017A012093B603309316
:1031A000B7034093B8035093B9034090B2035090D3
:1031B000B3036090B4037090B503DC01CB018419B4
:1031C0009509A609B7098093AE039093AF03A09326
:1031D000B003B093B10330EAC3163FE0D306E10475
:1031E000F10418F10E94100460939003709391030E
:1031F000809392039093930360938C0370938D0359
:1032000080938E0390938F036AE472E08EEB95E0D7
:103210000E942F12109298031092970310928B0322
:1032200010928A03109294031BC0883E9340A1051C
:10323000B105B0F06FE672E08EEB95E00E944112AE
:103240008091900390919103A0919203B091930388
:103250008093B2039093B303A093B403B093B503E8
:103260000E94390ED0CC63E772E08EEB95E00E94AD
:103270002F12C9CC0E948F02C6CC80E792E00E9438
:103280006A04E12CF12C8EE2982E9CE4A92E91E0A8
:10329000B92E65CC8981882309F492CC853E09F446
:1032A00072CC8E3209F46FCC8C8583FD6CCC24C13A
:1032B0008E3209F454CC8C8583FD51CC8D8D9E8D3E
:1032C000AF8DB8A181159042A105B10508F447CC96
:1032D000FE01319680E090E02191203291F098300B
:1032E00041F4AEE3B0E0AC0FBD1FA80FB11D9C923E
:1032F0008F5FAEE3B0E0AC0FBD1FA80FB11D2C93E4
:103300008F5F9F5F9B3041F7EEE3F0E0EC0FFD1F16
:10331000E80FF11D1082CE01CE960E94CE1C8C01CA
:1033200066EB71E00E942B1B892B59F56BEB71E06A
:10333000C8010E942B1B892B21F560EC71E0C801AC
:103340000E942B1B892BE9F465EC71E0C8010E94F7
:103350002B1B892BB1F46AEC71E0C8010E942B1B76
:10336000892B79F460ED71E0C8010E942B1B892B39
:1033700041F465ED71E0C8010E942B1B892B09F413
:10338000EECBF0E24F1A51086108710875E07694AF
:103390006794579447947A95D1F7C20120915003CE
:1033A0002732C0F5E0E0F3E0A191B191109741F030
:1033B0001D962D913C911E972817390709F43FC09F
:1033C00023E0E035F20781F746C0CE0181960E94E6
:1033D000BD0C8FE090E00E94451B6C01009709F442
:1033E00050C04DE050E0BE01625C7F4F0E941C1B4C
:1033F000D6011E965C924E921D9780915003E82F45
:10340000F0E0EE0FFF1FE050FD4FD182C0828F5FD2
:1034100080935003BFEFEB1AFB0AA70160E070E056
:103420002AE08EEB95E00E94A8118DE692E00E94C2
:103430006A04B8018EEB95E00E942F1290CBBE017A
:10344000625C7F4F8EEB95E00E94411286E292E033
:103450000E946A04DFCF1CA21BA2BAA2A9A21EA2CC
:10346000B201CE0181960E94690F8111AECFBE01DB
:10347000625C7F4F8EEB95E00E94411283E192E007
:10348000E7CF81E092E0E4CF0E9484118091600652
:10349000882321F08BE596E00E94BD0CE09151035A
:1034A000F0E0EE0FFF1FE050FD4F00811181F801A9
:1034B000658576858BE596E00E94690F81110CC0C9
:1034C000B8018EEB95E00E9441128EE193E00E94DC
:1034D0006A0484E090E0B6CD80E193E00E946A0443
:1034E000B8018EEB95E00E94411289E093E00E94C2
:1034F0006A0481E090E0A6CD58E2E516F10408F0F8
:103500005FCB409082065090830660908406709056
:103510008506D1CEEEEBF5E01382128288EE93E0C1
:10352000A0E0B0E084839583A683B7838CE391E029
:103530009183808385EC90E09587848784EC90E08C
:103540009787868780EC90E0918B808B81EC90E070
:10355000938B828B82EC90E0958B848B86EC90E051
:10356000978B868B118E128E138E148EE3EBF6E002
:103570001582168211861386E5E9F6E042E050E0F6
:1035800060E070E04083518362837383178AE8E7C9
:10359000F6E0138212828CE491E09183808315829D
:1035A000EBE5F6E013821282918380831582EFEBC4
:1035B000F6E020E520831182E1ECF6E01582168228
:1035C00011861386448755876687778713A215A6C9
:1035D00014A693A782A717A60895CF93DF9300D0D0
:1035E00000D0CDB7DEB716161706180619067CF4FC
:1035F0009B01AC0169833A834B835C830E94C01CAE
:1036000029813A814B815C810E94D81C03C060E013
:1036100070E0CB010F900F900F900F90DF91CF9142
:103620000895EE0FFF1F0590F491E02D099481E0BD
:1036300090E0F8940C943B1DFB01DC01415050409C
:1036400048F001900D920020C9F701C01D92415031
:103650005040E0F70895FB0151915523A9F0BF01B7
:10366000DC014D9145174111E1F759F4CD0101906D
:10367000002049F04D9140154111C9F3FB01411162
:10368000EFCF81E090E001970895CF93DF938230F0
:10369000910510F482E090E0E0910C07F0910D07A5
:1036A00020E030E0C0E0D0E0309711F1408151815E
:1036B00048175907C0F04817590761F48281938170
:1036C000209719F09B838A832BC090930D078093DA
:1036D0000C0726C02115310519F04217530718F4BD
:1036E0009A01BE01DF01EF010280F381E02DDCCF02
:1036F0002115310509F1281B390B2430310590F4CF
:1037000012968D919C9113976115710521F0FB0123
:103710009383828304C090930D0780930C07FD016F
:10372000329644C0FD01E20FF31F81939193225022
:1037300031092D933C933AC020910A0730910B0731
:10374000232B41F42091090130910A0130930B079A
:1037500020930A07209107013091080121153105B6
:1037600041F42DB73EB740910B0150910C01241B41
:10377000350BE0910A07F0910B07E217F307A0F46D
:103780002E1B3F0B2817390778F0AC014E5F5F4FB7
:103790002417350748F04E0F5F1F50930B074093D7
:1037A0000A078193919302C0E0E0F0E0CF01DF913E
:1037B000CF9108950F931F93CF93DF93009709F450
:1037C0008CC0FC0132971382128200910C07109179
:1037D0000D070115110581F420813181820F931F9E
:1037E00020910A0730910B072817390779F5F093D4
:1037F0000B07E0930A0771C0D80140E050E0AE1714
:10380000BF0750F412962D913C911397AD012115ED
:10381000310509F1D901F3CF9D01DA013383228308
:1038200060817181860F971F8217930769F4EC01FD
:1038300028813981260F371F2E5F3F4F3183208328
:103840008A819B8193838283452B29F4F0930D0712
:10385000E0930C0742C01396FC93EE931297ED0190
:10386000499159919E01240F351FE217F30771F416
:1038700080819181840F951F029611969C938E935F
:103880008281938113969C938E931297E0E0F0E0EF
:10389000D80112968D919C911397009719F0F80119
:1038A0008C01F6CF8D919C9198012E5F3F4F820F36
:1038B000931F20910A0730910B072817390769F4E5
:1038C000309729F410920D0710920C0702C0138252
:1038D000128210930B0700930A07DF91CF911F917B
:1038E0000F9108958F929F92AF92BF92CF92DF92E5
:1038F000EF92FF92CF93DF93EC01688179818A8107
:103900009B81611571058105910521F464E279EDD2
:103910008BE597E02DE133EF41E050E00E94D81CA9
:1039200049015A019B01AC01A7EAB1E40E94F71CCE
:103930006B017C01ACEEB4EFA50194010E94051D62
:10394000DC01CB018C0D9D1DAE1DBF1DB7FF03C05B
:103950000197A109B04888839983AA83BB83BC01DE
:10396000CD019F77DF91CF91FF90EF90DF90CF90C7
:10397000BF90AF909F908F9008950E94721C089501
:103980008DE091E00E94721C089560930D01709388
:103990000E0180930F01909310010895DC016C914A
:1039A00061566A3108F0605E6F5B6D93C1F70895F0
:1039B000052E97FB1EF400940E94EF1C57FD07D0C4
:1039C0000E940A1D07FC03D04EF40C94EF1C509586
:1039D0004095309521953F4F4F4F5F4F08959095FB
:1039E0008095709561957F4F8F4F9F4F08950E94EE
:1039F0002C1DA59F900DB49F900DA49F800D911D2F
:103A000011240895B7FF0C94F71C0E94F71C821B29
:103A1000930B0895A1E21A2EAA1BBB1BFD010DC03A
:103A2000AA1FBB1FEE1FFF1FA217B307E407F5076E
:103A300020F0A21BB30BE40BF50B661F771F881F4A
:103A4000991F1A9469F760957095809590959B01E0
:103A5000AC01BD01CF010895A29FB001B39FC00189
:103A6000A39F700D811D1124911DB29F700D811DAA
:0A3A70001124911D0895F894FFCF72
:103A7A00013200FFFFFFFF00000E07800001000077
:103A8A00000006000200030004000500060007000B
:103A9A0005000400030002000100020095029802DA
:103AAA009A029C02D301BE01000000002602030F05
:103ABA00EF01CD01E1016D0200000000CF0C030F00
:103ACA0000000000E702030F596F752050726573FA
:103ADA00736564204B6579202300202D20005B202C
:103AEA00436F727265637421205D002D2D2D2D2D7B
:103AFA002D2D2D2D2D2D2D2D2D2D2D2D2D2D2D0019
:103B0A005B20496E636F727265637421205D000DDC
:103B1A000A56533130787820436C6F636B204672B3
:103B2A00713A203078002E4D5033002E574D410007
:103B3A002E574156002E414343002E4D4944490019
:103B4A002E4F4747002E564F5242495300596F7520
:103B5A0020776F6E2069742120596F75206765740C
:103B6A002061206E696365206D65737361676520E6
:103B7A007669612074686520596F75576F6E2046A3
:103B8A00756E6374696F6E2120796F75576F6E4910
:103B9A00742069732074727565206E6F77210052E4
:103BAA006573657474696E67206E6F772100507251
:103BBA00657373206B6579202300746F6F20736CB3
:103BCA006F772E206261636B20746F2074686520A2
:103BDA00737461727420666F7220796F752E00207B
:103BEA00202E00486F6F7261792120596F752073FA
:103BFA006F6C7665642069742120536F20636C654D
:103C0A0076657221004323004400450046000D0AF0
:023C1A000000A8
:107E0000112484B714BE81FFF0D085E080938100F7
:107E100082E08093C00088E18093C10086E0809377
:107E2000C20080E18093C4008EE0C9D0259A86E02C
:107E300020E33CEF91E0309385002093840096BBD3
:107E4000B09BFECF1D9AA8958150A9F7CC24DD24C4
:107E500088248394B5E0AB2EA1E19A2EF3E0BF2EE7
:107E6000A2D0813461F49FD0082FAFD0023811F036
:107E7000013811F484E001C083E08DD089C08234E0
:107E800011F484E103C0853419F485E0A6D080C0E4
:107E9000853579F488D0E82EFF2485D0082F10E0AE
:107EA000102F00270E291F29000F111F8ED06801E7
:107EB0006FC0863521F484E090D080E0DECF843638
:107EC00009F040C070D06FD0082F6DD080E0C81688
:107ED00080E7D80618F4F601B7BEE895C0E0D1E017
:107EE00062D089930C17E1F7F0E0CF16F0E7DF06D8
:107EF00018F0F601B7BEE89568D007B600FCFDCFD4
:107F0000A601A0E0B1E02C9130E011968C91119780
:107F100090E0982F8827822B932B1296FA010C0160
:107F200087BEE89511244E5F5F4FF1E0A038BF0790
:107F300051F7F601A7BEE89507B600FCFDCF97BE46
:107F4000E89526C08437B1F42ED02DD0F82E2BD052
:107F50003CD0F601EF2C8F010F5F1F4F84911BD097
:107F6000EA94F801C1F70894C11CD11CFA94CF0C13
:107F7000D11C0EC0853739F428D08EE10CD085E9AC
:107F80000AD08FE07ACF813511F488E018D01DD067
:107F900080E101D065CF982F8091C00085FFFCCF94
:107FA0009093C60008958091C00087FFFCCF809118
:107FB000C00084FD01C0A8958091C6000895E0E648
:107FC000F0E098E1908380830895EDDF803219F02E
:107FD00088E0F5DFFFCF84E1DECF1F93182FE3DFCA
:107FE0001150E9F7F2DF1F91089580E0E8DFEE27F6
:047FF000FF270994CA
:027FFE00040479
:0400000300007E007B
:00000001FF