:100000000C94A6010C94CE010C94CE010C94CE015C
:100010000C94CE010C94CE010C94CE010C94CE0124
:100020000C94CE010C94CE010C94CE010C94CE0114
:100030000C94CE010C9450180C94CE010C94CE016B
:100040000C94DD1A0C94CE010C94D11D0C94031E5B
:100050000C94CE010C94CE010C94CE010C94CE01E4
:100060000C94CE010C94CE01AB15D115CE16C8154B
:10007000DB162A1739173F174F6E6C79204D45470D
:10008000413235363020626F6172642063616E20C8
:10009000646F207265636F7264696E672E0D0A006B
:1000A0004F6E6C79204D4547413235363020626FB6
:1000B0006172642063616E20646F207265636F7289
:1000C00064696E672E0D0A0072756E206F7574205C
:1000D0006F662072616D2E0D0A002063616E7420C0
:1000E0006265206F70656E65642E0D0A0020616C7C
:1000F00072656164792065786973747320696E2014
:10010000706C61796C6973742E0D0A002D2D2D2D84
:100110002D2D2D2D2D2D2D2D2D2D2D2D2D2D2D2D0F
:100120002D2D2D2D2D2D2D2D2D2D2D2D2D2D2D2DFF
:100130002D0D0A002E20002D2D2D2D20736F6E67A2
:100140007320696E20544620636172642028726FA8
:100150006F742064697229202D2D2D2D0D0A0073D6
:10016000746F700D0A005265636F7264696E672E5A
:100170002E2E0D0A00205B646F6E655D2E0D0A0049
:10018000202E2E2E0D0A00506C6179696E67207347
:100190006F6E672000206F70656E206661696C6508
:1001A000642E0D0A00506C61796C69737420697358
:1001B00020656D7074792E0D0A00566F6C756D6533
:1001C00020747970652069732046415400436F752F
:1001D0006C64206E6F742066696E642046415431F1
:1001E000362F464154333220706172746974696FDE
:1001F0006E2E0A4D616B65207375726520796F757F
:1002000027766520666F726D61747465642074680A
:100210006520636172640D0A00556E6B6E6F776EB8
:100220000D0A00534448430D0A005344320D0A009E
:100230005344310D0A004361726420747970653A49
:1002400020002A2064696420796F75206368616EDC
:10025000676520746865206368697053656C6563C1
:10026000742070696E20746F206D617463682079EA
:100270006F757220736869656C64206F72206D6F92
:1002800064756C653F0D0A002A20497320796F75EB
:100290007220776972696E6720636F72726563742A
:1002A0003F0D0A002A206973206120636172642077
:1002B000697320696E7365727465643F0D0A006925
:1002C0006E697469616C697A6174696F6E206661C8
:1002D000696C65642E205468696E677320746F20A2
:1002E000636865636B3A0D0A0000000008000201B4
:1002F00000000304070000000000000000010204E9
:100300000810204080010204081020010204081097
:10031000200404040404040404020202020202038E
:10032000030303030300000000230026002900004C
:10033000000000250028002B0000000000240027FA
:10034000002A000012045707B918331E11241FBEDB
:10035000CFEFD8E0DEBFCDBF13E0A0E0B1E0ECE529
:10036000F4E402C005900D92AC36B107D9F728E04D
:10037000ACE6B3E001C01D92AA31B207E1F713E089
:10038000CCE4D3E004C02297FE010E944F20C43485
:10039000D107C9F70E94771E0C942C220C94000000
:1003A000CF93DF9340ED57E060E070E089E397E0A2
:1003B0000E94441A20E032EC41E050E069E777E027
:1003C00089E397E00E94571A89E397E00E94411A57
:1003D0006DE271E080916A0790916B070E94C41EE4
:1003E0006AE070E080E090E00E94561B41E060E02F
:1003F00089E397E00E94C21A26E040E052EC61E0F7
:1004000070E089E797E00E946F1D81E080936706A6
:1004100080E696E00E94BD12109264061092630678
:1004200080E696E00E94BF14C8E3D2E0888122965D
:1004300060E00E94F41B82E0C434D807B9F7DF9172
:10044000CF9108950E94271B6093700370937103EE
:100450008093720390937303609374037093750396
:10046000809376039093770308950F931F930E94D0
:10047000271B6093700370937103809372039093B2
:1004800073030091740310917503209176033091EA
:100490007703DC01CB01801B910BA20BB30B809384
:1004A0006C0390936D03A0936E03B0936F03803140
:1004B00027E29207A105B10598F00E9422026FE39E
:1004C00071E089E797E00E94D11E10929903109283
:1004D000980310927F0310927E0310927D030DC04B
:1004E000883E9340A105B10540F064E671E089E7DC
:1004F00097E01F910F910C94C41E1F910F910895C6
:1005000081E080937C0380E696E00E94931768E682
:1005100071E089E797E00C94D11ECF93DF9386308A
:10052000910544F4FC01EE0FFF1FEA5EFE4FC0810F
:10053000D18102C00E948002CE01DF91CF91089547
:100540004F925F926F927F92AF92BF92CF92DF9263
:10055000EF92FF920F931F93CF93DF9328E3C22E66
:1005600022E0D22ECCE8D3E030E8E32E33E0F32EC5
:1005700001E010E0F6018081F2E0CF0ED11C0E9474
:10058000631C5E0199838883F70120813181821782
:10059000930769F10E94271B609378037093790396
:1005A00080937A0390937B030E94271B40907803EB
:1005B0005090790360907A0370907B0364197509F9
:1005C00086099709409022015090230160902401F0
:1005D00070902501461657066806790640F4888112
:1005E0009981019721F410937F0300937E03229653
:1005F000F50180819181F701819391937F010F5FD4
:100600001F4F0730110509F0B5CFDF91CF911F9132
:100610000F91FF90EF90DF90CF90BF90AF907F90C1
:100620006F905F904F9008950E94A00280917E038A
:1006300090917F03892B09F469C06AEB71E089E727
:1006400097E00E94C41E60917E0370917F034AE090
:1006500050E089E797E00E947C1F6CEC71E089E72D
:1006600097E00E94C41EE0917E03F0917F03EE0F9D
:10067000FF1FE65FFE4F6081718189E797E00E946E
:10068000D11E89E797E00E94CD1E20917E03309114
:100690007F0380919A0390919B0328173907D1F427
:1006A00060ED71E089E797E00E94D11E6DED71E089
:1006B00089E797E00E94D11E89E797E00E94CD1E4E
:1006C0008091980390919903019690939903809358
:1006D000980314C062EF71E089E797E00E94D11E91
:1006E0006DED71E089E797E00E94D11E89E797E000
:1006F0000E94CD1E109299031092980310927F03CE
:1007000010927E0310927D030C9422020895CF93E1
:10071000C1E080917C0381114DC08091980390913C
:1007200099030E948D0290939B0380939A0380917A
:100730007D0381112AC061E072E089E797E00E94A1
:10074000C41E60919A0370919B034AE050E089E7D0
:1007500097E00E947C1F6CEC71E089E797E00E94B3
:10076000C41EE0919A03F0919B03EE0FFF1FE65F1A
:10077000FE4F6081718189E797E00E94D11E89E771
:1007800097E00E94CD1EC0937D03809198039091C5
:100790009903009761F007971CF40E94350207C087
:1007A0006DE072E089E797E00E94D11EB2CF0E940F
:1007B0001403AFCFCF910895CF93CFB7F894809122
:1007C0009F03811127C0EBE1F3E08491E7E0F3E0C0
:1007D0009491E82FF0E0EE0FFF1FE75CFC4FA5912E
:1007E000B4918C91892321F461E08AE00E942D1C50
:1007F00061E08AE00E94F41B8CB580618CBD8CB5F1
:1008000080648CBD61E08DE00E94F41B61E08BE0B0
:100810000E94F41B80919F038F5F80939F03CFBF43
:10082000CF9108951092A5031092A6031092A903E8
:100830001092AB0382E090E0A0E0B0E08093AC03C4
:100840009093AD03A093AE03B093AF031092C30394
:100850001092CD031092CC0388E492E09093CB03E6
:100860008093CA031092CF0308959FB7F894209104
:100870009E0380919C03213019F48DBB9FBF089586
:100880008FBF089520919E03222399F03FB7F894DB
:1008900020919E03213059F42DB320939C034DB336
:1008A00020919D03209524232DBB3FBF02C0309390
:1008B0009C038CBD9DBD08958EBD00000DB407FE48
:1008C000FDCF8EB508958FEF0C945C0461E0FC01C0
:1008D00084810E942D1C8091E903882339F01092B5
:1008E000E90380919E0381110C9435040895CF9300
:1008F000DF93EC018091E903811109C081E08093CD
:10090000E9038091EA039091EB030E94420460E0C6
:100910008C81DF91CF910C942D1CCF93DF93EC0150
:100920008E81882389F08F8198859C012F5F3F4FAE
:1009300038872F838230924018F40E946304F3CFEB
:10094000CE010E9466041E82DF91CF910895673028
:1009500028F026E1FC01258380E00895623081F0D3
:1009600030F4662359F06130B1F480E515C064308D
:1009700059F040F0653079F482E50EC080E505C09D
:1009800081E503C081E508C082E58093EA0381E048
:100990008093EB03089583E58093EA031092EB03C1
:1009A00081E008950F931F93CF93DF93EB010E9493
:1009B000271B8B010E9463048F3F49F00E94271B75
:1009C000601B710B6C177D07A8F380E001C081E00C
:1009D000DF91CF911F910F910895CF92DF92FF92F7
:1009E0000F931F93CF93DF9300D000D0CDB7DEB726
:1009F0006C01F62E29833A834B835C830E948D041D
:100A0000C6010E9477046CE271E0C6010E94D20424
:100A10008F2D80640E945C0408E110E05C814B81B2
:100A20003A812981DA01C901002E04C0B695A79543
:100A3000979587950A94D2F729833A834B835C83F1
:100A40000E945C040850110929813A814B815C8124
:100A5000083F8FEF180731F7FF2029F0E8E0FE1676
:100A600021F08FEF03C085E901C087E80E945C0494
:100A700010E00E946304F601828787FF04C01F3FD5
:100A800011F01F5FF6CF0F900F900F900F90DF9136
:100A9000CF911F910F91FF90DF90CF900895BF925B
:100AA000CF92DF92EF92FF920F931F93CF93DF933A
:100AB000EC01B62E1B8619861E821D824C830E9475
:100AC000271B8B0161E08C810E94F41B61E08C810B
:100AD0000E942D1C0E94DC0382E58093EA031092A1
:100AE000EB038091EA039091EB030E9442042AE019
:100AF000F22E8FEF0E945C04FA94D9F780919E0346
:100B000081110E943504CE010E94770420E030E07C
:100B1000A90160E0CE010E94ED04F82E8A8781E0F1
:100B2000F81649F00E94271B601B710B613D77404E
:100B300068F381E04BC02AEA31E040E050E068E031
:100B4000CE010E94ED0482FF02C0FB860DC094E03E
:100B5000F92E0E9463048A87FA94D9F78A3A11F031
:100B600082E034C082E08B878B85823031F4C12CE7
:100B7000D12CE12C80E4F82E03C0C12CD12C7601BD
:100B800020E030E0A90167E3CE010E94ED04A70157
:100B9000960169E2CE010E94ED048A87882349F01C
:100BA0000E94271B601B710B613D774048F388E072
:100BB0000DC08B85823031F520E030E0A9016AE379
:100BC000CE010E94ED04882381F086E08D83CE0162
:100BD0000E94660480E0DF91CF911F910F91FF90FA
:100BE000EF90DF90CF90BF9008950E946304807CC7
:100BF000803C11F483E08B870E9463040E946304AD
:100C00000E946304CE010E9466046B2DCE01DF9129
:100C1000CF911F910F91FF90EF90DF90CF90BF90F9
:100C20000C94A7040F931F93CF93DF93EC010E94C2
:100C3000271B8B010E9463048A878F3F49F40E941F
:100C4000271B601B710B6D327140A0F38FE003C056
:100C50008E3F39F08DE08D83CE010E94660480E0E6
:100C600001C081E0DF91CF911F910F910895CF9244
:100C7000DF92EF92FF920F931F93CF93DF93EC01DC
:100C800069010115110509F462C0C801820F931FA3
:100C90008130924008F05DC08E81882371F0888198
:100CA0009981AA81BB81481759076A077B0729F4F4
:100CB0008F819885C816D90610F5488359836A83B1
:100CC0007B838B85833039F039E0440F551F661FD5
:100CD000771F3A95D1F79A01AB0161E1CE010E94ED
:100CE000ED04882319F083E08D8333C0CE010E9488
:100CF0001206882371F118861F8281E08E838F810E
:100D000098858C159D0540F40E9463048F81988519
:100D1000019698878F83F3CF6701E00EF11ECE1402
:100D2000DF0431F00E946304F60181936F01F7CF75
:100D30008F819885800F911F98878F832985222323
:100D400019F08115924018F0CE010E948D0481E0C7
:100D500004C0CE010E94660480E0DF91CF911F9114
:100D60000F91FF90EF90DF90CF900895EF92FF9258
:100D70000F931F93790100E012E020E030E00E9421
:100D800037061F910F91FF90EF900895CF92DF9259
:100D9000EF92FF920F931F93CF93DF9300D0CDB7C5
:100DA000DEB78C01862F49835A830E945C044981F7
:100DB000C42E5A81D52EE12CF12CF60181916F01C0
:100DC0000E945C04FFEFEF1AFF0AE11482E0F806CC
:100DD000A1F78FEF0E945C048FEF0E945C040E94D9
:100DE0006304F80182878F71853039F081E1858352
:100DF000C8010E94660480E001C081E00F900F905E
:100E0000DF91CF911F910F91FF90EF90DF90CF90E6
:100E100008950F931F93CF93DF93EC018901411540
:100E200051056105710511F482E132C08B85833073
:100E300039F089E0440F551F661F771F8A95D1F757
:100E40009A01AB0168E1CE010E94ED04882311F004
:100E500084E01EC0A8016EEFCE010E94C606882362
:100E6000C1F068E572E0CE010E94D204811102C097
:100E700085E10EC020E030E0A9016DE0CE010E94C6
:100E8000ED04811104C00E946304882339F084E1D9
:100E90008D83CE010E94660480E004C0CE010E94D2
:100EA000660481E0DF91CF911F910F91089580E555
:100EB0008093EA031092EB030895CF93DF93EC0144
:100EC0009C012A5F3F4F41E050E060E070E08B8D75
:100ED0009C8D0E94A80F8823A1F04F89588D698DA1
:100EE0007A8D452B462B472B71F44E815F816885A7
:100EF00079854F8B588F698F7A8F8C8180688C832E
:100F000002C080E001C081E0DF91CF910895CF93CE
:100F1000DF93EC01462F6E857F85888999890E9431
:100F2000DD0D882341F08A8920E2829FC0011124CF
:100F30008B509C4F02C080E090E0DF91CF910895EC
:100F400030E020E04EE2DC015C91503271F038304C
:100F500029F4FB01E20FF11D40832F5FFB01E20F3B
:100F6000F11DDC015C9150832F5F3F5F01963B30A8
:100F700051F7FB01E20FF11D108208950F931F93AB
:100F8000CF93DF93EC018B018D81882311F080E0FA
:100F900040C0FB0187898031B1F482E08D831F8AD4
:100FA000188E198E1A8E408D518D60E070E095E09C
:100FB000440F551F661F771F9A95D1F74B8B5C8B9B
:100FC0006D8B7E8B15C0803211F783E08D83FB0122
:100FD000428D538D648D758D4F8B588F698F7A8FAD
:100FE0009E012D5E3F4FC8010E949C0E882379F21E
:100FF0001C8F0B8F81E08C831E821F8218861986BE
:101000001A861B861C861D861E861F86188A198ACC
:101010001A8ADF91CF911F910F9108952F923F92DD
:101020004F925F926F927F928F929F92AF92BF92F8
:10103000CF92DF92EF92FF920F931F93CF93DF93A4
:10104000EC016B015A018D81811103C08FEF9FEF7D
:10105000DAC08C8180FFFACF4B895C896D897E89EB
:101060008A859B85AC85BD852501612C712C8A0103
:101070009B01081B190B2A0B3B0B041515052605B4
:10108000370518F45A01A81AB90A25011E0126E0ED
:10109000220E311C4114510409F47BC04A855B8542
:1010A0006C857D854A0181E09822ED818A019B0152
:1010B000F9E03695279517950795FA95D1F78B8D19
:1010C0009C8DE23051F4FC01628D738D848D958D81
:1010D000600F711F821F931F3EC0FC0174807A94C1
:1010E000702281149104C9F4711017C0452B462B4E
:1010F000472B49F48F89988DA98DBA8D8E839F8354
:10110000A887B9870AC04E815F816885798591017A
:101110000E94180E882309F499CFEB8DFC8D6E8107
:101120007F818885998562507109810991090584BB
:1011300004C0660F771F881F991F0A94D2F706858F
:10114000178520893189600F711F821F931F670DDA
:10115000711D811D911D20E032E0281939093201ED
:101160002415350508F439012C8126FD04C06114CD
:10117000F2E07F06A1F50091260110912701209150
:10118000280130912901601771078207930719F42C
:1011900026C0C50138C0760183019401AB01BC01B2
:1011A0008091F3039091F4030E943706882309F499
:1011B0004DCFC60CD71C04C0E81BF90BCE0EDF1EAA
:1011C0008A859B85AC85BD85860D971DA11DB11DAA
:1011D0008A879B87AC87BD87461857085BCF40E05E
:1011E0000E94DD0D882309F431CFC4018B509C4F40
:1011F000D6019C01260D371DFC01E217F307E1F231
:1012000041914D93FACFDF91CF911F910F91FF90B4
:10121000EF90DF90CF90BF90AF909F908F907F9096
:101220006F905F904F903F902F9008950F931F9372
:10123000CF93DF93EC018B018D81823010F48FEF1F
:1012400024C04A855B856C857D854F71552766274F
:101250007727452B462B472B91F740E250E0B8010A
:10126000CE010E940E08803269F4F8018081882343
:1012700059F0853E91F38E3281F3838583FDEDCF66
:1012800080E203C087FDDBCF80E0DF91CF911F912B
:101290000F910895FF920F931F93CF93DF931F92A7
:1012A000CDB7DEB78C01FC018581823018F480E077
:1012B00090E034C0F8014285538564857585A5E0CA
:1012C0007695679557954795AA95D1F7F42FFF70B6
:1012D000FF2E41E050E0BE016F5F7F4FC8010E94CA
:1012E0000E08019719F4298130E002C02FEF3FEF7B
:1012F0002F3F3F4FE1F2F8014285538564857585A4
:10130000415E5F4F6F4F7F4F42875387648775877A
:10131000F0E2FF9EC00111248B509C4F0F90DF9193
:10132000CF911F910F91FF9008954F925F926F920E
:101330007F92AF92BF92CF92DF92EF92FF920F9384
:101340001F93CF93DF93EC016A017B012D81222350
:1013500009F457C08B899C89AD89BE89841795078C
:10136000A607B70708F44DC04EC08A859B85AC859B
:10137000BD85EB8DFC8DE585F0E03996AC01BD01B6
:1013800041505109610971090E2E04C07695679587
:10139000579547950A94D2F7970186010150110994
:1013A0002109310904C03695279517950795EA95C7
:1013B000D2F70417150726073707B0F58F89988DE0
:1013C000A98DBA8D8E839F83A887B987280139019B
:1013D0005E0186E0A80EB11C411451046104710441
:1013E00061F14E815F816885798595018B8D9C8D3A
:1013F0000E94180E91E0491A510861087108811184
:10140000EBCF80E01FC02230C1F0C114D104E10451
:10141000F10409F0AACF1E821F82188619861A8647
:101420001B861C861D860DC0892B8A2B8B2B31F2C7
:10143000041B150B260B370BC9CFCA86DB86EC863F
:10144000FD8681E0DF91CF911F910F91FF90EF908A
:10145000DF90CF90BF90AF907F906F905F904F9054
:1014600008950F931F93CF93DF93EC018D81882311
:10147000C9F18C8187FF30C061E0CE010E948707EF
:101480008C01009779F18D81823048F44B895C8919
:101490006D897E89F801448F558F668F778F4F89CC
:1014A000588D698D7A8DF801538F428F758B648BBF
:1014B000E091EC03F091ED03309759F0B8016A5ECA
:1014C0007F4FC80148960995F801808D918D938BC7
:1014D000828B8C818F778C83DF91CF911F910F91BD
:1014E0000C94A20D80E0DF91CF911F910F91089590
:1014F000CF93DF93EC010E94310A882319F01D82FB
:1015000081E001C080E0DF91CF9108954F925F921A
:101510006F927F92AF92BF92CF92DF92EF92FF9243
:101520000F931F93CF93DF9300D000D0CDB7DEB7DA
:101530005C016A017B01FC0185818130F1F48481C9
:1015400081FF1BC0F50183899489A589B689841719
:101550009507A607B70788F0892B8A2B8B2B09F4F0
:1015600079C0F5014284538464847584B701A6016F
:10157000C5010E949509811102C080E06CC0F5018F
:10158000838D948DC114D104E104F10471F4478971
:10159000508D618D728D0E94BD10882371F3F5010D
:1015A000178A108E118E128E3AC0F501468157812E
:1015B000608571859E012F5F3F4F0E94180E882322
:1015C000E1F249815A816B817C81F501838D948D93
:1015D000FC012789203129F408EF1FEF20E030E0DB
:1015E00004C008EF1FEF2FEF3FE0401751076207DD
:1015F0007307A8F40E94BD10882309F4BECFF5013B
:1016000046815781608571850FEF1FEF2FEF3FE017
:10161000838D948D0E94070F882309F4AECFF501C6
:10162000C38AD48AE58AF68A848180688483C50166
:101630000E94310A882309F4A0CFB701A6014C14F7
:101640005D046E047F0410F4B301A201C5010E9481
:10165000950901C081E00F900F900F900F90DF91DE
:10166000CF911F910F91FF90EF90DF90CF90BF909F
:10167000AF907F906F905F904F900895FF920F937F
:101680001F93CF93DF93EC01F42E80E2689FF0016B
:101690001124EB50FC4F8385817129F0842F8274D3
:1016A00011F080E053C06A8B809126019091270150
:1016B000A0912801B09129018E879F87A88BB98BB3
:1016C0004489558960E070E0BA0155274427028DAE
:1016D000138D20E030E0402B512B622B732B4F8B6E
:1016E000588F698F7A8F8385887151F4048D158D99
:1016F000268D378D0B8B1C8B2D8B3E8B81E00CC088
:10170000803179F69E012D5E3F4F8B8D9C8D0E941E
:101710009C0E882331F284E08D838F2D8F708C8313
:101720001E821F82188619861A861B861C861D86B5
:10173000F6FE0BC040E050E0BA01CE01DF91CF9140
:101740001F910F91FF900C94860A81E0DF91CF9159
:101750001F910F91FF900895DF92EF92FF920F93E8
:101760001F93CF93DF93EC018B017A01D22E8D81F1
:1017700081112FC0822F8073803359F1FB01838D3B
:10178000948D9C8F8B8F65E0440F551F6A95E1F710
:1017900060E070E0C8010E9495098823D1F0C8017B
:1017A0000E944A090097A9F0FC018081882389F0F2
:1017B000853E79F08E3269F06E2D6F704D2DCE0121
:1017C000DF91CF911F910F91FF90EF90DF900C94DC
:1017D0003E0B80E0DF91CF911F910F91FF90EF9032
:1017E000DF9008952F923F924F925F926F927F9277
:1017F0008F929F92AF92BF92CF92DF92EF92FF9221
:101800000F931F93CF93DF9300D000D01F92CDB7DB
:10181000DEB78C017B013A01DC0115968C9115979E
:101820008130C9F414968C9181FF15C082FF1BC0D2
:10183000F801438954896589768982859385A485D1
:10184000B58584179507A607B70769F0C8010E94F8
:101850009509811108C081E090E0F80193838283AB
:1018600080E090E046C1630180C0D8015B968D9115
:101870009C915C97FC01F481F150B501A40129E031
:1018800076956795579547952A95D1F7F423FD836B
:1018900021E09222FF2309F474C080E092E08819CD
:1018A000990956018C159D0508F45C01D8015B96D9
:1018B000ED91FC915C9716962D903D904D905C902B
:1018C0001997B2E02B1A310841085108058404C069
:1018D000220C331C441C551C0A94D2F7868597852C
:1018E000A089B189280E391E4A1E5B1EED812E0E7D
:1018F000311C411C511CA114F2E0BF0609F088C044
:101900008091260190912701A0912801B091290191
:1019100082159305A405B50559F48FEF9FEFDC01FF
:101920008093260190932701A0932801B093290169
:101930009701B201A1018091F3039091F4030E94F9
:101940000907882309F487CF9EEFF91ACA18DB0824
:10195000F80182859385A485B5858A0D9B1DA11DFF
:10196000B11D82879387A487B587D8011A968D9079
:101970009D90AD90BC901D97C114D10409F075CF16
:101980008AC08114910409F088CF16964D915D911B
:101990006D917C911997411551056105710559F4B7
:1019A00057968D919D910D90BC91A02D0097A1050A
:1019B000B10541F521C09E012F5F3F4F0E94180ED7
:1019C000882309F44ECF89819A81AB81BC81F801CB
:1019D000238D348DF9012789203129F448EF5FEFF9
:1019E00060E070E004C048EF5FEF6FEF7FE08417C6
:1019F0009507A607B70730F0C8010E945D0781115F
:101A00004CCF29CFF80186839783A087B18745CF34
:101A10008114910429F5D8011A964D915D916D912B
:101A20007C911D9753968D919D910D90BC91A02D09
:101A3000481759076A077B0798F00E94A20D882370
:101A400009F409CF20922601309227014092280103
:101A5000509229018091F20381608093F20308C0C3
:101A600041E0C201B1010E94DD0D882309F4F3CEEB
:101A7000C4018B509C4FD7019C012A0D3B1DFC01DA
:101A8000E217F30719F04D914193FACFE81BF90BD8
:101A9000EE0EFF1E5BCF53968D919D910D90BC91E4
:101AA000A02DF801248188159905AA05BB0538F4F5
:101AB000838A948AA58AB68A206824830CC0809180
:101AC000EC039091ED03892B31F06114710419F04E
:101AD0002068F8012483D80114968C9183FD02C0FC
:101AE000C30107C0C8010E94310A882309F4B3CE9C
:101AF000F7CF0F900F900F900F900F90DF91CF9135
:101B00001F910F91FF90EF90DF90CF90BF90AF901B
:101B10009F908F907F906F905F904F903F902F900D
:101B20000895CF93DF931F92CDB7DEB7698341E06D
:101B300050E0BE016F5F7F4F0E94F20B0F90DF916C
:101B4000CF9108958091F203882399F14091260165
:101B500050912701609128017091290125EF33E010
:101B60008091F3039091F4030E940907882319F1EF
:101B70004091EE035091EF036091F0037091F103F7
:101B8000411551056105710591F025EF33E0809114
:101B9000F3039091F4030E940907882361F01092E7
:101BA000EE031092EF031092F0031092F1031092E3
:101BB000F20381E0089580E00895CF92DF92EF92E2
:101BC000FF92CF936B017C01C42F809126019091ED
:101BD0002701A0912801B09129018C159D05AE0522
:101BE000BF05D1F00E94A20D811102C080E01AC091
:101BF00025EF33E0B701A6018091F3039091F40340
:101C00000E94B606882391F3C0922601D092270144
:101C1000E0922801F09229018091F2038C2B8093AD
:101C2000F20381E0CF91FF90EF90DF90CF90089585
:101C30008F929F92AF92BF92CF92DF92EF92FF92DC
:101C40000F931F93CF93DF938C016A017B01E9010E
:101C5000FC0181859285A385B4850196A11DB11DE6
:101C600084179507A607B70710F480E058C0F8015D
:101C700043895489658976898789803129F4BB270E
:101C8000AF2D9E2D8D2D09C0D701C60127E0B69539
:101C9000A795979587952A95D1F74C015D01840EFC
:101CA000951EA61EB71EC501B40180902601909016
:101CB0002701A0902801B0902901681579058A05AF
:101CC0009B0589F4F8018789803199F4DD24EE249D
:101CD000FF24F601EE0FFF1FEB50FC4F8081918136
:101CE000A0E0B0E017C040E00E94DD0D8111EACF16
:101CF000BCCFE894C7F8DD24EE24FF24F601EE0FF4
:101D0000FF1FEE0FFF1FEB50FC4F80819181A281DE
:101D1000B381BF7088839983AA83BB8381E0DF91FD
:101D2000CF911F910F91FF90EF90DF90CF90BF90D8
:101D3000AF909F908F9008954F925F926F927F9295
:101D4000AF92BF92CF92DF92EF92FF920F931F93C9
:101D5000CF93DF9300D000D0CDB7DEB78C0149839D
:101D60005A836B837C835901C12CD12C7601412C81
:101D700042E0542E612C712C49815A816B817C8107
:101D80009E012F5F3F4FC8010E94180E882359F112
:101D9000D301C201F801058404C0880F991FAA1F4E
:101DA000BB1F0A94D2F7C80ED91EEA1EFB1E49813A
:101DB0005A816B817C818789803129F488EF9FEF7C
:101DC000A0E0B0E004C088EF9FEFAFEFBFE048179E
:101DD00059076A077B0780F2F501C082D182E2824F
:101DE000F38281E001C080E00F900F900F900F9080
:101DF000DF91CF911F910F91FF90EF90DF90CF90E7
:101E0000BF90AF907F906F905F904F9008954F92EA
:101E10005F926F927F928F929F92AF92BF92CF927A
:101E2000DF92EF92FF920F931F93CF93DF93EC011A
:101E30006A017B01280139014230510561057105B4
:101E400008F474C049855A856B857C854F5F5F4F68
:101E50006F4F7F4F4C155D056E057F0508F466C01A
:101E60008B889C88AD88BE888F89803129F477273C
:101E70006F2D5E2D4D2D09C0B701A601E7E07695C7
:101E8000679557954795EA95D1F7840E951EA61E3E
:101E9000B71E409126015091270160912801709151
:101EA000290184169506A606B70671F48F8980313C
:101EB00099F4DD24EE24FF24F601EE0FFF1FEB5012
:101EC000FC4F5182408218C040E0C501B4010E941D
:101ED000DD0D8111EBCF2AC0E894C7F8DD24EE2494
:101EE000FF24F601EE0FFF1FEE0FFF1FEB50FC4F1C
:101EF00040825182628273828091F203816080937A
:101F0000F2038A89823080F08D819E81AF81B8850D
:101F1000880D991DAA1DBB1D8093EE039093EF03BE
:101F2000A093F003B093F10381E001C080E0DF9162
:101F3000CF911F910F91FF90EF90DF90CF90BF90C6
:101F4000AF909F908F907F906F905F904F9008958B
:101F50002F923F924F925F926F927F929F92AF9299
:101F6000BF92CF92DF92EF92FF920F931F93CF9386
:101F7000DF93CDB7DEB760970FB6F894DEBF0FBE24
:101F8000CDBF5C014D875E876F87788B1901D901C2
:101F90004D905D906D907C904114510461047104EA
:101FA00031F0BFEF4B1A5B0A6B0A7B0A10C0FC01D1
:101FB0004080518062807380992493940D851E85A2
:101FC0002F853889013011052105310509F0912C43
:101FD000D50119962D913D914D915C911C972F5FE4
:101FE0003F4F4F4F5F4F29873A874B875C8773017D
:101FF00062011D821E821F821886F50181859285ED
:10200000A385B4850D811E812F8138850817190796
:102010002A073B0708F056C029853A854B855C8521
:102020002C153D054E055F0550F4A2E0CA2ED12CBB
:10203000E12CF12CB2E04B2E512C612C712C9E0125
:102040002F5F3F4FB701A601C5010E94180E8823DC
:10205000C9F149815A816B817C81D701C601019602
:10206000A11DB11D452B462B472B19F02C013D011D
:102070000FC0AC01BD0144195509660977090D85EA
:102080001E852F853889401751076207730779F03D
:102090002D813E814F8158852F5F3F4F4F4F5F4FBE
:1020A0002D833E834F8358876C017D01A6CF0FEFB0
:1020B0001FEF2FEF3FE0B701A601C5010E94070FF8
:1020C000811118C080E041C0D701C6010197A10964
:1020D000B1098D839E83AF83B88797018601AC01D8
:1020E000BD01C5010E94070F882361F3CD80DE800A
:1020F000EF80F8844C145D046E047F0428F3D10152
:102100004D915D916D917C91411551056105710570
:1021100099F4F10140825182628273829920A1F088
:10212000FFEF4F1A5F0A6F0A7F0AD5014D925D9249
:102130006D927C92139708C093018201C5010E94A1
:10214000070F8111E6CFBECF81E060960FB6F894FD
:10215000DEBF0FBECDBFDF91CF911F910F91FF90DA
:10216000EF90DF90CF90BF90AF909F907F906F9057
:102170005F904F903F902F900895AF92BF92CF9273
:10218000DF92EF92FF920F931F93CF93DF9300D0D4
:1021900000D0CDB7DEB75C016A017B0182E090E040
:1021A000A0E0B0E0F50180839183A283B3839E0118
:1021B0002F5F3F4FB701A601C5010E94180E88236B
:1021C00011F100E010E09801B701A601C5010E94DD
:1021D000070F8823C1F0C980DA80EB80FC80F5010D
:1021E0008789803129F488EF9FEFA0E0B0E004C038
:1021F00088EF9FEFAFEFBFE0C816D906EA06FB06EF
:10220000B0F281E001C080E00F900F900F900F902E
:10221000DF91CF911F910F91FF90EF90DF90CF90C2
:10222000BF90AF9008958F929F92AF92BF92CF923E
:10223000DF92EF92FF920F931F93CF93DF93EC0106
:10224000142F7093F4036093F303442341F145305A
:1022500010F080E0EFC040E060E070E0CB010E9451
:10226000DD0D8823B1F320E1129FF0011124ED551B
:10227000FA4F80818F7769F784859585A685B78524
:1022800084369105A105B10520F3C084D184E28490
:10229000F384C114D104E104F10421F4DACFC12C98
:1022A000D12C760140E0C701B6010E94DD0D8823E4
:1022B00081F280910004909101048115924049F6C9
:1022C00030910504332329F2809103049091040492
:1022D000892B09F4BECF20910204222309F4B9CF3F
:1022E0003A8B2C831D8630E041E050E06D85062F4F
:1022F000CA01062E02C0880F991F0A94E2F7281718
:10230000390731F081E0860F8D87683078F3A1CFEF
:1023100020910B0430910C042115310519F040E097
:1023200050E008C02091190430911A0440911B0418
:1023300050911C042D833E834F8358878091030462
:102340009091040446015701880E991EA11CB11CEE
:102350008B8A9C8AAD8ABE8AE0910604F0910704BC
:10236000F98FE88FA0910504B0E00E945320680D1A
:10237000791D8A1D9B1D6A8F7B8F8C8F9D8F15E029
:10238000EE0FFF1F1A95E1F7E150FE4FEF2FFF27E9
:10239000E695DC01CB018E0F9F1FA11DB11D8E871D
:1023A0009F87A88BB98B80900804909009048114B2
:1023B000910419F0A12CB12C08C0809015049090C4
:1023C0001604A0901704B0901804A7019601281BCA
:1023D000390B4A0B5B0BDA01C901880D991DAA1D47
:1023E000BB1D04C0B695A795979587950A95D2F71A
:1023F00089879A87AB87BC87853F3FE09307A10514
:10240000B10510F48CE014C0853F9F4FA105B105C4
:1024100010F480E10DC08091210490912204A091DC
:102420002304B09124048A8F9B8FAC8FBD8F80E2F0
:102430008F8B81E0DF91CF911F910F91FF90EF90F3
:10244000DF90CF90BF90AF909F908F90089561E004
:1024500088E00E94F41B60E088E00C942D1C60E092
:1024600083E00E94F41B60E086E00E94F41B60E0C1
:1024700085E00E94F41B60E084E00E94F41B60E0B1
:1024800087E00E94F41B61E083E00E942D1C61E064
:1024900086E00E942D1C61E085E00E942D1C61E019
:1024A00084E00E942D1C61E087E00C942D1CCF93EA
:1024B000DF93FC016491EC012196662331F089E7FA
:1024C00097E00E94C61ECE01F4CFDF91CF91089510
:1024D00010928000E1E8F0E080E1808380EA9FE0F4
:1024E00090938700809386008081887F808380819D
:1024F0008160808381E080936F001092850010924C
:102500008400789408951F93CF93DF93EC01588152
:10251000611106C0541710F4188210C0541B0DC06E
:10252000252F30E08EEF90E0841B910982179307EE
:102530001CF48EEF888302C0540F58831881412FFA
:10254000612F88E397E00E94A6191883DF91CF914D
:102550001F91089520E030E0FC01E20FF31F138685
:1025600012862E5F3F4F20353105B1F7FC01E65A48
:10257000FF4F1082319610820895CF93DF93EC01C4
:102580000E9427128F81811102C00E942F1285E0C4
:10259000FE01E35AFF4F808381E0818384E690E06F
:1025A0009383828321E030E0358324831682108672
:1025B0001782118643E03B96408352E05183938318
:1025C000828325E030E035832483168210861782CB
:1025D000118627E03B96208351839383828323E0F7
:1025E00030E035832483168210861782118626E018
:1025F0003B96208341839383828329E030E03583B7
:102600002483168210861782118624E03B9620834D
:1026100041839383828387E090E09583848316824D
:1026200010861782118688E397E00E94F31961E013
:102630008AE00E94F41B4AE061E084E596E00E9493
:102640004F0581110FC08FEB92E00E94571284EA70
:1026500092E00E94571288E892E00E94571282E4AA
:1026600092E02DC086E392E00E94571280915F06AF
:10267000823039F0833041F0813049F480E392E0D8
:1026800008C08AE292E005C083E292E002C089E1DC
:1026900092E00E94571241E064E576E086E396E01E
:1026A0000E94131181110FC040E064E576E086E3DB
:1026B00096E00E941311811106C08DEC91E0DF912C
:1026C000CF910C9457128AEB91E00E9457124AE086
:1026D00050E060914D0689E797E00E94981F66E3FD
:1026E00076E089E196E00E94BE07CE010E94AA1220
:1026F00048E268E288E397E00E94A61988E28883AE
:102700001C821B8283E090E09093FB058093FA0586
:102710001092F9051092F805CE01DF91CF910C943B
:1027200068128091140790911507892B29F0E09188
:102730001407F091150709958091160790911707D6
:10274000892B29F0E0911607F09117070994089555
:10275000CF92DF92EF92FF920F931F93CF93DF936D
:1027600008E117E040E2E42E47E0F42EC0E0D0E0BC
:102770006E01CC0CDD1CC601885D984F6C01DC013C
:102780008D919C91892B91F421960F5F1F4FBFEF84
:10279000EB1AFB0AC830D10559F7DF91CF911F9191
:1027A0000F91FF90EF90DF90CF900895F801808116
:1027B0000E94631CD7012C91332727FD3095821787
:1027C000930711F7D601ED91FC910995F8018081ED
:1027D0000E94631CD7012C91332727FD3095821767
:1027E0009307A1F3D1CF8091FA059091FB05823038
:1027F000910511F461E003C0892B21F460E088E0C9
:102800000C942D1C80912A0190912B01019790939B
:102810002B0180932A01892BC1F482E390E09093ED
:102820002B0180932A0180912C01813039F461E0E1
:1028300088E00E942D1C10922C01089560E088E031
:102840000E942D1C81E080932C01089520E030E04F
:10285000FC01E20FF31F0284F385E02D309729F08D
:10286000458556854617570739F02E5F3F4F20356F
:10287000310571F780E0089581E008958F929F926D
:10288000AF92BF92CF92DF92EF92FF920F931F937E
:10289000CF93DF93CDB7DEB76D970FB6F894DEBF59
:1028A0000FBECDBF6C015B014A017C018AE5E80ED9
:1028B000F11CF7018081873208F04DC0C6010E94EB
:1028C0002614882351F0B40189E797E00E94C41EC2
:1028D0008DEE90E00E94571238C01C821B8288E463
:1028E00092E09A8389831E8221E0A50169E176E066
:1028F000CE0101960E94AC0B811108C0B40189E79A
:1029000097E00E94C41E8AED90E023C0CE0101969C
:102910000E94780A8FE090E00E946D208C01009761
:10292000B1F04DE050E0B4010E94F121F801B6860B
:10293000A586F7018081F601E80FF11DE80FF11D72
:10294000138702878F5FF701808381E005C088ECE1
:1029500090E00E94571280E06D960FB6F894DEBFAB
:102960000FBECDBFDF91CF911F910F91FF90EF90E0
:10297000DF90CF90BF90AF909F908F9008958F92EF
:102980009F92AF92BF92CF92DF92EF92FF920F93FE
:102990001F93CF93DF93CDB7DEB7AD970FB6F89403
:1029A000DEBF0FBECDBF6C01FC01E65AFF4F808138
:1029B00081119BC087E391E00E945712E12CF12C1A
:1029C000BE016F5F7F4F89E196E00E94160987FD87
:1029D00004C028E2E216F10448F0F601E55AFF4F80
:1029E00010828CE091E00E9457127FC080902306F5
:1029F00090902406A0902506B09026068981882311
:102A000061F3853EE9F28E32D9F28C8583FDD8CF11
:102A10008D8D9E8DAF8DB8A181159042A105B10518
:102A200078F2BE016F5D7F4FCE0101960E94A00734
:102A3000CE0181960E941A228C0169E572E00E9403
:102A40000022892B59F56EE572E0C8010E94002230
:102A5000892B21F563E672E0C8010E940022892BD0
:102A6000E9F468E672E0C8010E940022892BB1F403
:102A70006DE672E0C8010E940022892B79F463E7B9
:102A800072E0C8010E940022892B41F468E772E0DD
:102A9000C8010E940022892B09F492CFC501B4011C
:102AA000605271098109910955E09695879577954E
:102AB00067955A95D1F7AE014F5D5F4FC6010E94F1
:102AC0003E148FEFE81AF80A4AE050E0B70189E7B0
:102AD00097E00E94AF1F84E391E00E945712B80173
:102AE00089E797E00E94D11E6BCFAD960FB6F894A0
:102AF000DEBF0FBECDBFDF91CF911F910F91FF9031
:102B0000EF90DF90CF90BF90AF909F908F900895FF
:102B100080EA90E00E9457121092FB051092FA058D
:102B2000089588E790E00E9457121092FB051092DA
:102B3000FA0508950F931F93CF93DF93EC01E09173
:102B4000FA05F091FB05E830F10508F0E7C1EC5C0F
:102B5000FF4F0C944D208091F8059091F905019755
:102B600051F483E090E09093FB058093FA05109276
:102B7000F9051092F80580910106882309F4CEC169
:102B80008CEF95E0DF91CF911F910F910C94780A13
:102B9000FC01E65AFF4F8081811182C185EA91E0F4
:102BA00078C18091F8059091F905019751F4109240
:102BB000F9051092F80582E090E09093FB05809370
:102BC000FA058091F8059091F905029741F4109269
:102BD000F9051092F8051092FB051092FA05809104
:102BE000F8059091F905059749F41092F9051092AE
:102BF000F80546E060E0CE010E9483128091F8055E
:102C00009091F905039749F41092F9051092F8058F
:102C100046E061E0CE010E9483128091F805909118
:102C2000F905079799F51092F9051092F8058B812F
:102C30009C81FE01E65AFF4F8E01055A1F4F0197F6
:102C400061F4208130E040E050E060E070E0CB01D2
:102C50000E94EF1FD8016C930FC0D8014C91242F14
:102C600030E0808190E001972817390711F41C9219
:102C700003C04F5FF80140838CEF95E00E94780A13
:102C800083E090E09093FB058093FA058091F8052E
:102C90009091F905099779F51092F9051092F805C8
:102CA0008B819C818E01055A1F4F019771F4C65A82
:102CB000DF4F288130E040E050E060E070E0CB0181
:102CC0000E94EF1FD8016C930CC0F8018081811124
:102CD00006C0C65ADF4F88818150808302C0815070
:102CE00080838CEF95E00E94780A83E090E09093D7
:102CF000FB058093FA058091F8059091F9050897F6
:102D000029F51092F9051092F80581E08093F505F8
:102D100040910606509107066091080670910906D9
:102D200050586F4F7F4F80910F0690911006A091E1
:102D30001106B0911206481759076A077B0720F45D
:102D40008CEF95E00E9495091092F5058091F805A9
:102D50009091F9050A9709F0E1C01092F9051092D7
:102D6000F80581E08093F5058091060690910706AD
:102D7000A0910806B09109068115E0E89E07A1051B
:102D8000B10549F0AC01BD015058610971098CEFE2
:102D900095E00E9495091092F505C0C08091F80554
:102DA0009091F9058130910509F0B8C01092F905AC
:102DB0001092F80559C085E791E00E945712809162
:102DC0000106882321F08CEF95E00E94780A8B8120
:102DD0009C818130910581F4FE01E65AFF4F2081EC
:102DE00030E040E050E060E070E0CB010E94EF1F77
:102DF000C55ADF4F688326C0009779F4FE01E55A73
:102E0000FF4F4081242F30E0C65ADF4F888190E089
:102E1000019728173907A1F43EC082309105A9F423
:102E2000FE01E55AFF4F4081242F30E0C65ADF4FA4
:102E3000888190E001972817390711F4108202C0A9
:102E40004F5F408383E090E00FC08330910509F02D
:102E500065C00AC00E94881586E691E00E9457125C
:102E60001092F60586E090E09093FB058093FA05BA
:102E700055C0DF91CF911F910F910C9491158CEF5C
:102E800095E00E94780A88E397E00E9479198FE51F
:102E900091E00E9457121092FB051092FA053EC075
:102EA00088E397E00E94791980910106882321F038
:102EB0008CEF95E00E94780AFE01E55AFF4F808171
:102EC000C80FD11DC80FD11D0A84DB85C02D4D85CB
:102ED0005E8521E069E176E08CEF95E00E94AC0B25
:102EE00081110CC0BE0189E797E00E94C41E85E9EC
:102EF00091E00E94571284E090E0B6CF87E891E01D
:102F00000E945712BE0189E797E00E94C41E80E824
:102F100091E00E94571281E090E0A6CFDF91CF911F
:102F20001F910F910895CF93DF93EC01888588233B
:102F300019F0CE010E9491138985882319F0CE01E2
:102F40000E94A813CE01DF91CF910C949A15CF93D4
:102F5000DF93EC018E81813071F018F08230A1F0A6
:102F600052C088810E94631C892B11F481E08E83FA
:102F700019861A8648C088810E94631C892B09F033
:102F800041C082E08E833FC088810E94631C3981EA
:102F9000892B21F529852F5F2987323079F430E09C
:102FA0008A819B8196958795969587958217930739
:102FB00050F581E090E098878F830EC0333019F58B
:102FC00030E08A819B8182179307E8F482E090E0E9
:102FD00098878F8381E08A87198615C0313051F434
:102FE000298530E08A819B818217930718F482E05B
:102FF00090E005C08A85811104C081E090E0988747
:103000008F8319861E82DF91CF910895FC018781FD
:1030100090858130910529F41086178284819581ED
:103020000895029731F41086178284819581019664
:1030300008958FEF9FEF0895EF92FF920F931F93E4
:10304000CF93DF93C0E0D0E0835A9F4F7C0187018C
:103050000C0F1D1FC8010E94A717C8010E94061867
:1030600097FD05C09093F9058093F80504C02B9651
:10307000C733D10561F7DF91CF911F910F91FF9079
:10308000EF900895CF93DF93EC018F81811103C0FE
:10309000CE010E941C18CE01DF91CF910C94F31346
:1030A0001F920F920FB60F9211242F933F934F93BD
:1030B0005F936F937F938F939F93AF93BF93CF93C0
:1030C000EF93FF938FE00E94631C019771F480914E
:1030D000FA059091FB05019741F480910106882340
:1030E00021F08091F505882371F08091F7058F5FBD
:1030F0008093F705843158F180E696E00E944218EB
:103100001092F70524C040E250E064EF76E08CEFC7
:1031100095E00E940E08C82F482F64EF76E088E300
:1031200097E00E943619C03268F628E040E060E07F
:1031300088E397E00E94101988E397E00E94031A41
:1031400084E090E09093FB058093FA05CECFFF9149
:10315000EF91CF91BF91AF919F918F917F916F919F
:103160005F914F913F912F910F900FBE0F901F9045
:1031700018951092590610925A0610925D061092F8
:103180005F0682E090E0A0E0B0E080933606909386
:103190003706A0933806B093390610924D06109268
:1031A0001C0610921B0688E492E090931A06809306
:1031B000190610921E061092FF051092FE059093BC
:1031C000FD058093FC0510920106089561E080E101
:1031D0000C942D1C2CB5982F93702C7F922B9CBD9A
:1031E0009DB582FB882780F99E7F982B9DBD089511
:1031F00061E08EE00E94F41B60E08FE00E94F41B0F
:1032000061E080E10E94F41B61E081E10E94F41B17
:1032100061E080E10E942D1C61E081E10C942D1C95
:103220001F93CF93DF9300D0CDB7DEB7162F2A833D
:1032300049830E94E61860E081E10E942D1C82E033
:103240000E945C04812F0E945C044981842F0E94AB
:103250005C042A81822F0E945C0461E081E10F906E
:103260000F90DF91CF911F910C942D1CFF920F9323
:103270001F93CF93DF93162FF72E042F60E080E18A
:103280000E942D1C8FE00E94631C8823D9F3C12F5C
:10329000DF2D100F1C1721F089910E945C04FACFDA
:1032A000DF91CF911F910F91FF900C94E618CF936F
:1032B000DF93C62F0E94E61860E081E10E942D1C7A
:1032C00083E00E945C048C2F0E945C048FEF0E94BC
:1032D0005C04C82F8FEF0E945C04D0E0DC2FCC2769
:1032E000C82B61E081E10E942D1CCE01DF91CF91BE
:1032F0000895CF93DF93EC0124E048E060E00E9462
:1033000010198FE00E94631C8823D9F327E140EC59
:1033100067E0CE010E94101920EF40E066E0CE0188
:103320000E94101920E440EC67E0CE010E941019C1
:103330002CE040E066E0CE010E9410198FE00E9470
:10334000631C8823D9F3DF91CF910895242F462F52
:103350006BE00C941019CF93DF93EC0160E08EE0EA
:103360000E942D1C64E670E080E090E00E94561BF5
:1033700061E081E10E942D1C0E94E61861E08EE070
:103380000E942D1C8FE00E94631C8823D9F320E04B
:1033900040EC63E0CE010E9410196AEC72E089E70C
:1033A00097E00E94C41E63E0CE010E94571940E1DD
:1033B00050E0BC0189E797E00E94B51F8FE00E94B2
:1033C000631C8823D9F3CE010E94791923E140ECD4
:1033D00067E0CE010E94101948E268E2CE01DF9159
:1033E000CF910C94A619CF93DF93EC010E94DC03DC
:1033F00081E00E94EA18CE010E94F818CE01DF9108
:10340000CF910C94AB19CF93DF9360E080E10E94E1
:103410002D1CC0E0D8E08FE00E94631C8823D9F304
:1034200080E00E945C042197B1F7DF91CF910C946A
:10343000E6180F931F93CF93DF93EC01662359F0A7
:103440000E94271B69837A838B839C83DF91CF91B2
:103450001F910F9108950E94271B09811A812B81CA
:103460003C81601B710B820B930B623371058105EC
:10347000910530F763E070E080E090E00E94561B19
:10348000EACF60E00C94191AFC0113AA14AA15AA39
:1034900016AA118212821382148241155105610508
:1034A000710521F0CB01BA010C94561B0895FB0164
:1034B000BA01A901DC01D296FC93EE93D19726E0E4
:1034C000CF010C946F1D1F93CF93DF93EC01162F48
:1034D00067EF72E089A99AA90E94C41E4AE050E0F1
:1034E000612F89A99AA90E94911F6EEF72E089A9A4
:1034F0009AA90E94C41E62E370E080E090E0DF9130
:10350000CF911F910C94561B1F93CF93DF93EC0127
:10351000162F8D81882389F189A99AA9DC01ED9163
:10352000FC910480F581E02D0995892BA9F307C052
:103530002637310519F12835310509F41D8289A98D
:103540009AA9DC01ED91FC910480F581E02D0995AB
:103550001816190694F489A99AA9DC01ED91FC9139
:103560000680F781E02D09959C013327233631052C
:10357000F9F6612FCE010E94631A83E6DF91CF91A5
:103580001F9108950F931F93CF93DF931F92CDB791
:10359000DEB78C01662349F081E0F801858360E0A5
:1035A000C80149830E94841A4981F80145830F901C
:1035B000DF91CF911F910F9108951F920F920FB637
:1035C0000F9211242F933F938F939F93AF93BF93A9
:1035D0008091710790917207A0917307B091740761
:1035E0003091700723E0230F2D3720F40196A11DA1
:1035F000B11D05C026E8230F0296A11DB11D209321
:1036000070078093710790937207A0937307B0932C
:1036100074078091750790917607A0917707B09114
:1036200078070196A11DB11D8093750790937607C9
:10363000A0937707B0937807BF91AF919F918F9137
:103640003F912F910F900FBE0F901F9018952FB79D
:10365000F89460917107709172078091730790914F
:1036600074072FBF08953FB7F89480917507909124
:103670007607A0917707B091780726B5A89B05C07B
:103680002F3F19F00196A11DB11D3FBF6627782F6E
:10369000892F9A2F620F711D811D911D42E0660FC7
:1036A000771F881F991F4A95D1F708958F929F928F
:1036B000AF92BF92CF92DF92EF92FF926B017C01AB
:1036C0000E94331B4B015C01C114D104E104F104DD
:1036D000F1F00E940B200E94331B681979098A09B6
:1036E0009B09683E73408105910570F321E0C21A81
:1036F000D108E108F10888EE880E83E0981EA11C2D
:10370000B11CC114D104E104F10429F7DDCFFF900D
:10371000EF90DF90CF90BF90AF909F908F900895E3
:10372000789484B5826084BD84B5816084BD85B59C
:10373000826085BD85B5816085BDEEE6F0E0808163
:1037400081608083E1E8F0E0108280818260808384
:10375000808181608083E0E8F0E080818160808307
:10376000E1EBF0E0808184608083E0EBF0E0808139
:1037700081608083EAE7F0E08081846080838081DB
:103780008260808380818160808380818068808383
:103790001092C1000895833081F028F4813099F0AF
:1037A0008230A1F008958730A9F08830B9F08430D4
:1037B000D1F4809180008F7D03C0809180008F774D
:1037C00080938000089584B58F7702C084B58F7D83
:1037D00084BD08958091B0008F7703C08091B000C0
:1037E0008F7D8093B0000895CF93DF9390E0FC012C
:1037F000E350FD4F2491FC01EF5EFC4F8491882340
:1038000049F190E0880F991FFC01E75CFC4FA591FE
:10381000B491815D9C4FFC01C591D4919FB761111A
:1038200008C0F8948C91209582238C938881822300
:103830000AC0623051F4F8948C91322F3095832372
:103840008C938881822B888304C0F8948C91822B7E
:103850008C939FBFDF91CF9108950F931F93CF93C8
:10386000DF931F92CDB7DEB7282F30E0F901E75183
:10387000FD4F8491F901E350FD4F1491F901EF5E82
:10388000FC4F04910023C9F0882321F069830E9432
:10389000CB1B6981E02FF0E0EE0FFF1FE15DFC4FD5
:1038A000A591B4919FB7F8948C91611103C01095C4
:1038B000812301C0812B8C939FBF0F90DF91CF910B
:1038C0001F910F910895CF93DF93282F30E0F901D6
:1038D000E751FD4F8491F901E350FD4FD491F90177
:1038E000EF5EFC4FC491CC2391F081110E94CB1B61
:1038F000EC2FF0E0EE0FFF1FEB5DFC4FA591B491B4
:103900002C912D2381E090E021F480E002C080E042
:1039100090E0DF91CF910895FC01818D228D90E0A0
:10392000805C9F4F821B91098F7399270895FC013A
:10393000918D828D981731F0828DE80FF11D858D64
:1039400090E008958FEF9FEF0895FC01918D828D97
:10395000981761F0828DDF01A80FB11D5D968C91E3
:10396000928D9F5F9F73928F90E008958FEF9FEFEE
:10397000089589E29EE1892B49F080E090E0892B4F
:1039800029F00E94291E81110C9400000895FC0169
:10399000848DDF01A80FB11DA35ABF4F2C91848DD8
:1039A00090E001968F739927848FA689B7892C930D
:1039B000A089B1898C9180648C93938D848D9813A8
:1039C00006C00288F389E02D80818F7D8083089571
:1039D000CF93DF93EC01888D8823C9F0EA89FB89B6
:1039E000808185FD05C0A889B9898C9186FD0FC0AD
:1039F0000FB607FCF5CF808185FFF2CFA889B98982
:103A00008C9185FFEDCFCE010E94C71CE7CFDF91DF
:103A1000CF910895CF92DF92FF920F931F93CF9390
:103A2000DF931F92CDB7DEB76C0181E0D6015896C7
:103A30008C9358975B969C915B975C968C915C9766
:103A4000981307C05096ED91FC915197808185FDA8
:103A50002EC0F601038D10E00F5F1F4F0F7311276B
:103A6000F02EF601848DF81211C00FB607FCF9CFC5
:103A7000D6015096ED91FC915197808185FFF1CF51
:103A8000C60169830E94C71C6981EBCF838DE80F53
:103A9000F11DE35AFF4F6083D6015B960C935B9751
:103AA0005296ED91FC915397808180620CC0D601B3
:103AB0005696ED91FC91579760835096ED91FC914D
:103AC000519780818064808381E090E00F90DF9146
:103AD000CF911F910F91FF90DF90CF900895BF92EB
:103AE000CF92DF92EF92FF92CF93DF93EC016A01C6
:103AF0007B01B22EE889F98982E08083411581EE4D
:103B0000580761057105A1F060E079E08DE390E070
:103B1000A70196010E940C20215031094109510949
:103B20005695479537952795211580E1380798F0E8
:103B3000E889F989108260E874E88EE190E0A701D5
:103B400096010E940C2021503109410951095695D6
:103B5000479537952795EC85FD853083EE85FF8564
:103B60002083188EEC89FD89B082EA89FB898081E7
:103B700080618083EA89FB89808188608083EA890B
:103B8000FB89808180688083EA89FB8980818F7DC1
:103B90008083DF91CF91FF90EF90DF90CF90BF9027
:103BA00008951F920F920FB60F9211242F938F93A7
:103BB0009F93EF93FF93E0918907F0918A078081AB
:103BC000E0918F07F091900782FD12C09081809163
:103BD00092078F5F8F7320919307821751F0E091C6
:103BE0009207F0E0E758F84F958F8093920701C055
:103BF0008081FF91EF919F918F912F910F900FBE38
:103C00000F901F9018951F920F920FB60F921124CC
:103C10002F933F934F935F936F937F938F939F93D4
:103C2000AF93BF93EF93FF9389E797E00E94C71C80
:103C3000FF91EF91BF91AF919F918F917F916F9184
:103C40005F914F913F912F910F900FBE0F901F905A
:103C5000189589E797E00E948C1C21E0892B09F4D4
:103C600020E0822F089510927C0710927B0788EE47
:103C700093E0A0E0B0E080937D0790937E07A0934F
:103C80007F07B093800783E593E090937A07809352
:103C9000790785EC90E0909386078093850784EC04
:103CA00090E0909388078093870780EC90E0909352
:103CB0008A078093890781EC90E090938C0780932A
:103CC0008B0782EC90E090938E0780938D0786ECB3
:103CD00090E09093900780938F0710929207109234
:103CE00093071092940710929507089508950E94E3
:103CF000901B0E94761E0E94D001C9EBDCE10E945D
:103D000087032097E1F30E94B91CF9CFCF92DF928D
:103D1000EF92FF920F931F93CF93DF937C016A0181
:103D2000EB0100E010E00C151D0571F06991D70161
:103D3000ED91FC910190F081E02DC7010995892B4F
:103D400019F00F5F1F4FEFCFC801DF91CF911F9187
:103D50000F91FF90EF90DF90CF900895611571055E
:103D600081F0DB010D900020E9F7AD0141505109D0
:103D7000461B570BDC01ED91FC910280F381E02D95
:103D8000099480E090E008950C94AE1EDC01ED9162
:103D9000FC910190F081E02D099464EF72E00C94A5
:103DA000AE1E0F931F93CF93DF93EC010E94AE1EC4
:103DB0008C01CE010E94CD1E800F911FDF91CF910B
:103DC0001F910F9108958F929F92AF92BF92DF92B1
:103DD000EF92FF920F931F93CF93DF93CDB7DEB790
:103DE000A1970FB6F894DEBF0FBECDBF7C01F42FB4
:103DF000D52ECB0119A2223008F42AE08E010F5DE6
:103E00001F4F822E912CA12CB12C6F2F7D2DA5013F
:103E100094010E940C20F22FD32ECA0101501109E7
:103E20006A3014F4E0E301C0E7E3E60FD801EC9355
:103E3000232B242B252B49F7B801C7010E94AE1E66
:103E4000A1960FB6F894DEBF0FBECDBFDF91CF9124
:103E50001F910F91FF90EF90DF90BF90AF909F90D8
:103E60008F900895CF92DF92EF92FF920F931F935E
:103E7000CF93DF93EC016A017B012115310579F4C1
:103E8000E881F9810190F081E02D642FDF91CF91DD
:103E90001F910F91FF90EF90DF90CF9009942A30FF
:103EA0003105E9F477FF1AC06DE20E94C61E8C014D
:103EB00044275527BA014C195D096E097F092AE08C
:103EC000CE010E94E31E800F911FDF91CF911F91C1
:103ED0000F91FF90EF90DF90CF9008952AE0B70107
:103EE000A601CE01DF91CF911F910F91FF90EF902E
:103EF000DF90CF900C94E31E9A01AB01662757FD2B
:103F00006095762F0C94321F2115310541F4DC01A8
:103F1000ED91FC910190F081E02D642F09940C94B7
:103F2000E31E9A01462F50E060E070E00C94841F7D
:103F30000F931F93CF93DF93EC019A01462F50E02C
:103F400060E070E00E94841F8C01CE010E94CD1EB3
:103F5000800F911FDF91CF911F910F9108959A01CA
:103F6000AB0160E070E00C94841F0F931F93CF931C
:103F7000DF93EC019A01AB0160E070E00E94841FC6
:103F80008C01CE010E94CD1E800F911FDF91CF9139
:103F90001F910F910895CF93DF9300D000D0CDB73C
:103FA000DEB79B01AC01611571058105910569F0D2
:103FB00069833A834B835C830E94E32129813A81A0
:103FC0004B815C810E942E2003C060E070E0CB0139
:103FD0000F900F900F900F90DF91CF910895CF9297
:103FE000DF92EF92FF926B017C01621773078407E7
:103FF000950764F4CA01B9016C197D098E099F09FE
:104000000E94CB1F6C0D7D1D8E1D9F1DFF90EF909C
:10401000DF90CF9008950895A1E21A2EAA1BBB1B32
:10402000FD010DC0AA1FBB1FEE1FFF1FA217B30784
:10403000E407F50720F0A21BB30BE40BF50B661F9A
:10404000771F881F991F1A9469F76095709580955E
:1040500090959B01AC01BD01CF010895052E97FB02
:104060001EF400940E94452057FD07D00E940C20AA
:1040700007FC03D04EF40C944520509540953095A4
:1040800021953F4F4F4F5F4F0895909580957095C4
:1040900061957F4F8F4F9F4F0895EE0FFF1F059043
:1040A000F491E02D09940E945E20A59F900DB49F8D
:1040B000900DA49F800D911D11240895A29FB00121
:1040C000B39FC001A39F700D811D1124911DB29F4C
:1040D000700D811D1124911D0895CF93DF938230BF
:1040E000910510F482E090E0E0911808F091190831
:1040F00020E030E0A0E0B0E0309739F1408151811C
:1041000048175907B8F04817590771F4828193810D
:10411000109729F013969C938E9312972CC090932E
:1041200019088093180827C02115310531F042176E
:10413000530718F0A901DB0101C0EF019A01BD018D
:10414000DF010280F381E02DD7CF21153105F9F091
:10415000281B390B2430310580F48A819B8161153D
:10416000710521F0FB019383828304C090931908A9
:1041700080931808FE01329644C0FE01E20FF31F3F
:104180008193919322503109398328833AC0209139
:10419000160830911708232B41F420910201309129
:1041A00003013093170820931608209100013091E5
:1041B00001012115310541F42DB73EB740910401AD
:1041C00050910501241B350BE0911608F09117085A
:1041D000E217F307A0F42E1B3F0B2817390778F0DE
:1041E000AC014E5F5F4F2417350748F04E0F5F1F3D
:1041F00050931708409316088193919302C0E0E012
:10420000F0E0CF01DF91CF910895CF93DF93009736
:1042100009F487C0FC01329713821282C0911808FA
:10422000D0911908209781F420813181280F391FFE
:1042300080911608909117088217930779F5F093EB
:104240001708E09316086DC0DE0120E030E0AE17DD
:10425000BF0750F412964D915C9113979D01411543
:10426000510509F1DA01F3CFB383A2834081518173
:10427000840F951F8A179B0771F48D919C9111975C
:10428000840F951F02969183808312968D919C9145
:104290001397938382832115310529F4F09319082C
:1042A000E09318083EC0D9011396FC93EE93129741
:1042B0004D915D91A40FB51FEA17FB0779F480813A
:1042C0009181840F951F0296D90111969C938E932C
:1042D0008281938113969C938E931297E0E0F0E095
:1042E0008A819B81009719F0FE01EC01F9CFCE0184
:1042F000029628813981820F931F209116083091F0
:1043000017082817390769F4309729F4109219080B
:104310001092180802C013821282D0931708C0931B
:104320001608DF91CF9108958F929F92AF92BF921E
:10433000CF92DF92EF92FF92CF93DF93EC016881EF
:1043400079818A819B81611571058105910521F42F
:1043500064E279ED8BE597E02DE133EF41E050E049
:104360000E942E2049015A019B01AC01A7EAB1E449
:104370000E9453206B017C01ACEEB4EFA5019401C7
:104380000E942722C60ED71EE81EF91EF7FE06C0A1
:1043900081E0C81AD108E10880E8F80AC882D98209
:1043A000EA82FB82C701B6019F77DF91CF91FF9030
:1043B000EF90DF90CF90BF90AF909F908F90089537
:1043C0000E949421089586E091E00E94942108952E
:1043D000609306017093070180930801909309018F
:1043E0000895FB01DC014150504048F001900D92CE
:1043F0000020C9F701C01D9241505040E0F70895D8
:10440000FB0151915523A9F0BF01DC014D914517E6
:104410004111E1F759F4CD010190002049F04D918F
:1044200040154111C9F3FB014111EFCF81E090E04C
:1044300001970895DC016C9161566A3108F0605E65
:104440006F5B6D93C1F70895B7FF0C9453200E94E2
:0C4450005320821B930B0895F894FFCFBB
:10445C0000001A088000010000002F023202340212
:10446C00360276026102050004000300020001001E
:10447C00020032000000FFFFFFFF320001564D44E6
:10448C0050565F317C315F564D4450560D0A0074C6
:10449C006F6F20736C6F772E206261636B20746F6B
:1044AC002074686520737461727420666F72207951
:1044BC006F752E0020202E00596F7520776F6E209F
:1044CC0069742120596F75206765742061206E69AD
:1044DC006365206D6573736167652076696120740F
:1044EC00686520596F75576F6E2046756E637469D9
:1044FC006F6E2120796F75576F6E49742069732028
:10450C0074727565206E6F772100596F752050722B
:10451C006573736564204B6579202300202D200082
:10452C005B20436F727265637421205D002D2D2D0D
:10453C002D2D2D2D2D2D2D2D2D2D2D2D2D2D2D2D9F
:10454C002D005B20496E636F727265637421205D70
:10455C00005072657373206B6579202300486F6F70
:10456C007261792120596F7520736F6C76656420A8
:10457C0069742120536F20636C657665722100434A
:10458C00230044004500460002000300040005001F
:10459C000600070000000000910D861E44656C6546
:1045AC00746520736F6E673A002E4D5033002E5792
:1045BC004D41002E574156002E414343002E4D498C
:1045CC004449002E4F4747002E564F524249530044
:1045DC00496E69742076733130787820696E204D7D
:1045EC0049444920666F726D61742E2E2E00646FE3
:1045FC006E650D0A0046616E6379204D6964692011
:10460C00536F756E64730D0A0020496E7374727566
:10461C006D656E743A20004E3A000D0A56533130D7
:10462C00787820436C6F636B204672713A20307837
:10463C00006C6F6164204D49444920506C7567696A
:10464C006E2E2E2E0D0A00564D4450435F005F56C1
:10465C004D4450430D0A004572726F723A204174FA
:10466C0074656D707420746F207365742061207292
:10467C006561642D6F6E6C79207661726961626C14
:10468C0065206F7220646174612074797065206E8E
:10469C006F7420737570706F727465640D0A00000E
:1046AC000000000A1D861E8C1CA51C971CE81C6EA5
:0C46BC00616E00696E66006F766600009B
:00000001FF
